{
	"data": {
		"bytecode": {
			"linkReferences": {},
			"object": "6080604052600280546001600160a01b031990811673bb4cdb9cbd36b01bd1cbaebf2de08d9173bc095c1790915560038054821661dead178155600480549092169091556b033b2e3c9fd0803ce80000006005819055600655600d556064600e8190556001600f819055601081905560118190556012819055601381905560148190556015819055601681905560178190556050601a55601b91909155601d805460ff60a01b191690556207a120601f556020805460ff1916909117905569d3c21bcecceda1000000602155348015620000d857600080fd5b50600080546001600160a01b0319908116339081178355825260016020818152604093849020805460ff1916909217909155601c80549092167310ed43c718714eb63d5aa57b78b54704e256024e1791829055825163c45a015560e01b815292516001600160a01b03929092169263c45a01559260048083019392829003018186803b1580156200016857600080fd5b505afa1580156200017d573d6000803e3d6000fd5b505050506040513d60208110156200019457600080fd5b5051600254604080516364e329cb60e11b81526001600160a01b0392831660048201523060248201529051919092169163c9c653969160448083019260209291908290030181600087803b158015620001ec57600080fd5b505af115801562000201573d6000803e3d6000fd5b505050506040513d60208110156200021857600080fd5b5051601d80546001600160a01b0319166001600160a01b03928316179055306000908152600860209081526040808320601c805486168552925291829020600019905554905191169073bb4cdb9cbd36b01bd1cbaebf2de08d9173bc095c906200028290620003cd565b6001600160a01b03928316815291166020820152604080519182900301906000f080158015620002b6573d6000803e3d6000fd5b50601e80546001600160a01b039283166001600160a01b031991821617909155336000818152600960209081526040808320805460ff199081166001908117909255600a84528285208054821683179055600b8452828520805482168317905560038054891686528386208054831684179055308087528487208054841685179055601d548a168752600c8652848720805484168517905586528386208054831684179055549097168452818420805490971617909555601880548516841790556019805490941683179093556005548282526007845284822081905584519081529351919390927fddf252ad1be2c89b69c2b068fc378daa952ba7f163c4a11628f55a4df523b3ef92918290030190a3620003db565b6110dc806200413d83390190565b613d5280620003eb6000396000f3fe608060405260043610620003315760003560e01c80637d1db4a511620001b7578063d543dbeb11620000f1578063f0b37c0411620000a3578063f84ba65d1162000079578063f84ba65d1462000c6f578063f887ea401462000cae578063fe9fbb801462000cc6578063ffb54a991462000cfd5762000339565b8063f0b37c041462000bc2578063f2fde38b1462000bf9578063f708a64f1462000c305762000339565b8063d543dbeb1462000ad7578063d695bb271462000b05578063dd62ed3e1462000b1d578063df20fd491462000b5c578063e99090c11462000b92578063ea19e4a81462000baa5762000339565b8063a4b45c001162000169578063b1b7fe1b116200013f578063b1b7fe1b1462000981578063b6a5d7de1462000a5a578063bfe109281462000a91578063d51ed1c81462000aa95762000339565b8063a4b45c0014620008ed578063a8aa1b31146200092c578063a9059cbb14620009445762000339565b80637d1db4a5146200080c5780637eff3e3c14620008245780637fbcedff146200085b578063893d20e8146200087357806395d89b4114620008a75780639d1944f514620008bf5762000339565b806323b872dd11620002895780635c85974f116200023b5780636c5b285511620002115780636c5b285514620007655780636d796e8814620007a55780636ddd171314620007bd57806370a0823114620007d55762000339565b80635c85974f14620006e05780635fe4bea8146200070e578063658d4b7f14620007265762000339565b806323b872dd14620005b15780632b112e4914620005f85780632d48e89614620006105780632f54bf6e1462000644578063313ce567146200067b578063571ac8b014620006a95762000339565b80631279897211620002e35780631279897214620004c7578063178d9b8e14620004df57806318160ddd146200051f5780631b1d897814620005375780631da1db5e146200054f578063201e7991146200057d5762000339565b80630445b667146200033e57806306fdde031462000368578063095ea7b314620003f85780630d29598014620004495780631161ae39146200047b5780631252bd6a14620004af5762000339565b366200033957005b600080fd5b3480156200034b57600080fd5b506200035662000d15565b60408051918252519081900360200190f35b3480156200037557600080fd5b506200038062000d1b565b6040805160208082528351818301528351919283929083019185019080838360005b83811015620003bc578181015183820152602001620003a2565b50505050905090810190601f168015620003ea5780820380516001836020036101000a031916815260200191505b509250505060405180910390f35b3480156200040557600080fd5b5062000435600480360360408110156200041e57600080fd5b506001600160a01b03813516906020013562000d3f565b604080519115158252519081900360200190f35b3480156200045657600080fd5b5062000479600480360360208110156200046f57600080fd5b5035151562000da6565b005b3480156200048857600080fd5b506200043560048036036040811015620004a157600080fd5b508035906020013562000e0a565b348015620004bc57600080fd5b506200035662000e20565b348015620004d457600080fd5b506200047962000e26565b348015620004ec57600080fd5b5062000479600480360360808110156200050557600080fd5b508035906020810135906040810135906060013562000ef9565b3480156200052c57600080fd5b506200035662000f58565b3480156200054457600080fd5b506200035662000f5e565b3480156200055c57600080fd5b5062000479600480360360208110156200057557600080fd5b503562000f64565b3480156200058a57600080fd5b506200047960048036036040811015620005a357600080fd5b508035906020013562000fe8565b348015620005be57600080fd5b506200043560048036036060811015620005d757600080fd5b506001600160a01b038135811691602081013590911690604001356200103e565b3480156200060557600080fd5b506200035662001105565b3480156200061d57600080fd5b5062000479600480360360408110156200063657600080fd5b508035906020013562001156565b3480156200065157600080fd5b5062000435600480360360208110156200066a57600080fd5b50356001600160a01b031662001213565b3480156200068857600080fd5b506200069362001227565b6040805160ff9092168252519081900360200190f35b348015620006b657600080fd5b506200043560048036036020811015620006cf57600080fd5b50356001600160a01b03166200122c565b348015620006ed57600080fd5b5062000479600480360360208110156200070657600080fd5b50356200123c565b3480156200071b57600080fd5b50620004796200128c565b3480156200073357600080fd5b5062000479600480360360408110156200074c57600080fd5b506001600160a01b03813516906020013515156200133f565b3480156200077257600080fd5b5062000479600480360360808110156200078b57600080fd5b5080359060208101359060408101359060600135620013b5565b348015620007b257600080fd5b506200035662001414565b348015620007ca57600080fd5b50620004356200141a565b348015620007e257600080fd5b506200035660048036036020811015620007fb57600080fd5b50356001600160a01b031662001423565b3480156200081957600080fd5b50620003566200143e565b3480156200083157600080fd5b5062000479600480360360208110156200084a57600080fd5b50356001600160a01b031662001444565b3480156200086857600080fd5b506200035662001501565b3480156200088057600080fd5b506200088b62001507565b604080516001600160a01b039092168252519081900360200190f35b348015620008b457600080fd5b506200038062001516565b348015620008cc57600080fd5b506200047960048036036020811015620008e557600080fd5b503562001535565b348015620008fa57600080fd5b5062000479600480360360408110156200091357600080fd5b506001600160a01b038135811691602001351662001595565b3480156200093957600080fd5b506200088b6200160e565b3480156200095157600080fd5b5062000435600480360360408110156200096a57600080fd5b506001600160a01b0381351690602001356200161d565b3480156200098e57600080fd5b506200047960048036036040811015620009a757600080fd5b810190602081018135640100000000811115620009c357600080fd5b820183602082011115620009d657600080fd5b80359060200191846020830284011164010000000083111715620009f957600080fd5b91939092909160208101903564010000000081111562000a1857600080fd5b82018360208201111562000a2b57600080fd5b8035906020019184602083028401116401000000008311171562000a4e57600080fd5b5090925090506200162c565b34801562000a6757600080fd5b50620004796004803603602081101562000a8057600080fd5b50356001600160a01b03166200192c565b34801562000a9e57600080fd5b506200088b62001999565b34801562000ab657600080fd5b50620003566004803603602081101562000acf57600080fd5b5035620019a8565b34801562000ae457600080fd5b50620004796004803603602081101562000afd57600080fd5b5035620019f2565b34801562000b1257600080fd5b506200047962001a53565b34801562000b2a57600080fd5b50620003566004803603604081101562000b4357600080fd5b506001600160a01b038135811691602001351662001aa7565b34801562000b6957600080fd5b50620004796004803603604081101562000b8257600080fd5b5080351515906020013562001ad2565b34801562000b9f57600080fd5b506200035662001b34565b34801562000bb757600080fd5b506200035662001b3a565b34801562000bcf57600080fd5b50620004796004803603602081101562000be857600080fd5b50356001600160a01b031662001b40565b34801562000c0657600080fd5b50620004796004803603602081101562000c1f57600080fd5b50356001600160a01b031662001ba7565b34801562000c3d57600080fd5b50620004796004803603604081101562000c5657600080fd5b506001600160a01b038135169060200135151562001c5b565b34801562000c7c57600080fd5b50620004796004803603604081101562000c9557600080fd5b506001600160a01b038135169060200135151562001ddc565b34801562000cbb57600080fd5b506200088b62001e52565b34801562000cd357600080fd5b50620004356004803603602081101562000cec57600080fd5b50356001600160a01b031662001e61565b34801562000d0a57600080fd5b506200043562001e7f565b60215481565b60408051808201909152600a815269111a585b5bdb9914185960b21b602082015290565b3360008181526008602090815260408083206001600160a01b038716808552908352818420869055815186815291519394909390927f8c5be1e5ebec7d5bd14f71427d1e84f3dd0314c0f7b2291e5b200ac8c7c3b925928290030190a35060015b92915050565b62000db13362001213565b62000dec576040805162461bcd60e51b815260206004820152600660248201526510a7aba722a960d11b604482015290519081900360640190fd5b601d8054911515600160a01b0260ff60a01b19909216919091179055565b60008262000e1883620019a8565b119392505050565b60105481565b601e60009054906101000a90046001600160a01b03166001600160a01b031663f0fc6bca6040518163ffffffff1660e01b8152600401600060405180830381600087803b15801562000e7757600080fd5b505af115801562000e8c573d6000803e3d6000fd5b5050601e54601f54604080516001624d3b8760e01b031981526004810192909252516001600160a01b03909216935063ffb2c479925060248082019260009290919082900301818387803b15801562000ee457600080fd5b505af192505050801562000ef6575060015b50565b62000f043362001e61565b62000f44576040805162461bcd60e51b815260206004820152600b60248201526a085055551213d49256915160aa1b604482015290519081900360640190fd5b600f93909355601091909155601155600e55565b60055490565b60135481565b62000f6f3362001e61565b62000faf576040805162461bcd60e51b815260206004820152600b60248201526a085055551213d49256915160aa1b604482015290519081900360640190fd5b6040514790339060648484020480156108fc02916000818181858888f1935050505015801562000fe3573d6000803e3d6000fd5b505050565b62000ff33362001e61565b62001033576040805162461bcd60e51b815260206004820152600b60248201526a085055551213d49256915160aa1b604482015290519081900360640190fd5b601a91909155601b55565b6001600160a01b038316600090815260086020908152604080832033845290915281205460001914620010ee576040805180820182526016815275496e73756666696369656e7420416c6c6f77616e636560501b6020808301919091526001600160a01b0387166000908152600882528381203382529091529190912054620010c991849062001e8f565b6001600160a01b03851660009081526008602090815260408083203384529091529020555b620010fb84848462001f2a565b90505b9392505050565b600454600090620011519062001124906001600160a01b031662001423565b6003546200114a9062001140906001600160a01b031662001423565b60055490620023cf565b90620023cf565b905090565b620011613362001e61565b620011a1576040805162461bcd60e51b815260206004820152600b60248201526a085055551213d49256915160aa1b604482015290519081900360640190fd5b601e54604080516316a4744b60e11b8152600481018590526024810184905290516001600160a01b0390921691632d48e8969160448082019260009290919082900301818387803b158015620011f657600080fd5b505af11580156200120b573d6000803e3d6000fd5b505050505050565b6000546001600160a01b0390811691161490565b601290565b600062000da08260001962000d3f565b620012473362001e61565b62001287576040805162461bcd60e51b815260206004820152600b60248201526a085055551213d49256915160aa1b604482015290519081900360640190fd5b600655565b620012973362001e61565b620012d7576040805162461bcd60e51b815260206004820152600b60248201526a085055551213d49256915160aa1b604482015290519081900360640190fd5b601e546040805163a6871bc360e01b815233600482015290516001600160a01b039092169163a6871bc39160248082019260009290919082900301818387803b1580156200132457600080fd5b505af115801562001339573d6000803e3d6000fd5b50505050565b6200134a3362001e61565b6200138a576040805162461bcd60e51b815260206004820152600b60248201526a085055551213d49256915160aa1b604482015290519081900360640190fd5b6001600160a01b03919091166000908152600960205260409020805460ff1916911515919091179055565b620013c03362001e61565b62001400576040805162461bcd60e51b815260206004820152600b60248201526a085055551213d49256915160aa1b604482015290519081900360640190fd5b601293909355601391909155601455600e55565b60145481565b60205460ff1681565b6001600160a01b031660009081526007602052604090205490565b60065481565b6200144f3362001213565b6200148a576040805162461bcd60e51b815260206004820152600660248201526510a7aba722a960d11b604482015290519081900360640190fd5b601c546040516001600160a01b03909116908290620014a99062002be9565b6001600160a01b03928316815291166020820152604080519182900301906000f080158015620014dd573d6000803e3d6000fd5b50601e80546001600160a01b0319166001600160a01b039290921691909117905550565b60115481565b6000546001600160a01b031690565b604080518082019091526005815264091114105160da1b602082015290565b620015403362001e61565b62001580576040805162461bcd60e51b815260206004820152600b60248201526a085055551213d49256915160aa1b604482015290519081900360640190fd5b620b71b081106200159057600080fd5b601f55565b620015a03362001e61565b620015e0576040805162461bcd60e51b815260206004820152600b60248201526a085055551213d49256915160aa1b604482015290519081900360640190fd5b601880546001600160a01b039384166001600160a01b03199182161790915560198054929093169116179055565b601d546001600160a01b031681565b6000620010fe33848462001f2a565b620016373362001213565b62001672576040805162461bcd60e51b815260206004820152600660248201526510a7aba722a960d11b604482015290519081900360640190fd5b6000838214620016b45760405162461bcd60e51b815260040180806020018281038252602881526020018062003cd46028913960400191505060405180910390fd5b60005b84811015620016e457838382818110620016cd57fe5b6020029190910135929092019150600101620016b7565b5080620016f13362001423565b101562001745576040805162461bcd60e51b815260206004820152601c60248201527f4e6f7420656e6f75676820746f6b656e7320746f2061697264726f7000000000604482015290519081900360640190fd5b60005b848110156200189e576200178d338787848181106200176357fe5b905060200201356001600160a01b03168686858181106200178057fe5b9050602002013562002413565b50600c60008787848181106200179f57fe5b602090810292909201356001600160a01b03168352508101919091526040016000205460ff166200189557601e546001600160a01b03166314b6ca96878784818110620017e857fe5b905060200201356001600160a01b0316600760008a8a878181106200180957fe5b905060200201356001600160a01b03166001600160a01b03166001600160a01b03168152602001908152602001600020546040518363ffffffff1660e01b815260040180836001600160a01b0316815260200182815260200192505050600060405180830381600087803b1580156200188157600080fd5b505af192505050801562001893575060015b505b60010162001748565b50336000908152600c602052604090205460ff166200192557601e5433600081815260076020526040808220548151630a5b654b60e11b815260048101949094526024840152516001600160a01b03909316926314b6ca9692604480820193929182900301818387803b1580156200191557600080fd5b505af19250505080156200120b57505b5050505050565b620019373362001213565b62001972576040805162461bcd60e51b815260206004820152600660248201526510a7aba722a960d11b604482015290519081900360640190fd5b6001600160a01b03166000908152600160208190526040909120805460ff19169091179055565b601e546001600160a01b031681565b600062000da0620019b862001105565b601d54620019eb90620019e390600290620019dc906001600160a01b031662001423565b90620024f8565b8590620024f8565b9062002556565b620019fd3362001e61565b62001a3d576040805162461bcd60e51b815260206004820152600b60248201526a085055551213d49256915160aa1b604482015290519081900360640190fd5b606481600554028162001a4c57fe5b0460065550565b601e54601f54604080516001624d3b8760e01b031981526004810192909252516001600160a01b039092169163ffb2c4799160248082019260009290919082900301818387803b15801562000ee457600080fd5b6001600160a01b03918216600090815260086020908152604080832093909416825291909152205490565b62001add3362001e61565b62001b1d576040805162461bcd60e51b815260206004820152600b60248201526a085055551213d49256915160aa1b604482015290519081900360640190fd5b6020805460ff191692151592909217909155602155565b60125481565b600f5481565b62001b4b3362001213565b62001b86576040805162461bcd60e51b815260206004820152600660248201526510a7aba722a960d11b604482015290519081900360640190fd5b6001600160a01b03166000908152600160205260409020805460ff19169055565b62001bb23362001213565b62001bed576040805162461bcd60e51b815260206004820152600660248201526510a7aba722a960d11b604482015290519081900360640190fd5b600080546001600160a01b0319166001600160a01b038316908117825580825260016020818152604093849020805460ff1916909217909155825191825291517f04dba622d284ed0014ee4b9a6a68386be1a4c08a4913ae272de89199cc686163929181900390910190a150565b62001c663362001e61565b62001ca6576040805162461bcd60e51b815260206004820152600b60248201526a085055551213d49256915160aa1b604482015290519081900360640190fd5b6001600160a01b038216301480159062001cce5750601d546001600160a01b03838116911614155b62001cd857600080fd5b6001600160a01b0382166000908152600c60205260409020805460ff1916821580159190911790915562001d7957601e5460408051630a5b654b60e11b81526001600160a01b03858116600483015260006024830181905292519316926314b6ca969260448084019391929182900301818387803b15801562001d5a57600080fd5b505af115801562001d6f573d6000803e3d6000fd5b5050505062001dd8565b601e546001600160a01b03838116600081815260076020526040808220548151630a5b654b60e11b8152600481019490945260248401525192909316926314b6ca969260448084019382900301818387803b158015620011f657600080fd5b5050565b62001de73362001e61565b62001e27576040805162461bcd60e51b815260206004820152600b60248201526a085055551213d49256915160aa1b604482015290519081900360640190fd5b6001600160a01b03919091166000908152600a60205260409020805460ff1916911515919091179055565b601c546001600160a01b031681565b6001600160a01b031660009081526001602052604090205460ff1690565b601d54600160a01b900460ff1681565b6000818484111562001f225760405162461bcd60e51b81526004018080602001828103825283818151815260200191508051906020019080838360005b8381101562001ee657818101518382015260200162001ecc565b50505050905090810190601f16801562001f145780820380516001836020036101000a031916815260200191505b509250505060405180910390fd5b505050900390565b60225460009060ff161562001f4e5762001f4684848462002413565b9050620010fe565b6001600160a01b03841660009081526001602052604090205460ff1615801562001f9157506001600160a01b03831660009081526001602052604090205460ff16155b1562001fed57601d54600160a01b900460ff1662001fed576040805162461bcd60e51b8152602060048201526014602482015273151c98591a5b99c81b9bdd081bdc195b881e595d60621b604482015290519081900360640190fd5b6001600160a01b03841660009081526001602052604090205460ff161580156200202057506001600160a01b0383163014155b80156200203b57506003546001600160a01b03848116911614155b8015620020565750601d546001600160a01b03848116911614155b80156200207157506019546001600160a01b03848116911614155b80156200208c57506018546001600160a01b03848116911614155b15620021025760065482111580620020bc57506001600160a01b0384166000908152600a602052604090205460ff165b62002102576040805162461bcd60e51b8152602060048201526011602482015270151608131a5b5a5d08115e18d959591959607a1b604482015290519081900360640190fd5b6200210c6200259a565b156200211c576200211c620025ec565b6040805180820182526014815273496e73756666696369656e742042616c616e636560601b6020808301919091526001600160a01b0387166000908152600790915291909120546200217091849062001e8f565b6001600160a01b0385166000908152600760205260408120919091556200219785620029f4565b620021a35782620021af565b620021af858462002a13565b6001600160a01b038516600090815260076020526040902054909150620021d7908262002b25565b6001600160a01b038086166000908152600760209081526040808320949094559188168152600c909152205460ff166200227e57601e546001600160a01b03868116600081815260076020526040808220548151630a5b654b60e11b8152600481019490945260248401525192909316926314b6ca969260448084019382900301818387803b1580156200226a57600080fd5b505af19250505080156200227c575060015b505b6001600160a01b0384166000908152600c602052604090205460ff166200231257601e546001600160a01b03858116600081815260076020526040808220548151630a5b654b60e11b8152600481019490945260248401525192909316926314b6ca969260448084019382900301818387803b158015620022fe57600080fd5b505af192505050801562002310575060015b505b601e54601f54604080516001624d3b8760e01b031981526004810192909252516001600160a01b039092169163ffb2c4799160248082019260009290919082900301818387803b1580156200236657600080fd5b505af192505050801562002378575060015b50836001600160a01b0316856001600160a01b03167fddf252ad1be2c89b69c2b068fc378daa952ba7f163c4a11628f55a4df523b3ef836040518082815260200191505060405180910390a3506001949350505050565b6000620010fe83836040518060400160405280601e81526020017f536166654d6174683a207375627472616374696f6e206f766572666c6f77000081525062001e8f565b6040805180820182526014815273496e73756666696369656e742042616c616e636560601b6020808301919091526001600160a01b03861660009081526007909152918220546200246691849062001e8f565b6001600160a01b03808616600090815260076020526040808220939093559085168152205462002497908362002b25565b6001600160a01b0380851660008181526007602090815260409182902094909455805186815290519193928816927fddf252ad1be2c89b69c2b068fc378daa952ba7f163c4a11628f55a4df523b3ef92918290030190a35060019392505050565b600082620025095750600062000da0565b828202828482816200251757fe5b0414620010fe5760405162461bcd60e51b815260040180806020018281038252602181526020018062003cfc6021913960400191505060405180910390fd5b6000620010fe83836040518060400160405280601a81526020017f536166654d6174683a206469766973696f6e206279207a65726f00000000000081525062002b80565b601d546000906001600160a01b03163314801590620025bc575060225460ff16155b8015620025cb575060205460ff165b80156200115157505060215430600090815260076020526040902054101590565b6022805460ff19166001179055601a54601b546000916200260d9162000e0a565b6200261b576015546200261e565b60005b90506000620026466002620019eb600d54620019eb86602154620024f890919063ffffffff16565b905060006200266182602154620023cf90919063ffffffff16565b60408051600280825260608083018452939450909160208301908036833701905050905030816000815181106200269457fe5b6001600160a01b039283166020918202929092010152600254825191169082906001908110620026c057fe5b6001600160a01b03928316602091820292909201810191909152601c5460405163791ac94760e01b8152600481018681526000602483018190523060648401819052426084850181905260a060448601908152895160a487015289514799979097169763791ac947978c9795968c9690939260c49091019187820191028083838b5b838110156200275c57818101518382015260200162002742565b505050509050019650505050505050600060405180830381600087803b1580156200278657600080fd5b505af11580156200279b573d6000803e3d6000fd5b505050506000620027b68247620023cf90919063ffffffff16565b90506000620027d5620027cb88600262002556565b600d5490620023cf565b90506000620027ed6002620019eb8481878d620024f8565b905060006200280d83620019eb60165487620024f890919063ffffffff16565b905060006200282d84620019eb60175488620024f890919063ffffffff16565b9050601e60009054906101000a90046001600160a01b03166001600160a01b031663d0e30db0836040518263ffffffff1660e01b81526004016000604051808303818588803b1580156200288057600080fd5b505af19350505050801562002893575060015b506019546040516000916001600160a01b03169061753090849084818181858888f193505050503d8060008114620028e8576040519150601f19603f3d011682016040523d82523d6000602084013e620028ed565b606091505b5060009250508a159050620029dd57601c546018546040805163f305d71960e01b8152306004820152602481018e905260006044820181905260648201526001600160a01b0392831660848201524260a48201529051919092169163f305d71991879160c48082019260609290919082900301818588803b1580156200297257600080fd5b505af115801562002987573d6000803e3d6000fd5b50505050506040513d60608110156200299f57600080fd5b505060408051858152602081018c905281517f424db2872186fa7e7afa7a5e902ed3b49a2ef19c2f5431e672462495dd6b4506929181900390910190a15b50506022805460ff19169055505050505050505050565b6001600160a01b031660009081526009602052604090205460ff161590565b601d546000906001600160a01b038481169116141562002a4557600f5460155560115460175560105460165562002a58565b6012546015556014546017556013546016555b62002a7f60165462002a7860175460155462002b2590919063ffffffff16565b9062002b25565b600d819055600e5460009162002a9d9190620019eb908690620024f8565b3060009081526007602052604090205490915062002abc908262002b25565b30600081815260076020908152604091829020939093558051848152905191926001600160a01b038816927fddf252ad1be2c89b69c2b068fc378daa952ba7f163c4a11628f55a4df523b3ef9281900390910190a362002b1d8382620023cf565b949350505050565b600082820183811015620010fe576040805162461bcd60e51b815260206004820152601b60248201527f536166654d6174683a206164646974696f6e206f766572666c6f770000000000604482015290519081900360640190fd5b6000818362002bd25760405162461bcd60e51b815260206004820181815283516024840152835190928392604490910191908501908083836000831562001ee657818101518382015260200162001ecc565b50600083858162002bdf57fe5b0495945050505050565b6110dc8062002bf88339019056fe6080604052600280546001600160a01b03191673bb4cdb9cbd36b01bd1cbaebf2de08d9173bc095c1790556ec097ce7bc90715b34b9f1000000000600c55610708600d55633b9aca00600e5534801561005757600080fd5b506040516110dc3803806110dc8339818101604052604081101561007a57600080fd5b5080516020909101516001600160a01b0382166100ab577310ed43c718714eb63d5aa57b78b54704e256024e6100ad565b815b600380546001600160a01b039283166001600160a01b031991821617909155600080548216331790556001805493909216921691909117905550610fe6806100f66000396000f3fe6080604052600436106101145760003560e01c8063cab34c08116100a0578063efca2eed11610064578063efca2eed14610319578063f0fc6bca1461032e578063f887ea4014610343578063ffb2c47914610358578063ffd49c841461038257610114565b8063cab34c0814610281578063ce7c2ac214610296578063d0e30db0146102e7578063e2d2e219146102ef578063ecd0c0c31461030457610114565b80633a98ef39116100e75780633a98ef39146101de5780634fab0ae8146101f35780638dd9500214610208578063997664d714610239578063a6871bc31461024e57610114565b806311ce023d1461011957806314b6ca961461014057806328fd31981461017b5780632d48e896146101ae575b600080fd5b34801561012557600080fd5b5061012e610397565b60408051918252519081900360200190f35b34801561014c57600080fd5b506101796004803603604081101561016357600080fd5b506001600160a01b03813516906020013561039d565b005b34801561018757600080fd5b5061012e6004803603602081101561019e57600080fd5b50356001600160a01b03166104c2565b3480156101ba57600080fd5b50610179600480360360408110156101d157600080fd5b508035906020013561054e565b3480156101ea57600080fd5b5061012e610570565b3480156101ff57600080fd5b5061012e610576565b34801561021457600080fd5b5061021d61057c565b604080516001600160a01b039092168252519081900360200190f35b34801561024557600080fd5b5061012e61058b565b34801561025a57600080fd5b506101796004803603602081101561027157600080fd5b50356001600160a01b0316610591565b34801561028d57600080fd5b5061021d6106a7565b3480156102a257600080fd5b506102c9600480360360208110156102b957600080fd5b50356001600160a01b03166106b6565b60408051938452602084019290925282820152519081900360600190f35b6101796106d7565b3480156102fb57600080fd5b5061012e610967565b34801561031057600080fd5b5061021d61096d565b34801561032557600080fd5b5061012e61097c565b34801561033a57600080fd5b50610179610982565b34801561034f57600080fd5b5061021d61098d565b34801561036457600080fd5b506101796004803603602081101561037b57600080fd5b503561099c565b34801561038e57600080fd5b5061012e610a7e565b600c5481565b6000546001600160a01b031633146103b457600080fd5b6001600160a01b038216600090815260076020526040902054156103db576103db82610a84565b60008111801561040157506001600160a01b038216600090815260076020526040902054155b156104145761040f82610bac565b610447565b8015801561043957506001600160a01b03821660009081526007602052604090205415155b156104475761044782610c0d565b6001600160a01b03821660009081526007602052604090205460085461047891839161047291610cfa565b90610d45565b6008556001600160a01b038216600090815260076020526040902081905561049f81610d9f565b6001600160a01b0390921660009081526007602052604090206001019190915550565b6001600160a01b0381166000908152600760205260408120546104e757506000610549565b6001600160a01b03821660009081526007602052604081205461050990610d9f565b6001600160a01b03841660009081526007602052604090206001015490915080821161053a57600092505050610549565b6105448282610cfa565b925050505b919050565b6000546001600160a01b0316331461056557600080fd5b600d91909155600e55565b60085481565b600e5481565b6002546001600160a01b031681565b60095481565b6000546001600160a01b031633146105a857600080fd5b600154604080516370a0823160e01b815230600482015290516000926001600160a01b0316916370a08231916024808301926020929190829003018186803b1580156105f357600080fd5b505afa158015610607573d6000803e3d6000fd5b505050506040513d602081101561061d57600080fd5b50516001546040805163a9059cbb60e01b81526001600160a01b03868116600483015260248201859052915193945091169163a9059cbb916044808201926020929091908290030181600087803b15801561067757600080fd5b505af115801561068b573d6000803e3d6000fd5b505050506040513d60208110156106a157600080fd5b50505050565b6001546001600160a01b031681565b60076020526000908152604090208054600182015460029092015490919083565b6000546001600160a01b031633146106ee57600080fd5b600154604080516370a0823160e01b815230600482015290516000926001600160a01b0316916370a08231916024808301926020929190829003018186803b15801561073957600080fd5b505afa15801561074d573d6000803e3d6000fd5b505050506040513d602081101561076357600080fd5b5051604080516002808252606080830184529394509091602083019080368337505060025482519293506001600160a01b0316918391506000906107a357fe5b6001600160a01b03928316602091820292909201015260018054835192169183919081106107cd57fe5b6001600160a01b0392831660209182029290920181019190915260035460405163b6f9de9560e01b815260006004820181815230604484018190524260648501819052608060248601908152895160848701528951969098169763b6f9de9597349795968b969495939460a49091019187810191028083838b5b8381101561085f578181015183820152602001610847565b50505050905001955050505050506000604051808303818588803b15801561088657600080fd5b505af115801561089a573d6000803e3d6000fd5b5050600154604080516370a0823160e01b815230600482015290516000955061092594508793506001600160a01b03909216916370a0823191602480820192602092909190829003018186803b1580156108f357600080fd5b505afa158015610907573d6000803e3d6000fd5b505050506040513d602081101561091d57600080fd5b505190610cfa565b6009549091506109359082610d45565b600955600854600c5461095f91610956916109509085610dbc565b90610e15565b600b5490610d45565b600b55505050565b600b5481565b6000546001600160a01b031681565b600a5481565b61098b33610a84565b565b6003546001600160a01b031681565b6000546001600160a01b031633146109b357600080fd5b600454806109c15750610a7b565b6000805a905060005b84831080156109d857508381105b15610a765783600f54106109ec576000600f555b610a186004600f54815481106109fe57fe5b6000918252602090912001546001600160a01b0316610e57565b15610a4957610a496004600f5481548110610a2f57fe5b6000918252602090912001546001600160a01b0316610a84565b610a5e610a575a8490610cfa565b8490610d45565b92505a600f80546001908101909155909250016109ca565b505050505b50565b600d5481565b6001600160a01b038116600090815260076020526040902054610aa657610a7b565b6000610ab1826104c2565b90508015610ba857600a54610ac69082610d45565b600a556001546040805163a9059cbb60e01b81526001600160a01b038581166004830152602482018590529151919092169163a9059cbb9160448083019260209291908290030181600087803b158015610b1f57600080fd5b505af1158015610b33573d6000803e3d6000fd5b505050506040513d6020811015610b4957600080fd5b50506001600160a01b03821660009081526006602090815260408083204290556007909152902060020154610b7e9082610d45565b6001600160a01b038316600090815260076020526040902060028101919091555461049f90610d9f565b5050565b600480546001600160a01b039092166000818152600560205260408120849055600184018355919091527f8a35acfbc15ff81a39ae7d344fd709f28e8600b4aa8c65c6b64bfe7fe36bd19b90910180546001600160a01b0319169091179055565b600480546000198101908110610c1f57fe5b60009182526020808320909101546001600160a01b0384811684526005909252604090922054600480549290931692918110610c5757fe5b600091825260208083209190910180546001600160a01b0319166001600160a01b039485161790559183168152600591829052604081205460048054919392916000198101908110610ca557fe5b60009182526020808320909101546001600160a01b031683528201929092526040019020556004805480610cd557fe5b600082815260209020810160001990810180546001600160a01b031916905501905550565b6000610d3c83836040518060400160405280601e81526020017f536166654d6174683a207375627472616374696f6e206f766572666c6f770000815250610e93565b90505b92915050565b600082820183811015610d3c576040805162461bcd60e51b815260206004820152601b60248201527f536166654d6174683a206164646974696f6e206f766572666c6f770000000000604482015290519081900360640190fd5b6000610d3f600c54610950600b5485610dbc90919063ffffffff16565b600082610dcb57506000610d3f565b82820282848281610dd857fe5b0414610d3c5760405162461bcd60e51b8152600401808060200182810382526021815260200180610f906021913960400191505060405180910390fd5b6000610d3c83836040518060400160405280601a81526020017f536166654d6174683a206469766973696f6e206279207a65726f000000000000815250610f2a565b600d546001600160a01b0382166000908152600660205260408120549091429101108015610d3f5750600e54610e8c836104c2565b1192915050565b60008184841115610f225760405162461bcd60e51b81526004018080602001828103825283818151815260200191508051906020019080838360005b83811015610ee7578181015183820152602001610ecf565b50505050905090810190601f168015610f145780820380516001836020036101000a031916815260200191505b509250505060405180910390fd5b505050900390565b60008183610f795760405162461bcd60e51b8152602060048201818152835160248401528351909283926044909101919085019080838360008315610ee7578181015183820152602001610ecf565b506000838581610f8557fe5b049594505050505056fe536166654d6174683a206d756c7469706c69636174696f6e206f766572666c6f77a26469706673582212209e3c655a7114428f2fbc28f5cfd0931a5b33d1297151c5dd42dfe47504103c1c64736f6c634300070500334d69736d61746368206265747765656e204164647265737320616e6420746f6b656e20636f756e74536166654d6174683a206d756c7469706c69636174696f6e206f766572666c6f77a2646970667358221220e946aec930859e567ac8ca4eac80a29eef85b5e9d68684476e354f640fe4844464736f6c634300070500336080604052600280546001600160a01b03191673bb4cdb9cbd36b01bd1cbaebf2de08d9173bc095c1790556ec097ce7bc90715b34b9f1000000000600c55610708600d55633b9aca00600e5534801561005757600080fd5b506040516110dc3803806110dc8339818101604052604081101561007a57600080fd5b5080516020909101516001600160a01b0382166100ab577310ed43c718714eb63d5aa57b78b54704e256024e6100ad565b815b600380546001600160a01b039283166001600160a01b031991821617909155600080548216331790556001805493909216921691909117905550610fe6806100f66000396000f3fe6080604052600436106101145760003560e01c8063cab34c08116100a0578063efca2eed11610064578063efca2eed14610319578063f0fc6bca1461032e578063f887ea4014610343578063ffb2c47914610358578063ffd49c841461038257610114565b8063cab34c0814610281578063ce7c2ac214610296578063d0e30db0146102e7578063e2d2e219146102ef578063ecd0c0c31461030457610114565b80633a98ef39116100e75780633a98ef39146101de5780634fab0ae8146101f35780638dd9500214610208578063997664d714610239578063a6871bc31461024e57610114565b806311ce023d1461011957806314b6ca961461014057806328fd31981461017b5780632d48e896146101ae575b600080fd5b34801561012557600080fd5b5061012e610397565b60408051918252519081900360200190f35b34801561014c57600080fd5b506101796004803603604081101561016357600080fd5b506001600160a01b03813516906020013561039d565b005b34801561018757600080fd5b5061012e6004803603602081101561019e57600080fd5b50356001600160a01b03166104c2565b3480156101ba57600080fd5b50610179600480360360408110156101d157600080fd5b508035906020013561054e565b3480156101ea57600080fd5b5061012e610570565b3480156101ff57600080fd5b5061012e610576565b34801561021457600080fd5b5061021d61057c565b604080516001600160a01b039092168252519081900360200190f35b34801561024557600080fd5b5061012e61058b565b34801561025a57600080fd5b506101796004803603602081101561027157600080fd5b50356001600160a01b0316610591565b34801561028d57600080fd5b5061021d6106a7565b3480156102a257600080fd5b506102c9600480360360208110156102b957600080fd5b50356001600160a01b03166106b6565b60408051938452602084019290925282820152519081900360600190f35b6101796106d7565b3480156102fb57600080fd5b5061012e610967565b34801561031057600080fd5b5061021d61096d565b34801561032557600080fd5b5061012e61097c565b34801561033a57600080fd5b50610179610982565b34801561034f57600080fd5b5061021d61098d565b34801561036457600080fd5b506101796004803603602081101561037b57600080fd5b503561099c565b34801561038e57600080fd5b5061012e610a7e565b600c5481565b6000546001600160a01b031633146103b457600080fd5b6001600160a01b038216600090815260076020526040902054156103db576103db82610a84565b60008111801561040157506001600160a01b038216600090815260076020526040902054155b156104145761040f82610bac565b610447565b8015801561043957506001600160a01b03821660009081526007602052604090205415155b156104475761044782610c0d565b6001600160a01b03821660009081526007602052604090205460085461047891839161047291610cfa565b90610d45565b6008556001600160a01b038216600090815260076020526040902081905561049f81610d9f565b6001600160a01b0390921660009081526007602052604090206001019190915550565b6001600160a01b0381166000908152600760205260408120546104e757506000610549565b6001600160a01b03821660009081526007602052604081205461050990610d9f565b6001600160a01b03841660009081526007602052604090206001015490915080821161053a57600092505050610549565b6105448282610cfa565b925050505b919050565b6000546001600160a01b0316331461056557600080fd5b600d91909155600e55565b60085481565b600e5481565b6002546001600160a01b031681565b60095481565b6000546001600160a01b031633146105a857600080fd5b600154604080516370a0823160e01b815230600482015290516000926001600160a01b0316916370a08231916024808301926020929190829003018186803b1580156105f357600080fd5b505afa158015610607573d6000803e3d6000fd5b505050506040513d602081101561061d57600080fd5b50516001546040805163a9059cbb60e01b81526001600160a01b03868116600483015260248201859052915193945091169163a9059cbb916044808201926020929091908290030181600087803b15801561067757600080fd5b505af115801561068b573d6000803e3d6000fd5b505050506040513d60208110156106a157600080fd5b50505050565b6001546001600160a01b031681565b60076020526000908152604090208054600182015460029092015490919083565b6000546001600160a01b031633146106ee57600080fd5b600154604080516370a0823160e01b815230600482015290516000926001600160a01b0316916370a08231916024808301926020929190829003018186803b15801561073957600080fd5b505afa15801561074d573d6000803e3d6000fd5b505050506040513d602081101561076357600080fd5b5051604080516002808252606080830184529394509091602083019080368337505060025482519293506001600160a01b0316918391506000906107a357fe5b6001600160a01b03928316602091820292909201015260018054835192169183919081106107cd57fe5b6001600160a01b0392831660209182029290920181019190915260035460405163b6f9de9560e01b815260006004820181815230604484018190524260648501819052608060248601908152895160848701528951969098169763b6f9de9597349795968b969495939460a49091019187810191028083838b5b8381101561085f578181015183820152602001610847565b50505050905001955050505050506000604051808303818588803b15801561088657600080fd5b505af115801561089a573d6000803e3d6000fd5b5050600154604080516370a0823160e01b815230600482015290516000955061092594508793506001600160a01b03909216916370a0823191602480820192602092909190829003018186803b1580156108f357600080fd5b505afa158015610907573d6000803e3d6000fd5b505050506040513d602081101561091d57600080fd5b505190610cfa565b6009549091506109359082610d45565b600955600854600c5461095f91610956916109509085610dbc565b90610e15565b600b5490610d45565b600b55505050565b600b5481565b6000546001600160a01b031681565b600a5481565b61098b33610a84565b565b6003546001600160a01b031681565b6000546001600160a01b031633146109b357600080fd5b600454806109c15750610a7b565b6000805a905060005b84831080156109d857508381105b15610a765783600f54106109ec576000600f555b610a186004600f54815481106109fe57fe5b6000918252602090912001546001600160a01b0316610e57565b15610a4957610a496004600f5481548110610a2f57fe5b6000918252602090912001546001600160a01b0316610a84565b610a5e610a575a8490610cfa565b8490610d45565b92505a600f80546001908101909155909250016109ca565b505050505b50565b600d5481565b6001600160a01b038116600090815260076020526040902054610aa657610a7b565b6000610ab1826104c2565b90508015610ba857600a54610ac69082610d45565b600a556001546040805163a9059cbb60e01b81526001600160a01b038581166004830152602482018590529151919092169163a9059cbb9160448083019260209291908290030181600087803b158015610b1f57600080fd5b505af1158015610b33573d6000803e3d6000fd5b505050506040513d6020811015610b4957600080fd5b50506001600160a01b03821660009081526006602090815260408083204290556007909152902060020154610b7e9082610d45565b6001600160a01b038316600090815260076020526040902060028101919091555461049f90610d9f565b5050565b600480546001600160a01b039092166000818152600560205260408120849055600184018355919091527f8a35acfbc15ff81a39ae7d344fd709f28e8600b4aa8c65c6b64bfe7fe36bd19b90910180546001600160a01b0319169091179055565b600480546000198101908110610c1f57fe5b60009182526020808320909101546001600160a01b0384811684526005909252604090922054600480549290931692918110610c5757fe5b600091825260208083209190910180546001600160a01b0319166001600160a01b039485161790559183168152600591829052604081205460048054919392916000198101908110610ca557fe5b60009182526020808320909101546001600160a01b031683528201929092526040019020556004805480610cd557fe5b600082815260209020810160001990810180546001600160a01b031916905501905550565b6000610d3c83836040518060400160405280601e81526020017f536166654d6174683a207375627472616374696f6e206f766572666c6f770000815250610e93565b90505b92915050565b600082820183811015610d3c576040805162461bcd60e51b815260206004820152601b60248201527f536166654d6174683a206164646974696f6e206f766572666c6f770000000000604482015290519081900360640190fd5b6000610d3f600c54610950600b5485610dbc90919063ffffffff16565b600082610dcb57506000610d3f565b82820282848281610dd857fe5b0414610d3c5760405162461bcd60e51b8152600401808060200182810382526021815260200180610f906021913960400191505060405180910390fd5b6000610d3c83836040518060400160405280601a81526020017f536166654d6174683a206469766973696f6e206279207a65726f000000000000815250610f2a565b600d546001600160a01b0382166000908152600660205260408120549091429101108015610d3f5750600e54610e8c836104c2565b1192915050565b60008184841115610f225760405162461bcd60e51b81526004018080602001828103825283818151815260200191508051906020019080838360005b83811015610ee7578181015183820152602001610ecf565b50505050905090810190601f168015610f145780820380516001836020036101000a031916815260200191505b509250505060405180910390fd5b505050900390565b60008183610f795760405162461bcd60e51b8152602060048201818152835160248401528351909283926044909101919085019080838360008315610ee7578181015183820152602001610ecf565b506000838581610f8557fe5b049594505050505056fe536166654d6174683a206d756c7469706c69636174696f6e206f766572666c6f77a26469706673582212209e3c655a7114428f2fbc28f5cfd0931a5b33d1297151c5dd42dfe47504103c1c64736f6c63430007050033",
			"opcodes": "PUSH1 0x80 PUSH1 0x40 MSTORE PUSH1 0x2 DUP1 SLOAD PUSH1 0x1 PUSH1 0x1 PUSH1 0xA0 SHL SUB NOT SWAP1 DUP2 AND PUSH20 0xBB4CDB9CBD36B01BD1CBAEBF2DE08D9173BC095C OR SWAP1 SWAP2 SSTORE PUSH1 0x3 DUP1 SLOAD DUP3 AND PUSH2 0xDEAD OR DUP2 SSTORE PUSH1 0x4 DUP1 SLOAD SWAP1 SWAP3 AND SWAP1 SWAP2 SSTORE PUSH12 0x33B2E3C9FD0803CE8000000 PUSH1 0x5 DUP2 SWAP1 SSTORE PUSH1 0x6 SSTORE PUSH1 0xD SSTORE PUSH1 0x64 PUSH1 0xE DUP2 SWAP1 SSTORE PUSH1 0x1 PUSH1 0xF DUP2 SWAP1 SSTORE PUSH1 0x10 DUP2 SWAP1 SSTORE PUSH1 0x11 DUP2 SWAP1 SSTORE PUSH1 0x12 DUP2 SWAP1 SSTORE PUSH1 0x13 DUP2 SWAP1 SSTORE PUSH1 0x14 DUP2 SWAP1 SSTORE PUSH1 0x15 DUP2 SWAP1 SSTORE PUSH1 0x16 DUP2 SWAP1 SSTORE PUSH1 0x17 DUP2 SWAP1 SSTORE PUSH1 0x50 PUSH1 0x1A SSTORE PUSH1 0x1B SWAP2 SWAP1 SWAP2 SSTORE PUSH1 0x1D DUP1 SLOAD PUSH1 0xFF PUSH1 0xA0 SHL NOT AND SWAP1 SSTORE PUSH3 0x7A120 PUSH1 0x1F SSTORE PUSH1 0x20 DUP1 SLOAD PUSH1 0xFF NOT AND SWAP1 SWAP2 OR SWAP1 SSTORE PUSH10 0xD3C21BCECCEDA1000000 PUSH1 0x21 SSTORE CALLVALUE DUP1 ISZERO PUSH3 0xD8 JUMPI PUSH1 0x0 DUP1 REVERT JUMPDEST POP PUSH1 0x0 DUP1 SLOAD PUSH1 0x1 PUSH1 0x1 PUSH1 0xA0 SHL SUB NOT SWAP1 DUP2 AND CALLER SWAP1 DUP2 OR DUP4 SSTORE DUP3 MSTORE PUSH1 0x1 PUSH1 0x20 DUP2 DUP2 MSTORE PUSH1 0x40 SWAP4 DUP5 SWAP1 KECCAK256 DUP1 SLOAD PUSH1 0xFF NOT AND SWAP1 SWAP3 OR SWAP1 SWAP2 SSTORE PUSH1 0x1C DUP1 SLOAD SWAP1 SWAP3 AND PUSH20 0x10ED43C718714EB63D5AA57B78B54704E256024E OR SWAP2 DUP3 SWAP1 SSTORE DUP3 MLOAD PUSH4 0xC45A0155 PUSH1 0xE0 SHL DUP2 MSTORE SWAP3 MLOAD PUSH1 0x1 PUSH1 0x1 PUSH1 0xA0 SHL SUB SWAP3 SWAP1 SWAP3 AND SWAP3 PUSH4 0xC45A0155 SWAP3 PUSH1 0x4 DUP1 DUP4 ADD SWAP4 SWAP3 DUP3 SWAP1 SUB ADD DUP2 DUP7 DUP1 EXTCODESIZE ISZERO DUP1 ISZERO PUSH3 0x168 JUMPI PUSH1 0x0 DUP1 REVERT JUMPDEST POP GAS STATICCALL ISZERO DUP1 ISZERO PUSH3 0x17D JUMPI RETURNDATASIZE PUSH1 0x0 DUP1 RETURNDATACOPY RETURNDATASIZE PUSH1 0x0 REVERT JUMPDEST POP POP POP POP PUSH1 0x40 MLOAD RETURNDATASIZE PUSH1 0x20 DUP2 LT ISZERO PUSH3 0x194 JUMPI PUSH1 0x0 DUP1 REVERT JUMPDEST POP MLOAD PUSH1 0x2 SLOAD PUSH1 0x40 DUP1 MLOAD PUSH4 0x64E329CB PUSH1 0xE1 SHL DUP2 MSTORE PUSH1 0x1 PUSH1 0x1 PUSH1 0xA0 SHL SUB SWAP3 DUP4 AND PUSH1 0x4 DUP3 ADD MSTORE ADDRESS PUSH1 0x24 DUP3 ADD MSTORE SWAP1 MLOAD SWAP2 SWAP1 SWAP3 AND SWAP2 PUSH4 0xC9C65396 SWAP2 PUSH1 0x44 DUP1 DUP4 ADD SWAP3 PUSH1 0x20 SWAP3 SWAP2 SWAP1 DUP3 SWAP1 SUB ADD DUP2 PUSH1 0x0 DUP8 DUP1 EXTCODESIZE ISZERO DUP1 ISZERO PUSH3 0x1EC JUMPI PUSH1 0x0 DUP1 REVERT JUMPDEST POP GAS CALL ISZERO DUP1 ISZERO PUSH3 0x201 JUMPI RETURNDATASIZE PUSH1 0x0 DUP1 RETURNDATACOPY RETURNDATASIZE PUSH1 0x0 REVERT JUMPDEST POP POP POP POP PUSH1 0x40 MLOAD RETURNDATASIZE PUSH1 0x20 DUP2 LT ISZERO PUSH3 0x218 JUMPI PUSH1 0x0 DUP1 REVERT JUMPDEST POP MLOAD PUSH1 0x1D DUP1 SLOAD PUSH1 0x1 PUSH1 0x1 PUSH1 0xA0 SHL SUB NOT AND PUSH1 0x1 PUSH1 0x1 PUSH1 0xA0 SHL SUB SWAP3 DUP4 AND OR SWAP1 SSTORE ADDRESS PUSH1 0x0 SWAP1 DUP2 MSTORE PUSH1 0x8 PUSH1 0x20 SWAP1 DUP2 MSTORE PUSH1 0x40 DUP1 DUP4 KECCAK256 PUSH1 0x1C DUP1 SLOAD DUP7 AND DUP6 MSTORE SWAP3 MSTORE SWAP2 DUP3 SWAP1 KECCAK256 PUSH1 0x0 NOT SWAP1 SSTORE SLOAD SWAP1 MLOAD SWAP2 AND SWAP1 PUSH20 0xBB4CDB9CBD36B01BD1CBAEBF2DE08D9173BC095C SWAP1 PUSH3 0x282 SWAP1 PUSH3 0x3CD JUMP JUMPDEST PUSH1 0x1 PUSH1 0x1 PUSH1 0xA0 SHL SUB SWAP3 DUP4 AND DUP2 MSTORE SWAP2 AND PUSH1 0x20 DUP3 ADD MSTORE PUSH1 0x40 DUP1 MLOAD SWAP2 DUP3 SWAP1 SUB ADD SWAP1 PUSH1 0x0 CREATE DUP1 ISZERO DUP1 ISZERO PUSH3 0x2B6 JUMPI RETURNDATASIZE PUSH1 0x0 DUP1 RETURNDATACOPY RETURNDATASIZE PUSH1 0x0 REVERT JUMPDEST POP PUSH1 0x1E DUP1 SLOAD PUSH1 0x1 PUSH1 0x1 PUSH1 0xA0 SHL SUB SWAP3 DUP4 AND PUSH1 0x1 PUSH1 0x1 PUSH1 0xA0 SHL SUB NOT SWAP2 DUP3 AND OR SWAP1 SWAP2 SSTORE CALLER PUSH1 0x0 DUP2 DUP2 MSTORE PUSH1 0x9 PUSH1 0x20 SWAP1 DUP2 MSTORE PUSH1 0x40 DUP1 DUP4 KECCAK256 DUP1 SLOAD PUSH1 0xFF NOT SWAP1 DUP2 AND PUSH1 0x1 SWAP1 DUP2 OR SWAP1 SWAP3 SSTORE PUSH1 0xA DUP5 MSTORE DUP3 DUP6 KECCAK256 DUP1 SLOAD DUP3 AND DUP4 OR SWAP1 SSTORE PUSH1 0xB DUP5 MSTORE DUP3 DUP6 KECCAK256 DUP1 SLOAD DUP3 AND DUP4 OR SWAP1 SSTORE PUSH1 0x3 DUP1 SLOAD DUP10 AND DUP7 MSTORE DUP4 DUP7 KECCAK256 DUP1 SLOAD DUP4 AND DUP5 OR SWAP1 SSTORE ADDRESS DUP1 DUP8 MSTORE DUP5 DUP8 KECCAK256 DUP1 SLOAD DUP5 AND DUP6 OR SWAP1 SSTORE PUSH1 0x1D SLOAD DUP11 AND DUP8 MSTORE PUSH1 0xC DUP7 MSTORE DUP5 DUP8 KECCAK256 DUP1 SLOAD DUP5 AND DUP6 OR SWAP1 SSTORE DUP7 MSTORE DUP4 DUP7 KECCAK256 DUP1 SLOAD DUP4 AND DUP5 OR SWAP1 SSTORE SLOAD SWAP1 SWAP8 AND DUP5 MSTORE DUP2 DUP5 KECCAK256 DUP1 SLOAD SWAP1 SWAP8 AND OR SWAP1 SWAP6 SSTORE PUSH1 0x18 DUP1 SLOAD DUP6 AND DUP5 OR SWAP1 SSTORE PUSH1 0x19 DUP1 SLOAD SWAP1 SWAP5 AND DUP4 OR SWAP1 SWAP4 SSTORE PUSH1 0x5 SLOAD DUP3 DUP3 MSTORE PUSH1 0x7 DUP5 MSTORE DUP5 DUP3 KECCAK256 DUP2 SWAP1 SSTORE DUP5 MLOAD SWAP1 DUP2 MSTORE SWAP4 MLOAD SWAP2 SWAP4 SWAP1 SWAP3 PUSH32 0xDDF252AD1BE2C89B69C2B068FC378DAA952BA7F163C4A11628F55A4DF523B3EF SWAP3 SWAP2 DUP3 SWAP1 SUB ADD SWAP1 LOG3 PUSH3 0x3DB JUMP JUMPDEST PUSH2 0x10DC DUP1 PUSH3 0x413D DUP4 CODECOPY ADD SWAP1 JUMP JUMPDEST PUSH2 0x3D52 DUP1 PUSH3 0x3EB PUSH1 0x0 CODECOPY PUSH1 0x0 RETURN INVALID PUSH1 0x80 PUSH1 0x40 MSTORE PUSH1 0x4 CALLDATASIZE LT PUSH3 0x331 JUMPI PUSH1 0x0 CALLDATALOAD PUSH1 0xE0 SHR DUP1 PUSH4 0x7D1DB4A5 GT PUSH3 0x1B7 JUMPI DUP1 PUSH4 0xD543DBEB GT PUSH3 0xF1 JUMPI DUP1 PUSH4 0xF0B37C04 GT PUSH3 0xA3 JUMPI DUP1 PUSH4 0xF84BA65D GT PUSH3 0x79 JUMPI DUP1 PUSH4 0xF84BA65D EQ PUSH3 0xC6F JUMPI DUP1 PUSH4 0xF887EA40 EQ PUSH3 0xCAE JUMPI DUP1 PUSH4 0xFE9FBB80 EQ PUSH3 0xCC6 JUMPI DUP1 PUSH4 0xFFB54A99 EQ PUSH3 0xCFD JUMPI PUSH3 0x339 JUMP JUMPDEST DUP1 PUSH4 0xF0B37C04 EQ PUSH3 0xBC2 JUMPI DUP1 PUSH4 0xF2FDE38B EQ PUSH3 0xBF9 JUMPI DUP1 PUSH4 0xF708A64F EQ PUSH3 0xC30 JUMPI PUSH3 0x339 JUMP JUMPDEST DUP1 PUSH4 0xD543DBEB EQ PUSH3 0xAD7 JUMPI DUP1 PUSH4 0xD695BB27 EQ PUSH3 0xB05 JUMPI DUP1 PUSH4 0xDD62ED3E EQ PUSH3 0xB1D JUMPI DUP1 PUSH4 0xDF20FD49 EQ PUSH3 0xB5C JUMPI DUP1 PUSH4 0xE99090C1 EQ PUSH3 0xB92 JUMPI DUP1 PUSH4 0xEA19E4A8 EQ PUSH3 0xBAA JUMPI PUSH3 0x339 JUMP JUMPDEST DUP1 PUSH4 0xA4B45C00 GT PUSH3 0x169 JUMPI DUP1 PUSH4 0xB1B7FE1B GT PUSH3 0x13F JUMPI DUP1 PUSH4 0xB1B7FE1B EQ PUSH3 0x981 JUMPI DUP1 PUSH4 0xB6A5D7DE EQ PUSH3 0xA5A JUMPI DUP1 PUSH4 0xBFE10928 EQ PUSH3 0xA91 JUMPI DUP1 PUSH4 0xD51ED1C8 EQ PUSH3 0xAA9 JUMPI PUSH3 0x339 JUMP JUMPDEST DUP1 PUSH4 0xA4B45C00 EQ PUSH3 0x8ED JUMPI DUP1 PUSH4 0xA8AA1B31 EQ PUSH3 0x92C JUMPI DUP1 PUSH4 0xA9059CBB EQ PUSH3 0x944 JUMPI PUSH3 0x339 JUMP JUMPDEST DUP1 PUSH4 0x7D1DB4A5 EQ PUSH3 0x80C JUMPI DUP1 PUSH4 0x7EFF3E3C EQ PUSH3 0x824 JUMPI DUP1 PUSH4 0x7FBCEDFF EQ PUSH3 0x85B JUMPI DUP1 PUSH4 0x893D20E8 EQ PUSH3 0x873 JUMPI DUP1 PUSH4 0x95D89B41 EQ PUSH3 0x8A7 JUMPI DUP1 PUSH4 0x9D1944F5 EQ PUSH3 0x8BF JUMPI PUSH3 0x339 JUMP JUMPDEST DUP1 PUSH4 0x23B872DD GT PUSH3 0x289 JUMPI DUP1 PUSH4 0x5C85974F GT PUSH3 0x23B JUMPI DUP1 PUSH4 0x6C5B2855 GT PUSH3 0x211 JUMPI DUP1 PUSH4 0x6C5B2855 EQ PUSH3 0x765 JUMPI DUP1 PUSH4 0x6D796E88 EQ PUSH3 0x7A5 JUMPI DUP1 PUSH4 0x6DDD1713 EQ PUSH3 0x7BD JUMPI DUP1 PUSH4 0x70A08231 EQ PUSH3 0x7D5 JUMPI PUSH3 0x339 JUMP JUMPDEST DUP1 PUSH4 0x5C85974F EQ PUSH3 0x6E0 JUMPI DUP1 PUSH4 0x5FE4BEA8 EQ PUSH3 0x70E JUMPI DUP1 PUSH4 0x658D4B7F EQ PUSH3 0x726 JUMPI PUSH3 0x339 JUMP JUMPDEST DUP1 PUSH4 0x23B872DD EQ PUSH3 0x5B1 JUMPI DUP1 PUSH4 0x2B112E49 EQ PUSH3 0x5F8 JUMPI DUP1 PUSH4 0x2D48E896 EQ PUSH3 0x610 JUMPI DUP1 PUSH4 0x2F54BF6E EQ PUSH3 0x644 JUMPI DUP1 PUSH4 0x313CE567 EQ PUSH3 0x67B JUMPI DUP1 PUSH4 0x571AC8B0 EQ PUSH3 0x6A9 JUMPI PUSH3 0x339 JUMP JUMPDEST DUP1 PUSH4 0x12798972 GT PUSH3 0x2E3 JUMPI DUP1 PUSH4 0x12798972 EQ PUSH3 0x4C7 JUMPI DUP1 PUSH4 0x178D9B8E EQ PUSH3 0x4DF JUMPI DUP1 PUSH4 0x18160DDD EQ PUSH3 0x51F JUMPI DUP1 PUSH4 0x1B1D8978 EQ PUSH3 0x537 JUMPI DUP1 PUSH4 0x1DA1DB5E EQ PUSH3 0x54F JUMPI DUP1 PUSH4 0x201E7991 EQ PUSH3 0x57D JUMPI PUSH3 0x339 JUMP JUMPDEST DUP1 PUSH4 0x445B667 EQ PUSH3 0x33E JUMPI DUP1 PUSH4 0x6FDDE03 EQ PUSH3 0x368 JUMPI DUP1 PUSH4 0x95EA7B3 EQ PUSH3 0x3F8 JUMPI DUP1 PUSH4 0xD295980 EQ PUSH3 0x449 JUMPI DUP1 PUSH4 0x1161AE39 EQ PUSH3 0x47B JUMPI DUP1 PUSH4 0x1252BD6A EQ PUSH3 0x4AF JUMPI PUSH3 0x339 JUMP JUMPDEST CALLDATASIZE PUSH3 0x339 JUMPI STOP JUMPDEST PUSH1 0x0 DUP1 REVERT JUMPDEST CALLVALUE DUP1 ISZERO PUSH3 0x34B JUMPI PUSH1 0x0 DUP1 REVERT JUMPDEST POP PUSH3 0x356 PUSH3 0xD15 JUMP JUMPDEST PUSH1 0x40 DUP1 MLOAD SWAP2 DUP3 MSTORE MLOAD SWAP1 DUP2 SWAP1 SUB PUSH1 0x20 ADD SWAP1 RETURN JUMPDEST CALLVALUE DUP1 ISZERO PUSH3 0x375 JUMPI PUSH1 0x0 DUP1 REVERT JUMPDEST POP PUSH3 0x380 PUSH3 0xD1B JUMP JUMPDEST PUSH1 0x40 DUP1 MLOAD PUSH1 0x20 DUP1 DUP3 MSTORE DUP4 MLOAD DUP2 DUP4 ADD MSTORE DUP4 MLOAD SWAP2 SWAP3 DUP4 SWAP3 SWAP1 DUP4 ADD SWAP2 DUP6 ADD SWAP1 DUP1 DUP4 DUP4 PUSH1 0x0 JUMPDEST DUP4 DUP2 LT ISZERO PUSH3 0x3BC JUMPI DUP2 DUP2 ADD MLOAD DUP4 DUP3 ADD MSTORE PUSH1 0x20 ADD PUSH3 0x3A2 JUMP JUMPDEST POP POP POP POP SWAP1 POP SWAP1 DUP2 ADD SWAP1 PUSH1 0x1F AND DUP1 ISZERO PUSH3 0x3EA JUMPI DUP1 DUP3 SUB DUP1 MLOAD PUSH1 0x1 DUP4 PUSH1 0x20 SUB PUSH2 0x100 EXP SUB NOT AND DUP2 MSTORE PUSH1 0x20 ADD SWAP2 POP JUMPDEST POP SWAP3 POP POP POP PUSH1 0x40 MLOAD DUP1 SWAP2 SUB SWAP1 RETURN JUMPDEST CALLVALUE DUP1 ISZERO PUSH3 0x405 JUMPI PUSH1 0x0 DUP1 REVERT JUMPDEST POP PUSH3 0x435 PUSH1 0x4 DUP1 CALLDATASIZE SUB PUSH1 0x40 DUP2 LT ISZERO PUSH3 0x41E JUMPI PUSH1 0x0 DUP1 REVERT JUMPDEST POP PUSH1 0x1 PUSH1 0x1 PUSH1 0xA0 SHL SUB DUP2 CALLDATALOAD AND SWAP1 PUSH1 0x20 ADD CALLDATALOAD PUSH3 0xD3F JUMP JUMPDEST PUSH1 0x40 DUP1 MLOAD SWAP2 ISZERO ISZERO DUP3 MSTORE MLOAD SWAP1 DUP2 SWAP1 SUB PUSH1 0x20 ADD SWAP1 RETURN JUMPDEST CALLVALUE DUP1 ISZERO PUSH3 0x456 JUMPI PUSH1 0x0 DUP1 REVERT JUMPDEST POP PUSH3 0x479 PUSH1 0x4 DUP1 CALLDATASIZE SUB PUSH1 0x20 DUP2 LT ISZERO PUSH3 0x46F JUMPI PUSH1 0x0 DUP1 REVERT JUMPDEST POP CALLDATALOAD ISZERO ISZERO PUSH3 0xDA6 JUMP JUMPDEST STOP JUMPDEST CALLVALUE DUP1 ISZERO PUSH3 0x488 JUMPI PUSH1 0x0 DUP1 REVERT JUMPDEST POP PUSH3 0x435 PUSH1 0x4 DUP1 CALLDATASIZE SUB PUSH1 0x40 DUP2 LT ISZERO PUSH3 0x4A1 JUMPI PUSH1 0x0 DUP1 REVERT JUMPDEST POP DUP1 CALLDATALOAD SWAP1 PUSH1 0x20 ADD CALLDATALOAD PUSH3 0xE0A JUMP JUMPDEST CALLVALUE DUP1 ISZERO PUSH3 0x4BC JUMPI PUSH1 0x0 DUP1 REVERT JUMPDEST POP PUSH3 0x356 PUSH3 0xE20 JUMP JUMPDEST CALLVALUE DUP1 ISZERO PUSH3 0x4D4 JUMPI PUSH1 0x0 DUP1 REVERT JUMPDEST POP PUSH3 0x479 PUSH3 0xE26 JUMP JUMPDEST CALLVALUE DUP1 ISZERO PUSH3 0x4EC JUMPI PUSH1 0x0 DUP1 REVERT JUMPDEST POP PUSH3 0x479 PUSH1 0x4 DUP1 CALLDATASIZE SUB PUSH1 0x80 DUP2 LT ISZERO PUSH3 0x505 JUMPI PUSH1 0x0 DUP1 REVERT JUMPDEST POP DUP1 CALLDATALOAD SWAP1 PUSH1 0x20 DUP2 ADD CALLDATALOAD SWAP1 PUSH1 0x40 DUP2 ADD CALLDATALOAD SWAP1 PUSH1 0x60 ADD CALLDATALOAD PUSH3 0xEF9 JUMP JUMPDEST CALLVALUE DUP1 ISZERO PUSH3 0x52C JUMPI PUSH1 0x0 DUP1 REVERT JUMPDEST POP PUSH3 0x356 PUSH3 0xF58 JUMP JUMPDEST CALLVALUE DUP1 ISZERO PUSH3 0x544 JUMPI PUSH1 0x0 DUP1 REVERT JUMPDEST POP PUSH3 0x356 PUSH3 0xF5E JUMP JUMPDEST CALLVALUE DUP1 ISZERO PUSH3 0x55C JUMPI PUSH1 0x0 DUP1 REVERT JUMPDEST POP PUSH3 0x479 PUSH1 0x4 DUP1 CALLDATASIZE SUB PUSH1 0x20 DUP2 LT ISZERO PUSH3 0x575 JUMPI PUSH1 0x0 DUP1 REVERT JUMPDEST POP CALLDATALOAD PUSH3 0xF64 JUMP JUMPDEST CALLVALUE DUP1 ISZERO PUSH3 0x58A JUMPI PUSH1 0x0 DUP1 REVERT JUMPDEST POP PUSH3 0x479 PUSH1 0x4 DUP1 CALLDATASIZE SUB PUSH1 0x40 DUP2 LT ISZERO PUSH3 0x5A3 JUMPI PUSH1 0x0 DUP1 REVERT JUMPDEST POP DUP1 CALLDATALOAD SWAP1 PUSH1 0x20 ADD CALLDATALOAD PUSH3 0xFE8 JUMP JUMPDEST CALLVALUE DUP1 ISZERO PUSH3 0x5BE JUMPI PUSH1 0x0 DUP1 REVERT JUMPDEST POP PUSH3 0x435 PUSH1 0x4 DUP1 CALLDATASIZE SUB PUSH1 0x60 DUP2 LT ISZERO PUSH3 0x5D7 JUMPI PUSH1 0x0 DUP1 REVERT JUMPDEST POP PUSH1 0x1 PUSH1 0x1 PUSH1 0xA0 SHL SUB DUP2 CALLDATALOAD DUP2 AND SWAP2 PUSH1 0x20 DUP2 ADD CALLDATALOAD SWAP1 SWAP2 AND SWAP1 PUSH1 0x40 ADD CALLDATALOAD PUSH3 0x103E JUMP JUMPDEST CALLVALUE DUP1 ISZERO PUSH3 0x605 JUMPI PUSH1 0x0 DUP1 REVERT JUMPDEST POP PUSH3 0x356 PUSH3 0x1105 JUMP JUMPDEST CALLVALUE DUP1 ISZERO PUSH3 0x61D JUMPI PUSH1 0x0 DUP1 REVERT JUMPDEST POP PUSH3 0x479 PUSH1 0x4 DUP1 CALLDATASIZE SUB PUSH1 0x40 DUP2 LT ISZERO PUSH3 0x636 JUMPI PUSH1 0x0 DUP1 REVERT JUMPDEST POP DUP1 CALLDATALOAD SWAP1 PUSH1 0x20 ADD CALLDATALOAD PUSH3 0x1156 JUMP JUMPDEST CALLVALUE DUP1 ISZERO PUSH3 0x651 JUMPI PUSH1 0x0 DUP1 REVERT JUMPDEST POP PUSH3 0x435 PUSH1 0x4 DUP1 CALLDATASIZE SUB PUSH1 0x20 DUP2 LT ISZERO PUSH3 0x66A JUMPI PUSH1 0x0 DUP1 REVERT JUMPDEST POP CALLDATALOAD PUSH1 0x1 PUSH1 0x1 PUSH1 0xA0 SHL SUB AND PUSH3 0x1213 JUMP JUMPDEST CALLVALUE DUP1 ISZERO PUSH3 0x688 JUMPI PUSH1 0x0 DUP1 REVERT JUMPDEST POP PUSH3 0x693 PUSH3 0x1227 JUMP JUMPDEST PUSH1 0x40 DUP1 MLOAD PUSH1 0xFF SWAP1 SWAP3 AND DUP3 MSTORE MLOAD SWAP1 DUP2 SWAP1 SUB PUSH1 0x20 ADD SWAP1 RETURN JUMPDEST CALLVALUE DUP1 ISZERO PUSH3 0x6B6 JUMPI PUSH1 0x0 DUP1 REVERT JUMPDEST POP PUSH3 0x435 PUSH1 0x4 DUP1 CALLDATASIZE SUB PUSH1 0x20 DUP2 LT ISZERO PUSH3 0x6CF JUMPI PUSH1 0x0 DUP1 REVERT JUMPDEST POP CALLDATALOAD PUSH1 0x1 PUSH1 0x1 PUSH1 0xA0 SHL SUB AND PUSH3 0x122C JUMP JUMPDEST CALLVALUE DUP1 ISZERO PUSH3 0x6ED JUMPI PUSH1 0x0 DUP1 REVERT JUMPDEST POP PUSH3 0x479 PUSH1 0x4 DUP1 CALLDATASIZE SUB PUSH1 0x20 DUP2 LT ISZERO PUSH3 0x706 JUMPI PUSH1 0x0 DUP1 REVERT JUMPDEST POP CALLDATALOAD PUSH3 0x123C JUMP JUMPDEST CALLVALUE DUP1 ISZERO PUSH3 0x71B JUMPI PUSH1 0x0 DUP1 REVERT JUMPDEST POP PUSH3 0x479 PUSH3 0x128C JUMP JUMPDEST CALLVALUE DUP1 ISZERO PUSH3 0x733 JUMPI PUSH1 0x0 DUP1 REVERT JUMPDEST POP PUSH3 0x479 PUSH1 0x4 DUP1 CALLDATASIZE SUB PUSH1 0x40 DUP2 LT ISZERO PUSH3 0x74C JUMPI PUSH1 0x0 DUP1 REVERT JUMPDEST POP PUSH1 0x1 PUSH1 0x1 PUSH1 0xA0 SHL SUB DUP2 CALLDATALOAD AND SWAP1 PUSH1 0x20 ADD CALLDATALOAD ISZERO ISZERO PUSH3 0x133F JUMP JUMPDEST CALLVALUE DUP1 ISZERO PUSH3 0x772 JUMPI PUSH1 0x0 DUP1 REVERT JUMPDEST POP PUSH3 0x479 PUSH1 0x4 DUP1 CALLDATASIZE SUB PUSH1 0x80 DUP2 LT ISZERO PUSH3 0x78B JUMPI PUSH1 0x0 DUP1 REVERT JUMPDEST POP DUP1 CALLDATALOAD SWAP1 PUSH1 0x20 DUP2 ADD CALLDATALOAD SWAP1 PUSH1 0x40 DUP2 ADD CALLDATALOAD SWAP1 PUSH1 0x60 ADD CALLDATALOAD PUSH3 0x13B5 JUMP JUMPDEST CALLVALUE DUP1 ISZERO PUSH3 0x7B2 JUMPI PUSH1 0x0 DUP1 REVERT JUMPDEST POP PUSH3 0x356 PUSH3 0x1414 JUMP JUMPDEST CALLVALUE DUP1 ISZERO PUSH3 0x7CA JUMPI PUSH1 0x0 DUP1 REVERT JUMPDEST POP PUSH3 0x435 PUSH3 0x141A JUMP JUMPDEST CALLVALUE DUP1 ISZERO PUSH3 0x7E2 JUMPI PUSH1 0x0 DUP1 REVERT JUMPDEST POP PUSH3 0x356 PUSH1 0x4 DUP1 CALLDATASIZE SUB PUSH1 0x20 DUP2 LT ISZERO PUSH3 0x7FB JUMPI PUSH1 0x0 DUP1 REVERT JUMPDEST POP CALLDATALOAD PUSH1 0x1 PUSH1 0x1 PUSH1 0xA0 SHL SUB AND PUSH3 0x1423 JUMP JUMPDEST CALLVALUE DUP1 ISZERO PUSH3 0x819 JUMPI PUSH1 0x0 DUP1 REVERT JUMPDEST POP PUSH3 0x356 PUSH3 0x143E JUMP JUMPDEST CALLVALUE DUP1 ISZERO PUSH3 0x831 JUMPI PUSH1 0x0 DUP1 REVERT JUMPDEST POP PUSH3 0x479 PUSH1 0x4 DUP1 CALLDATASIZE SUB PUSH1 0x20 DUP2 LT ISZERO PUSH3 0x84A JUMPI PUSH1 0x0 DUP1 REVERT JUMPDEST POP CALLDATALOAD PUSH1 0x1 PUSH1 0x1 PUSH1 0xA0 SHL SUB AND PUSH3 0x1444 JUMP JUMPDEST CALLVALUE DUP1 ISZERO PUSH3 0x868 JUMPI PUSH1 0x0 DUP1 REVERT JUMPDEST POP PUSH3 0x356 PUSH3 0x1501 JUMP JUMPDEST CALLVALUE DUP1 ISZERO PUSH3 0x880 JUMPI PUSH1 0x0 DUP1 REVERT JUMPDEST POP PUSH3 0x88B PUSH3 0x1507 JUMP JUMPDEST PUSH1 0x40 DUP1 MLOAD PUSH1 0x1 PUSH1 0x1 PUSH1 0xA0 SHL SUB SWAP1 SWAP3 AND DUP3 MSTORE MLOAD SWAP1 DUP2 SWAP1 SUB PUSH1 0x20 ADD SWAP1 RETURN JUMPDEST CALLVALUE DUP1 ISZERO PUSH3 0x8B4 JUMPI PUSH1 0x0 DUP1 REVERT JUMPDEST POP PUSH3 0x380 PUSH3 0x1516 JUMP JUMPDEST CALLVALUE DUP1 ISZERO PUSH3 0x8CC JUMPI PUSH1 0x0 DUP1 REVERT JUMPDEST POP PUSH3 0x479 PUSH1 0x4 DUP1 CALLDATASIZE SUB PUSH1 0x20 DUP2 LT ISZERO PUSH3 0x8E5 JUMPI PUSH1 0x0 DUP1 REVERT JUMPDEST POP CALLDATALOAD PUSH3 0x1535 JUMP JUMPDEST CALLVALUE DUP1 ISZERO PUSH3 0x8FA JUMPI PUSH1 0x0 DUP1 REVERT JUMPDEST POP PUSH3 0x479 PUSH1 0x4 DUP1 CALLDATASIZE SUB PUSH1 0x40 DUP2 LT ISZERO PUSH3 0x913 JUMPI PUSH1 0x0 DUP1 REVERT JUMPDEST POP PUSH1 0x1 PUSH1 0x1 PUSH1 0xA0 SHL SUB DUP2 CALLDATALOAD DUP2 AND SWAP2 PUSH1 0x20 ADD CALLDATALOAD AND PUSH3 0x1595 JUMP JUMPDEST CALLVALUE DUP1 ISZERO PUSH3 0x939 JUMPI PUSH1 0x0 DUP1 REVERT JUMPDEST POP PUSH3 0x88B PUSH3 0x160E JUMP JUMPDEST CALLVALUE DUP1 ISZERO PUSH3 0x951 JUMPI PUSH1 0x0 DUP1 REVERT JUMPDEST POP PUSH3 0x435 PUSH1 0x4 DUP1 CALLDATASIZE SUB PUSH1 0x40 DUP2 LT ISZERO PUSH3 0x96A JUMPI PUSH1 0x0 DUP1 REVERT JUMPDEST POP PUSH1 0x1 PUSH1 0x1 PUSH1 0xA0 SHL SUB DUP2 CALLDATALOAD AND SWAP1 PUSH1 0x20 ADD CALLDATALOAD PUSH3 0x161D JUMP JUMPDEST CALLVALUE DUP1 ISZERO PUSH3 0x98E JUMPI PUSH1 0x0 DUP1 REVERT JUMPDEST POP PUSH3 0x479 PUSH1 0x4 DUP1 CALLDATASIZE SUB PUSH1 0x40 DUP2 LT ISZERO PUSH3 0x9A7 JUMPI PUSH1 0x0 DUP1 REVERT JUMPDEST DUP2 ADD SWAP1 PUSH1 0x20 DUP2 ADD DUP2 CALLDATALOAD PUSH5 0x100000000 DUP2 GT ISZERO PUSH3 0x9C3 JUMPI PUSH1 0x0 DUP1 REVERT JUMPDEST DUP3 ADD DUP4 PUSH1 0x20 DUP3 ADD GT ISZERO PUSH3 0x9D6 JUMPI PUSH1 0x0 DUP1 REVERT JUMPDEST DUP1 CALLDATALOAD SWAP1 PUSH1 0x20 ADD SWAP2 DUP5 PUSH1 0x20 DUP4 MUL DUP5 ADD GT PUSH5 0x100000000 DUP4 GT OR ISZERO PUSH3 0x9F9 JUMPI PUSH1 0x0 DUP1 REVERT JUMPDEST SWAP2 SWAP4 SWAP1 SWAP3 SWAP1 SWAP2 PUSH1 0x20 DUP2 ADD SWAP1 CALLDATALOAD PUSH5 0x100000000 DUP2 GT ISZERO PUSH3 0xA18 JUMPI PUSH1 0x0 DUP1 REVERT JUMPDEST DUP3 ADD DUP4 PUSH1 0x20 DUP3 ADD GT ISZERO PUSH3 0xA2B JUMPI PUSH1 0x0 DUP1 REVERT JUMPDEST DUP1 CALLDATALOAD SWAP1 PUSH1 0x20 ADD SWAP2 DUP5 PUSH1 0x20 DUP4 MUL DUP5 ADD GT PUSH5 0x100000000 DUP4 GT OR ISZERO PUSH3 0xA4E JUMPI PUSH1 0x0 DUP1 REVERT JUMPDEST POP SWAP1 SWAP3 POP SWAP1 POP PUSH3 0x162C JUMP JUMPDEST CALLVALUE DUP1 ISZERO PUSH3 0xA67 JUMPI PUSH1 0x0 DUP1 REVERT JUMPDEST POP PUSH3 0x479 PUSH1 0x4 DUP1 CALLDATASIZE SUB PUSH1 0x20 DUP2 LT ISZERO PUSH3 0xA80 JUMPI PUSH1 0x0 DUP1 REVERT JUMPDEST POP CALLDATALOAD PUSH1 0x1 PUSH1 0x1 PUSH1 0xA0 SHL SUB AND PUSH3 0x192C JUMP JUMPDEST CALLVALUE DUP1 ISZERO PUSH3 0xA9E JUMPI PUSH1 0x0 DUP1 REVERT JUMPDEST POP PUSH3 0x88B PUSH3 0x1999 JUMP JUMPDEST CALLVALUE DUP1 ISZERO PUSH3 0xAB6 JUMPI PUSH1 0x0 DUP1 REVERT JUMPDEST POP PUSH3 0x356 PUSH1 0x4 DUP1 CALLDATASIZE SUB PUSH1 0x20 DUP2 LT ISZERO PUSH3 0xACF JUMPI PUSH1 0x0 DUP1 REVERT JUMPDEST POP CALLDATALOAD PUSH3 0x19A8 JUMP JUMPDEST CALLVALUE DUP1 ISZERO PUSH3 0xAE4 JUMPI PUSH1 0x0 DUP1 REVERT JUMPDEST POP PUSH3 0x479 PUSH1 0x4 DUP1 CALLDATASIZE SUB PUSH1 0x20 DUP2 LT ISZERO PUSH3 0xAFD JUMPI PUSH1 0x0 DUP1 REVERT JUMPDEST POP CALLDATALOAD PUSH3 0x19F2 JUMP JUMPDEST CALLVALUE DUP1 ISZERO PUSH3 0xB12 JUMPI PUSH1 0x0 DUP1 REVERT JUMPDEST POP PUSH3 0x479 PUSH3 0x1A53 JUMP JUMPDEST CALLVALUE DUP1 ISZERO PUSH3 0xB2A JUMPI PUSH1 0x0 DUP1 REVERT JUMPDEST POP PUSH3 0x356 PUSH1 0x4 DUP1 CALLDATASIZE SUB PUSH1 0x40 DUP2 LT ISZERO PUSH3 0xB43 JUMPI PUSH1 0x0 DUP1 REVERT JUMPDEST POP PUSH1 0x1 PUSH1 0x1 PUSH1 0xA0 SHL SUB DUP2 CALLDATALOAD DUP2 AND SWAP2 PUSH1 0x20 ADD CALLDATALOAD AND PUSH3 0x1AA7 JUMP JUMPDEST CALLVALUE DUP1 ISZERO PUSH3 0xB69 JUMPI PUSH1 0x0 DUP1 REVERT JUMPDEST POP PUSH3 0x479 PUSH1 0x4 DUP1 CALLDATASIZE SUB PUSH1 0x40 DUP2 LT ISZERO PUSH3 0xB82 JUMPI PUSH1 0x0 DUP1 REVERT JUMPDEST POP DUP1 CALLDATALOAD ISZERO ISZERO SWAP1 PUSH1 0x20 ADD CALLDATALOAD PUSH3 0x1AD2 JUMP JUMPDEST CALLVALUE DUP1 ISZERO PUSH3 0xB9F JUMPI PUSH1 0x0 DUP1 REVERT JUMPDEST POP PUSH3 0x356 PUSH3 0x1B34 JUMP JUMPDEST CALLVALUE DUP1 ISZERO PUSH3 0xBB7 JUMPI PUSH1 0x0 DUP1 REVERT JUMPDEST POP PUSH3 0x356 PUSH3 0x1B3A JUMP JUMPDEST CALLVALUE DUP1 ISZERO PUSH3 0xBCF JUMPI PUSH1 0x0 DUP1 REVERT JUMPDEST POP PUSH3 0x479 PUSH1 0x4 DUP1 CALLDATASIZE SUB PUSH1 0x20 DUP2 LT ISZERO PUSH3 0xBE8 JUMPI PUSH1 0x0 DUP1 REVERT JUMPDEST POP CALLDATALOAD PUSH1 0x1 PUSH1 0x1 PUSH1 0xA0 SHL SUB AND PUSH3 0x1B40 JUMP JUMPDEST CALLVALUE DUP1 ISZERO PUSH3 0xC06 JUMPI PUSH1 0x0 DUP1 REVERT JUMPDEST POP PUSH3 0x479 PUSH1 0x4 DUP1 CALLDATASIZE SUB PUSH1 0x20 DUP2 LT ISZERO PUSH3 0xC1F JUMPI PUSH1 0x0 DUP1 REVERT JUMPDEST POP CALLDATALOAD PUSH1 0x1 PUSH1 0x1 PUSH1 0xA0 SHL SUB AND PUSH3 0x1BA7 JUMP JUMPDEST CALLVALUE DUP1 ISZERO PUSH3 0xC3D JUMPI PUSH1 0x0 DUP1 REVERT JUMPDEST POP PUSH3 0x479 PUSH1 0x4 DUP1 CALLDATASIZE SUB PUSH1 0x40 DUP2 LT ISZERO PUSH3 0xC56 JUMPI PUSH1 0x0 DUP1 REVERT JUMPDEST POP PUSH1 0x1 PUSH1 0x1 PUSH1 0xA0 SHL SUB DUP2 CALLDATALOAD AND SWAP1 PUSH1 0x20 ADD CALLDATALOAD ISZERO ISZERO PUSH3 0x1C5B JUMP JUMPDEST CALLVALUE DUP1 ISZERO PUSH3 0xC7C JUMPI PUSH1 0x0 DUP1 REVERT JUMPDEST POP PUSH3 0x479 PUSH1 0x4 DUP1 CALLDATASIZE SUB PUSH1 0x40 DUP2 LT ISZERO PUSH3 0xC95 JUMPI PUSH1 0x0 DUP1 REVERT JUMPDEST POP PUSH1 0x1 PUSH1 0x1 PUSH1 0xA0 SHL SUB DUP2 CALLDATALOAD AND SWAP1 PUSH1 0x20 ADD CALLDATALOAD ISZERO ISZERO PUSH3 0x1DDC JUMP JUMPDEST CALLVALUE DUP1 ISZERO PUSH3 0xCBB JUMPI PUSH1 0x0 DUP1 REVERT JUMPDEST POP PUSH3 0x88B PUSH3 0x1E52 JUMP JUMPDEST CALLVALUE DUP1 ISZERO PUSH3 0xCD3 JUMPI PUSH1 0x0 DUP1 REVERT JUMPDEST POP PUSH3 0x435 PUSH1 0x4 DUP1 CALLDATASIZE SUB PUSH1 0x20 DUP2 LT ISZERO PUSH3 0xCEC JUMPI PUSH1 0x0 DUP1 REVERT JUMPDEST POP CALLDATALOAD PUSH1 0x1 PUSH1 0x1 PUSH1 0xA0 SHL SUB AND PUSH3 0x1E61 JUMP JUMPDEST CALLVALUE DUP1 ISZERO PUSH3 0xD0A JUMPI PUSH1 0x0 DUP1 REVERT JUMPDEST POP PUSH3 0x435 PUSH3 0x1E7F JUMP JUMPDEST PUSH1 0x21 SLOAD DUP2 JUMP JUMPDEST PUSH1 0x40 DUP1 MLOAD DUP1 DUP3 ADD SWAP1 SWAP2 MSTORE PUSH1 0xA DUP2 MSTORE PUSH10 0x111A585B5BDB99141859 PUSH1 0xB2 SHL PUSH1 0x20 DUP3 ADD MSTORE SWAP1 JUMP JUMPDEST CALLER PUSH1 0x0 DUP2 DUP2 MSTORE PUSH1 0x8 PUSH1 0x20 SWAP1 DUP2 MSTORE PUSH1 0x40 DUP1 DUP4 KECCAK256 PUSH1 0x1 PUSH1 0x1 PUSH1 0xA0 SHL SUB DUP8 AND DUP1 DUP6 MSTORE SWAP1 DUP4 MSTORE DUP2 DUP5 KECCAK256 DUP7 SWAP1 SSTORE DUP2 MLOAD DUP7 DUP2 MSTORE SWAP2 MLOAD SWAP4 SWAP5 SWAP1 SWAP4 SWAP1 SWAP3 PUSH32 0x8C5BE1E5EBEC7D5BD14F71427D1E84F3DD0314C0F7B2291E5B200AC8C7C3B925 SWAP3 DUP3 SWAP1 SUB ADD SWAP1 LOG3 POP PUSH1 0x1 JUMPDEST SWAP3 SWAP2 POP POP JUMP JUMPDEST PUSH3 0xDB1 CALLER PUSH3 0x1213 JUMP JUMPDEST PUSH3 0xDEC JUMPI PUSH1 0x40 DUP1 MLOAD PUSH3 0x461BCD PUSH1 0xE5 SHL DUP2 MSTORE PUSH1 0x20 PUSH1 0x4 DUP3 ADD MSTORE PUSH1 0x6 PUSH1 0x24 DUP3 ADD MSTORE PUSH6 0x10A7ABA722A9 PUSH1 0xD1 SHL PUSH1 0x44 DUP3 ADD MSTORE SWAP1 MLOAD SWAP1 DUP2 SWAP1 SUB PUSH1 0x64 ADD SWAP1 REVERT JUMPDEST PUSH1 0x1D DUP1 SLOAD SWAP2 ISZERO ISZERO PUSH1 0x1 PUSH1 0xA0 SHL MUL PUSH1 0xFF PUSH1 0xA0 SHL NOT SWAP1 SWAP3 AND SWAP2 SWAP1 SWAP2 OR SWAP1 SSTORE JUMP JUMPDEST PUSH1 0x0 DUP3 PUSH3 0xE18 DUP4 PUSH3 0x19A8 JUMP JUMPDEST GT SWAP4 SWAP3 POP POP POP JUMP JUMPDEST PUSH1 0x10 SLOAD DUP2 JUMP JUMPDEST PUSH1 0x1E PUSH1 0x0 SWAP1 SLOAD SWAP1 PUSH2 0x100 EXP SWAP1 DIV PUSH1 0x1 PUSH1 0x1 PUSH1 0xA0 SHL SUB AND PUSH1 0x1 PUSH1 0x1 PUSH1 0xA0 SHL SUB AND PUSH4 0xF0FC6BCA PUSH1 0x40 MLOAD DUP2 PUSH4 0xFFFFFFFF AND PUSH1 0xE0 SHL DUP2 MSTORE PUSH1 0x4 ADD PUSH1 0x0 PUSH1 0x40 MLOAD DUP1 DUP4 SUB DUP2 PUSH1 0x0 DUP8 DUP1 EXTCODESIZE ISZERO DUP1 ISZERO PUSH3 0xE77 JUMPI PUSH1 0x0 DUP1 REVERT JUMPDEST POP GAS CALL ISZERO DUP1 ISZERO PUSH3 0xE8C JUMPI RETURNDATASIZE PUSH1 0x0 DUP1 RETURNDATACOPY RETURNDATASIZE PUSH1 0x0 REVERT JUMPDEST POP POP PUSH1 0x1E SLOAD PUSH1 0x1F SLOAD PUSH1 0x40 DUP1 MLOAD PUSH1 0x1 PUSH3 0x4D3B87 PUSH1 0xE0 SHL SUB NOT DUP2 MSTORE PUSH1 0x4 DUP2 ADD SWAP3 SWAP1 SWAP3 MSTORE MLOAD PUSH1 0x1 PUSH1 0x1 PUSH1 0xA0 SHL SUB SWAP1 SWAP3 AND SWAP4 POP PUSH4 0xFFB2C479 SWAP3 POP PUSH1 0x24 DUP1 DUP3 ADD SWAP3 PUSH1 0x0 SWAP3 SWAP1 SWAP2 SWAP1 DUP3 SWAP1 SUB ADD DUP2 DUP4 DUP8 DUP1 EXTCODESIZE ISZERO DUP1 ISZERO PUSH3 0xEE4 JUMPI PUSH1 0x0 DUP1 REVERT JUMPDEST POP GAS CALL SWAP3 POP POP POP DUP1 ISZERO PUSH3 0xEF6 JUMPI POP PUSH1 0x1 JUMPDEST POP JUMP JUMPDEST PUSH3 0xF04 CALLER PUSH3 0x1E61 JUMP JUMPDEST PUSH3 0xF44 JUMPI PUSH1 0x40 DUP1 MLOAD PUSH3 0x461BCD PUSH1 0xE5 SHL DUP2 MSTORE PUSH1 0x20 PUSH1 0x4 DUP3 ADD MSTORE PUSH1 0xB PUSH1 0x24 DUP3 ADD MSTORE PUSH11 0x85055551213D492569151 PUSH1 0xAA SHL PUSH1 0x44 DUP3 ADD MSTORE SWAP1 MLOAD SWAP1 DUP2 SWAP1 SUB PUSH1 0x64 ADD SWAP1 REVERT JUMPDEST PUSH1 0xF SWAP4 SWAP1 SWAP4 SSTORE PUSH1 0x10 SWAP2 SWAP1 SWAP2 SSTORE PUSH1 0x11 SSTORE PUSH1 0xE SSTORE JUMP JUMPDEST PUSH1 0x5 SLOAD SWAP1 JUMP JUMPDEST PUSH1 0x13 SLOAD DUP2 JUMP JUMPDEST PUSH3 0xF6F CALLER PUSH3 0x1E61 JUMP JUMPDEST PUSH3 0xFAF JUMPI PUSH1 0x40 DUP1 MLOAD PUSH3 0x461BCD PUSH1 0xE5 SHL DUP2 MSTORE PUSH1 0x20 PUSH1 0x4 DUP3 ADD MSTORE PUSH1 0xB PUSH1 0x24 DUP3 ADD MSTORE PUSH11 0x85055551213D492569151 PUSH1 0xAA SHL PUSH1 0x44 DUP3 ADD MSTORE SWAP1 MLOAD SWAP1 DUP2 SWAP1 SUB PUSH1 0x64 ADD SWAP1 REVERT JUMPDEST PUSH1 0x40 MLOAD SELFBALANCE SWAP1 CALLER SWAP1 PUSH1 0x64 DUP5 DUP5 MUL DIV DUP1 ISZERO PUSH2 0x8FC MUL SWAP2 PUSH1 0x0 DUP2 DUP2 DUP2 DUP6 DUP9 DUP9 CALL SWAP4 POP POP POP POP ISZERO DUP1 ISZERO PUSH3 0xFE3 JUMPI RETURNDATASIZE PUSH1 0x0 DUP1 RETURNDATACOPY RETURNDATASIZE PUSH1 0x0 REVERT JUMPDEST POP POP POP JUMP JUMPDEST PUSH3 0xFF3 CALLER PUSH3 0x1E61 JUMP JUMPDEST PUSH3 0x1033 JUMPI PUSH1 0x40 DUP1 MLOAD PUSH3 0x461BCD PUSH1 0xE5 SHL DUP2 MSTORE PUSH1 0x20 PUSH1 0x4 DUP3 ADD MSTORE PUSH1 0xB PUSH1 0x24 DUP3 ADD MSTORE PUSH11 0x85055551213D492569151 PUSH1 0xAA SHL PUSH1 0x44 DUP3 ADD MSTORE SWAP1 MLOAD SWAP1 DUP2 SWAP1 SUB PUSH1 0x64 ADD SWAP1 REVERT JUMPDEST PUSH1 0x1A SWAP2 SWAP1 SWAP2 SSTORE PUSH1 0x1B SSTORE JUMP JUMPDEST PUSH1 0x1 PUSH1 0x1 PUSH1 0xA0 SHL SUB DUP4 AND PUSH1 0x0 SWAP1 DUP2 MSTORE PUSH1 0x8 PUSH1 0x20 SWAP1 DUP2 MSTORE PUSH1 0x40 DUP1 DUP4 KECCAK256 CALLER DUP5 MSTORE SWAP1 SWAP2 MSTORE DUP2 KECCAK256 SLOAD PUSH1 0x0 NOT EQ PUSH3 0x10EE JUMPI PUSH1 0x40 DUP1 MLOAD DUP1 DUP3 ADD DUP3 MSTORE PUSH1 0x16 DUP2 MSTORE PUSH22 0x496E73756666696369656E7420416C6C6F77616E6365 PUSH1 0x50 SHL PUSH1 0x20 DUP1 DUP4 ADD SWAP2 SWAP1 SWAP2 MSTORE PUSH1 0x1 PUSH1 0x1 PUSH1 0xA0 SHL SUB DUP8 AND PUSH1 0x0 SWAP1 DUP2 MSTORE PUSH1 0x8 DUP3 MSTORE DUP4 DUP2 KECCAK256 CALLER DUP3 MSTORE SWAP1 SWAP2 MSTORE SWAP2 SWAP1 SWAP2 KECCAK256 SLOAD PUSH3 0x10C9 SWAP2 DUP5 SWAP1 PUSH3 0x1E8F JUMP JUMPDEST PUSH1 0x1 PUSH1 0x1 PUSH1 0xA0 SHL SUB DUP6 AND PUSH1 0x0 SWAP1 DUP2 MSTORE PUSH1 0x8 PUSH1 0x20 SWAP1 DUP2 MSTORE PUSH1 0x40 DUP1 DUP4 KECCAK256 CALLER DUP5 MSTORE SWAP1 SWAP2 MSTORE SWAP1 KECCAK256 SSTORE JUMPDEST PUSH3 0x10FB DUP5 DUP5 DUP5 PUSH3 0x1F2A JUMP JUMPDEST SWAP1 POP JUMPDEST SWAP4 SWAP3 POP POP POP JUMP JUMPDEST PUSH1 0x4 SLOAD PUSH1 0x0 SWAP1 PUSH3 0x1151 SWAP1 PUSH3 0x1124 SWAP1 PUSH1 0x1 PUSH1 0x1 PUSH1 0xA0 SHL SUB AND PUSH3 0x1423 JUMP JUMPDEST PUSH1 0x3 SLOAD PUSH3 0x114A SWAP1 PUSH3 0x1140 SWAP1 PUSH1 0x1 PUSH1 0x1 PUSH1 0xA0 SHL SUB AND PUSH3 0x1423 JUMP JUMPDEST PUSH1 0x5 SLOAD SWAP1 PUSH3 0x23CF JUMP JUMPDEST SWAP1 PUSH3 0x23CF JUMP JUMPDEST SWAP1 POP SWAP1 JUMP JUMPDEST PUSH3 0x1161 CALLER PUSH3 0x1E61 JUMP JUMPDEST PUSH3 0x11A1 JUMPI PUSH1 0x40 DUP1 MLOAD PUSH3 0x461BCD PUSH1 0xE5 SHL DUP2 MSTORE PUSH1 0x20 PUSH1 0x4 DUP3 ADD MSTORE PUSH1 0xB PUSH1 0x24 DUP3 ADD MSTORE PUSH11 0x85055551213D492569151 PUSH1 0xAA SHL PUSH1 0x44 DUP3 ADD MSTORE SWAP1 MLOAD SWAP1 DUP2 SWAP1 SUB PUSH1 0x64 ADD SWAP1 REVERT JUMPDEST PUSH1 0x1E SLOAD PUSH1 0x40 DUP1 MLOAD PUSH4 0x16A4744B PUSH1 0xE1 SHL DUP2 MSTORE PUSH1 0x4 DUP2 ADD DUP6 SWAP1 MSTORE PUSH1 0x24 DUP2 ADD DUP5 SWAP1 MSTORE SWAP1 MLOAD PUSH1 0x1 PUSH1 0x1 PUSH1 0xA0 SHL SUB SWAP1 SWAP3 AND SWAP2 PUSH4 0x2D48E896 SWAP2 PUSH1 0x44 DUP1 DUP3 ADD SWAP3 PUSH1 0x0 SWAP3 SWAP1 SWAP2 SWAP1 DUP3 SWAP1 SUB ADD DUP2 DUP4 DUP8 DUP1 EXTCODESIZE ISZERO DUP1 ISZERO PUSH3 0x11F6 JUMPI PUSH1 0x0 DUP1 REVERT JUMPDEST POP GAS CALL ISZERO DUP1 ISZERO PUSH3 0x120B JUMPI RETURNDATASIZE PUSH1 0x0 DUP1 RETURNDATACOPY RETURNDATASIZE PUSH1 0x0 REVERT JUMPDEST POP POP POP POP POP POP JUMP JUMPDEST PUSH1 0x0 SLOAD PUSH1 0x1 PUSH1 0x1 PUSH1 0xA0 SHL SUB SWAP1 DUP2 AND SWAP2 AND EQ SWAP1 JUMP JUMPDEST PUSH1 0x12 SWAP1 JUMP JUMPDEST PUSH1 0x0 PUSH3 0xDA0 DUP3 PUSH1 0x0 NOT PUSH3 0xD3F JUMP JUMPDEST PUSH3 0x1247 CALLER PUSH3 0x1E61 JUMP JUMPDEST PUSH3 0x1287 JUMPI PUSH1 0x40 DUP1 MLOAD PUSH3 0x461BCD PUSH1 0xE5 SHL DUP2 MSTORE PUSH1 0x20 PUSH1 0x4 DUP3 ADD MSTORE PUSH1 0xB PUSH1 0x24 DUP3 ADD MSTORE PUSH11 0x85055551213D492569151 PUSH1 0xAA SHL PUSH1 0x44 DUP3 ADD MSTORE SWAP1 MLOAD SWAP1 DUP2 SWAP1 SUB PUSH1 0x64 ADD SWAP1 REVERT JUMPDEST PUSH1 0x6 SSTORE JUMP JUMPDEST PUSH3 0x1297 CALLER PUSH3 0x1E61 JUMP JUMPDEST PUSH3 0x12D7 JUMPI PUSH1 0x40 DUP1 MLOAD PUSH3 0x461BCD PUSH1 0xE5 SHL DUP2 MSTORE PUSH1 0x20 PUSH1 0x4 DUP3 ADD MSTORE PUSH1 0xB PUSH1 0x24 DUP3 ADD MSTORE PUSH11 0x85055551213D492569151 PUSH1 0xAA SHL PUSH1 0x44 DUP3 ADD MSTORE SWAP1 MLOAD SWAP1 DUP2 SWAP1 SUB PUSH1 0x64 ADD SWAP1 REVERT JUMPDEST PUSH1 0x1E SLOAD PUSH1 0x40 DUP1 MLOAD PUSH4 0xA6871BC3 PUSH1 0xE0 SHL DUP2 MSTORE CALLER PUSH1 0x4 DUP3 ADD MSTORE SWAP1 MLOAD PUSH1 0x1 PUSH1 0x1 PUSH1 0xA0 SHL SUB SWAP1 SWAP3 AND SWAP2 PUSH4 0xA6871BC3 SWAP2 PUSH1 0x24 DUP1 DUP3 ADD SWAP3 PUSH1 0x0 SWAP3 SWAP1 SWAP2 SWAP1 DUP3 SWAP1 SUB ADD DUP2 DUP4 DUP8 DUP1 EXTCODESIZE ISZERO DUP1 ISZERO PUSH3 0x1324 JUMPI PUSH1 0x0 DUP1 REVERT JUMPDEST POP GAS CALL ISZERO DUP1 ISZERO PUSH3 0x1339 JUMPI RETURNDATASIZE PUSH1 0x0 DUP1 RETURNDATACOPY RETURNDATASIZE PUSH1 0x0 REVERT JUMPDEST POP POP POP POP JUMP JUMPDEST PUSH3 0x134A CALLER PUSH3 0x1E61 JUMP JUMPDEST PUSH3 0x138A JUMPI PUSH1 0x40 DUP1 MLOAD PUSH3 0x461BCD PUSH1 0xE5 SHL DUP2 MSTORE PUSH1 0x20 PUSH1 0x4 DUP3 ADD MSTORE PUSH1 0xB PUSH1 0x24 DUP3 ADD MSTORE PUSH11 0x85055551213D492569151 PUSH1 0xAA SHL PUSH1 0x44 DUP3 ADD MSTORE SWAP1 MLOAD SWAP1 DUP2 SWAP1 SUB PUSH1 0x64 ADD SWAP1 REVERT JUMPDEST PUSH1 0x1 PUSH1 0x1 PUSH1 0xA0 SHL SUB SWAP2 SWAP1 SWAP2 AND PUSH1 0x0 SWAP1 DUP2 MSTORE PUSH1 0x9 PUSH1 0x20 MSTORE PUSH1 0x40 SWAP1 KECCAK256 DUP1 SLOAD PUSH1 0xFF NOT AND SWAP2 ISZERO ISZERO SWAP2 SWAP1 SWAP2 OR SWAP1 SSTORE JUMP JUMPDEST PUSH3 0x13C0 CALLER PUSH3 0x1E61 JUMP JUMPDEST PUSH3 0x1400 JUMPI PUSH1 0x40 DUP1 MLOAD PUSH3 0x461BCD PUSH1 0xE5 SHL DUP2 MSTORE PUSH1 0x20 PUSH1 0x4 DUP3 ADD MSTORE PUSH1 0xB PUSH1 0x24 DUP3 ADD MSTORE PUSH11 0x85055551213D492569151 PUSH1 0xAA SHL PUSH1 0x44 DUP3 ADD MSTORE SWAP1 MLOAD SWAP1 DUP2 SWAP1 SUB PUSH1 0x64 ADD SWAP1 REVERT JUMPDEST PUSH1 0x12 SWAP4 SWAP1 SWAP4 SSTORE PUSH1 0x13 SWAP2 SWAP1 SWAP2 SSTORE PUSH1 0x14 SSTORE PUSH1 0xE SSTORE JUMP JUMPDEST PUSH1 0x14 SLOAD DUP2 JUMP JUMPDEST PUSH1 0x20 SLOAD PUSH1 0xFF AND DUP2 JUMP JUMPDEST PUSH1 0x1 PUSH1 0x1 PUSH1 0xA0 SHL SUB AND PUSH1 0x0 SWAP1 DUP2 MSTORE PUSH1 0x7 PUSH1 0x20 MSTORE PUSH1 0x40 SWAP1 KECCAK256 SLOAD SWAP1 JUMP JUMPDEST PUSH1 0x6 SLOAD DUP2 JUMP JUMPDEST PUSH3 0x144F CALLER PUSH3 0x1213 JUMP JUMPDEST PUSH3 0x148A JUMPI PUSH1 0x40 DUP1 MLOAD PUSH3 0x461BCD PUSH1 0xE5 SHL DUP2 MSTORE PUSH1 0x20 PUSH1 0x4 DUP3 ADD MSTORE PUSH1 0x6 PUSH1 0x24 DUP3 ADD MSTORE PUSH6 0x10A7ABA722A9 PUSH1 0xD1 SHL PUSH1 0x44 DUP3 ADD MSTORE SWAP1 MLOAD SWAP1 DUP2 SWAP1 SUB PUSH1 0x64 ADD SWAP1 REVERT JUMPDEST PUSH1 0x1C SLOAD PUSH1 0x40 MLOAD PUSH1 0x1 PUSH1 0x1 PUSH1 0xA0 SHL SUB SWAP1 SWAP2 AND SWAP1 DUP3 SWAP1 PUSH3 0x14A9 SWAP1 PUSH3 0x2BE9 JUMP JUMPDEST PUSH1 0x1 PUSH1 0x1 PUSH1 0xA0 SHL SUB SWAP3 DUP4 AND DUP2 MSTORE SWAP2 AND PUSH1 0x20 DUP3 ADD MSTORE PUSH1 0x40 DUP1 MLOAD SWAP2 DUP3 SWAP1 SUB ADD SWAP1 PUSH1 0x0 CREATE DUP1 ISZERO DUP1 ISZERO PUSH3 0x14DD JUMPI RETURNDATASIZE PUSH1 0x0 DUP1 RETURNDATACOPY RETURNDATASIZE PUSH1 0x0 REVERT JUMPDEST POP PUSH1 0x1E DUP1 SLOAD PUSH1 0x1 PUSH1 0x1 PUSH1 0xA0 SHL SUB NOT AND PUSH1 0x1 PUSH1 0x1 PUSH1 0xA0 SHL SUB SWAP3 SWAP1 SWAP3 AND SWAP2 SWAP1 SWAP2 OR SWAP1 SSTORE POP JUMP JUMPDEST PUSH1 0x11 SLOAD DUP2 JUMP JUMPDEST PUSH1 0x0 SLOAD PUSH1 0x1 PUSH1 0x1 PUSH1 0xA0 SHL SUB AND SWAP1 JUMP JUMPDEST PUSH1 0x40 DUP1 MLOAD DUP1 DUP3 ADD SWAP1 SWAP2 MSTORE PUSH1 0x5 DUP2 MSTORE PUSH5 0x911141051 PUSH1 0xDA SHL PUSH1 0x20 DUP3 ADD MSTORE SWAP1 JUMP JUMPDEST PUSH3 0x1540 CALLER PUSH3 0x1E61 JUMP JUMPDEST PUSH3 0x1580 JUMPI PUSH1 0x40 DUP1 MLOAD PUSH3 0x461BCD PUSH1 0xE5 SHL DUP2 MSTORE PUSH1 0x20 PUSH1 0x4 DUP3 ADD MSTORE PUSH1 0xB PUSH1 0x24 DUP3 ADD MSTORE PUSH11 0x85055551213D492569151 PUSH1 0xAA SHL PUSH1 0x44 DUP3 ADD MSTORE SWAP1 MLOAD SWAP1 DUP2 SWAP1 SUB PUSH1 0x64 ADD SWAP1 REVERT JUMPDEST PUSH3 0xB71B0 DUP2 LT PUSH3 0x1590 JUMPI PUSH1 0x0 DUP1 REVERT JUMPDEST PUSH1 0x1F SSTORE JUMP JUMPDEST PUSH3 0x15A0 CALLER PUSH3 0x1E61 JUMP JUMPDEST PUSH3 0x15E0 JUMPI PUSH1 0x40 DUP1 MLOAD PUSH3 0x461BCD PUSH1 0xE5 SHL DUP2 MSTORE PUSH1 0x20 PUSH1 0x4 DUP3 ADD MSTORE PUSH1 0xB PUSH1 0x24 DUP3 ADD MSTORE PUSH11 0x85055551213D492569151 PUSH1 0xAA SHL PUSH1 0x44 DUP3 ADD MSTORE SWAP1 MLOAD SWAP1 DUP2 SWAP1 SUB PUSH1 0x64 ADD SWAP1 REVERT JUMPDEST PUSH1 0x18 DUP1 SLOAD PUSH1 0x1 PUSH1 0x1 PUSH1 0xA0 SHL SUB SWAP4 DUP5 AND PUSH1 0x1 PUSH1 0x1 PUSH1 0xA0 SHL SUB NOT SWAP2 DUP3 AND OR SWAP1 SWAP2 SSTORE PUSH1 0x19 DUP1 SLOAD SWAP3 SWAP1 SWAP4 AND SWAP2 AND OR SWAP1 SSTORE JUMP JUMPDEST PUSH1 0x1D SLOAD PUSH1 0x1 PUSH1 0x1 PUSH1 0xA0 SHL SUB AND DUP2 JUMP JUMPDEST PUSH1 0x0 PUSH3 0x10FE CALLER DUP5 DUP5 PUSH3 0x1F2A JUMP JUMPDEST PUSH3 0x1637 CALLER PUSH3 0x1213 JUMP JUMPDEST PUSH3 0x1672 JUMPI PUSH1 0x40 DUP1 MLOAD PUSH3 0x461BCD PUSH1 0xE5 SHL DUP2 MSTORE PUSH1 0x20 PUSH1 0x4 DUP3 ADD MSTORE PUSH1 0x6 PUSH1 0x24 DUP3 ADD MSTORE PUSH6 0x10A7ABA722A9 PUSH1 0xD1 SHL PUSH1 0x44 DUP3 ADD MSTORE SWAP1 MLOAD SWAP1 DUP2 SWAP1 SUB PUSH1 0x64 ADD SWAP1 REVERT JUMPDEST PUSH1 0x0 DUP4 DUP3 EQ PUSH3 0x16B4 JUMPI PUSH1 0x40 MLOAD PUSH3 0x461BCD PUSH1 0xE5 SHL DUP2 MSTORE PUSH1 0x4 ADD DUP1 DUP1 PUSH1 0x20 ADD DUP3 DUP2 SUB DUP3 MSTORE PUSH1 0x28 DUP2 MSTORE PUSH1 0x20 ADD DUP1 PUSH3 0x3CD4 PUSH1 0x28 SWAP2 CODECOPY PUSH1 0x40 ADD SWAP2 POP POP PUSH1 0x40 MLOAD DUP1 SWAP2 SUB SWAP1 REVERT JUMPDEST PUSH1 0x0 JUMPDEST DUP5 DUP2 LT ISZERO PUSH3 0x16E4 JUMPI DUP4 DUP4 DUP3 DUP2 DUP2 LT PUSH3 0x16CD JUMPI INVALID JUMPDEST PUSH1 0x20 MUL SWAP2 SWAP1 SWAP2 ADD CALLDATALOAD SWAP3 SWAP1 SWAP3 ADD SWAP2 POP PUSH1 0x1 ADD PUSH3 0x16B7 JUMP JUMPDEST POP DUP1 PUSH3 0x16F1 CALLER PUSH3 0x1423 JUMP JUMPDEST LT ISZERO PUSH3 0x1745 JUMPI PUSH1 0x40 DUP1 MLOAD PUSH3 0x461BCD PUSH1 0xE5 SHL DUP2 MSTORE PUSH1 0x20 PUSH1 0x4 DUP3 ADD MSTORE PUSH1 0x1C PUSH1 0x24 DUP3 ADD MSTORE PUSH32 0x4E6F7420656E6F75676820746F6B656E7320746F2061697264726F7000000000 PUSH1 0x44 DUP3 ADD MSTORE SWAP1 MLOAD SWAP1 DUP2 SWAP1 SUB PUSH1 0x64 ADD SWAP1 REVERT JUMPDEST PUSH1 0x0 JUMPDEST DUP5 DUP2 LT ISZERO PUSH3 0x189E JUMPI PUSH3 0x178D CALLER DUP8 DUP8 DUP5 DUP2 DUP2 LT PUSH3 0x1763 JUMPI INVALID JUMPDEST SWAP1 POP PUSH1 0x20 MUL ADD CALLDATALOAD PUSH1 0x1 PUSH1 0x1 PUSH1 0xA0 SHL SUB AND DUP7 DUP7 DUP6 DUP2 DUP2 LT PUSH3 0x1780 JUMPI INVALID JUMPDEST SWAP1 POP PUSH1 0x20 MUL ADD CALLDATALOAD PUSH3 0x2413 JUMP JUMPDEST POP PUSH1 0xC PUSH1 0x0 DUP8 DUP8 DUP5 DUP2 DUP2 LT PUSH3 0x179F JUMPI INVALID JUMPDEST PUSH1 0x20 SWAP1 DUP2 MUL SWAP3 SWAP1 SWAP3 ADD CALLDATALOAD PUSH1 0x1 PUSH1 0x1 PUSH1 0xA0 SHL SUB AND DUP4 MSTORE POP DUP2 ADD SWAP2 SWAP1 SWAP2 MSTORE PUSH1 0x40 ADD PUSH1 0x0 KECCAK256 SLOAD PUSH1 0xFF AND PUSH3 0x1895 JUMPI PUSH1 0x1E SLOAD PUSH1 0x1 PUSH1 0x1 PUSH1 0xA0 SHL SUB AND PUSH4 0x14B6CA96 DUP8 DUP8 DUP5 DUP2 DUP2 LT PUSH3 0x17E8 JUMPI INVALID JUMPDEST SWAP1 POP PUSH1 0x20 MUL ADD CALLDATALOAD PUSH1 0x1 PUSH1 0x1 PUSH1 0xA0 SHL SUB AND PUSH1 0x7 PUSH1 0x0 DUP11 DUP11 DUP8 DUP2 DUP2 LT PUSH3 0x1809 JUMPI INVALID JUMPDEST SWAP1 POP PUSH1 0x20 MUL ADD CALLDATALOAD PUSH1 0x1 PUSH1 0x1 PUSH1 0xA0 SHL SUB AND PUSH1 0x1 PUSH1 0x1 PUSH1 0xA0 SHL SUB AND PUSH1 0x1 PUSH1 0x1 PUSH1 0xA0 SHL SUB AND DUP2 MSTORE PUSH1 0x20 ADD SWAP1 DUP2 MSTORE PUSH1 0x20 ADD PUSH1 0x0 KECCAK256 SLOAD PUSH1 0x40 MLOAD DUP4 PUSH4 0xFFFFFFFF AND PUSH1 0xE0 SHL DUP2 MSTORE PUSH1 0x4 ADD DUP1 DUP4 PUSH1 0x1 PUSH1 0x1 PUSH1 0xA0 SHL SUB AND DUP2 MSTORE PUSH1 0x20 ADD DUP3 DUP2 MSTORE PUSH1 0x20 ADD SWAP3 POP POP POP PUSH1 0x0 PUSH1 0x40 MLOAD DUP1 DUP4 SUB DUP2 PUSH1 0x0 DUP8 DUP1 EXTCODESIZE ISZERO DUP1 ISZERO PUSH3 0x1881 JUMPI PUSH1 0x0 DUP1 REVERT JUMPDEST POP GAS CALL SWAP3 POP POP POP DUP1 ISZERO PUSH3 0x1893 JUMPI POP PUSH1 0x1 JUMPDEST POP JUMPDEST PUSH1 0x1 ADD PUSH3 0x1748 JUMP JUMPDEST POP CALLER PUSH1 0x0 SWAP1 DUP2 MSTORE PUSH1 0xC PUSH1 0x20 MSTORE PUSH1 0x40 SWAP1 KECCAK256 SLOAD PUSH1 0xFF AND PUSH3 0x1925 JUMPI PUSH1 0x1E SLOAD CALLER PUSH1 0x0 DUP2 DUP2 MSTORE PUSH1 0x7 PUSH1 0x20 MSTORE PUSH1 0x40 DUP1 DUP3 KECCAK256 SLOAD DUP2 MLOAD PUSH4 0xA5B654B PUSH1 0xE1 SHL DUP2 MSTORE PUSH1 0x4 DUP2 ADD SWAP5 SWAP1 SWAP5 MSTORE PUSH1 0x24 DUP5 ADD MSTORE MLOAD PUSH1 0x1 PUSH1 0x1 PUSH1 0xA0 SHL SUB SWAP1 SWAP4 AND SWAP3 PUSH4 0x14B6CA96 SWAP3 PUSH1 0x44 DUP1 DUP3 ADD SWAP4 SWAP3 SWAP2 DUP3 SWAP1 SUB ADD DUP2 DUP4 DUP8 DUP1 EXTCODESIZE ISZERO DUP1 ISZERO PUSH3 0x1915 JUMPI PUSH1 0x0 DUP1 REVERT JUMPDEST POP GAS CALL SWAP3 POP POP POP DUP1 ISZERO PUSH3 0x120B JUMPI POP JUMPDEST POP POP POP POP POP JUMP JUMPDEST PUSH3 0x1937 CALLER PUSH3 0x1213 JUMP JUMPDEST PUSH3 0x1972 JUMPI PUSH1 0x40 DUP1 MLOAD PUSH3 0x461BCD PUSH1 0xE5 SHL DUP2 MSTORE PUSH1 0x20 PUSH1 0x4 DUP3 ADD MSTORE PUSH1 0x6 PUSH1 0x24 DUP3 ADD MSTORE PUSH6 0x10A7ABA722A9 PUSH1 0xD1 SHL PUSH1 0x44 DUP3 ADD MSTORE SWAP1 MLOAD SWAP1 DUP2 SWAP1 SUB PUSH1 0x64 ADD SWAP1 REVERT JUMPDEST PUSH1 0x1 PUSH1 0x1 PUSH1 0xA0 SHL SUB AND PUSH1 0x0 SWAP1 DUP2 MSTORE PUSH1 0x1 PUSH1 0x20 DUP2 SWAP1 MSTORE PUSH1 0x40 SWAP1 SWAP2 KECCAK256 DUP1 SLOAD PUSH1 0xFF NOT AND SWAP1 SWAP2 OR SWAP1 SSTORE JUMP JUMPDEST PUSH1 0x1E SLOAD PUSH1 0x1 PUSH1 0x1 PUSH1 0xA0 SHL SUB AND DUP2 JUMP JUMPDEST PUSH1 0x0 PUSH3 0xDA0 PUSH3 0x19B8 PUSH3 0x1105 JUMP JUMPDEST PUSH1 0x1D SLOAD PUSH3 0x19EB SWAP1 PUSH3 0x19E3 SWAP1 PUSH1 0x2 SWAP1 PUSH3 0x19DC SWAP1 PUSH1 0x1 PUSH1 0x1 PUSH1 0xA0 SHL SUB AND PUSH3 0x1423 JUMP JUMPDEST SWAP1 PUSH3 0x24F8 JUMP JUMPDEST DUP6 SWAP1 PUSH3 0x24F8 JUMP JUMPDEST SWAP1 PUSH3 0x2556 JUMP JUMPDEST PUSH3 0x19FD CALLER PUSH3 0x1E61 JUMP JUMPDEST PUSH3 0x1A3D JUMPI PUSH1 0x40 DUP1 MLOAD PUSH3 0x461BCD PUSH1 0xE5 SHL DUP2 MSTORE PUSH1 0x20 PUSH1 0x4 DUP3 ADD MSTORE PUSH1 0xB PUSH1 0x24 DUP3 ADD MSTORE PUSH11 0x85055551213D492569151 PUSH1 0xAA SHL PUSH1 0x44 DUP3 ADD MSTORE SWAP1 MLOAD SWAP1 DUP2 SWAP1 SUB PUSH1 0x64 ADD SWAP1 REVERT JUMPDEST PUSH1 0x64 DUP2 PUSH1 0x5 SLOAD MUL DUP2 PUSH3 0x1A4C JUMPI INVALID JUMPDEST DIV PUSH1 0x6 SSTORE POP JUMP JUMPDEST PUSH1 0x1E SLOAD PUSH1 0x1F SLOAD PUSH1 0x40 DUP1 MLOAD PUSH1 0x1 PUSH3 0x4D3B87 PUSH1 0xE0 SHL SUB NOT DUP2 MSTORE PUSH1 0x4 DUP2 ADD SWAP3 SWAP1 SWAP3 MSTORE MLOAD PUSH1 0x1 PUSH1 0x1 PUSH1 0xA0 SHL SUB SWAP1 SWAP3 AND SWAP2 PUSH4 0xFFB2C479 SWAP2 PUSH1 0x24 DUP1 DUP3 ADD SWAP3 PUSH1 0x0 SWAP3 SWAP1 SWAP2 SWAP1 DUP3 SWAP1 SUB ADD DUP2 DUP4 DUP8 DUP1 EXTCODESIZE ISZERO DUP1 ISZERO PUSH3 0xEE4 JUMPI PUSH1 0x0 DUP1 REVERT JUMPDEST PUSH1 0x1 PUSH1 0x1 PUSH1 0xA0 SHL SUB SWAP2 DUP3 AND PUSH1 0x0 SWAP1 DUP2 MSTORE PUSH1 0x8 PUSH1 0x20 SWAP1 DUP2 MSTORE PUSH1 0x40 DUP1 DUP4 KECCAK256 SWAP4 SWAP1 SWAP5 AND DUP3 MSTORE SWAP2 SWAP1 SWAP2 MSTORE KECCAK256 SLOAD SWAP1 JUMP JUMPDEST PUSH3 0x1ADD CALLER PUSH3 0x1E61 JUMP JUMPDEST PUSH3 0x1B1D JUMPI PUSH1 0x40 DUP1 MLOAD PUSH3 0x461BCD PUSH1 0xE5 SHL DUP2 MSTORE PUSH1 0x20 PUSH1 0x4 DUP3 ADD MSTORE PUSH1 0xB PUSH1 0x24 DUP3 ADD MSTORE PUSH11 0x85055551213D492569151 PUSH1 0xAA SHL PUSH1 0x44 DUP3 ADD MSTORE SWAP1 MLOAD SWAP1 DUP2 SWAP1 SUB PUSH1 0x64 ADD SWAP1 REVERT JUMPDEST PUSH1 0x20 DUP1 SLOAD PUSH1 0xFF NOT AND SWAP3 ISZERO ISZERO SWAP3 SWAP1 SWAP3 OR SWAP1 SWAP2 SSTORE PUSH1 0x21 SSTORE JUMP JUMPDEST PUSH1 0x12 SLOAD DUP2 JUMP JUMPDEST PUSH1 0xF SLOAD DUP2 JUMP JUMPDEST PUSH3 0x1B4B CALLER PUSH3 0x1213 JUMP JUMPDEST PUSH3 0x1B86 JUMPI PUSH1 0x40 DUP1 MLOAD PUSH3 0x461BCD PUSH1 0xE5 SHL DUP2 MSTORE PUSH1 0x20 PUSH1 0x4 DUP3 ADD MSTORE PUSH1 0x6 PUSH1 0x24 DUP3 ADD MSTORE PUSH6 0x10A7ABA722A9 PUSH1 0xD1 SHL PUSH1 0x44 DUP3 ADD MSTORE SWAP1 MLOAD SWAP1 DUP2 SWAP1 SUB PUSH1 0x64 ADD SWAP1 REVERT JUMPDEST PUSH1 0x1 PUSH1 0x1 PUSH1 0xA0 SHL SUB AND PUSH1 0x0 SWAP1 DUP2 MSTORE PUSH1 0x1 PUSH1 0x20 MSTORE PUSH1 0x40 SWAP1 KECCAK256 DUP1 SLOAD PUSH1 0xFF NOT AND SWAP1 SSTORE JUMP JUMPDEST PUSH3 0x1BB2 CALLER PUSH3 0x1213 JUMP JUMPDEST PUSH3 0x1BED JUMPI PUSH1 0x40 DUP1 MLOAD PUSH3 0x461BCD PUSH1 0xE5 SHL DUP2 MSTORE PUSH1 0x20 PUSH1 0x4 DUP3 ADD MSTORE PUSH1 0x6 PUSH1 0x24 DUP3 ADD MSTORE PUSH6 0x10A7ABA722A9 PUSH1 0xD1 SHL PUSH1 0x44 DUP3 ADD MSTORE SWAP1 MLOAD SWAP1 DUP2 SWAP1 SUB PUSH1 0x64 ADD SWAP1 REVERT JUMPDEST PUSH1 0x0 DUP1 SLOAD PUSH1 0x1 PUSH1 0x1 PUSH1 0xA0 SHL SUB NOT AND PUSH1 0x1 PUSH1 0x1 PUSH1 0xA0 SHL SUB DUP4 AND SWAP1 DUP2 OR DUP3 SSTORE DUP1 DUP3 MSTORE PUSH1 0x1 PUSH1 0x20 DUP2 DUP2 MSTORE PUSH1 0x40 SWAP4 DUP5 SWAP1 KECCAK256 DUP1 SLOAD PUSH1 0xFF NOT AND SWAP1 SWAP3 OR SWAP1 SWAP2 SSTORE DUP3 MLOAD SWAP2 DUP3 MSTORE SWAP2 MLOAD PUSH32 0x4DBA622D284ED0014EE4B9A6A68386BE1A4C08A4913AE272DE89199CC686163 SWAP3 SWAP2 DUP2 SWAP1 SUB SWAP1 SWAP2 ADD SWAP1 LOG1 POP JUMP JUMPDEST PUSH3 0x1C66 CALLER PUSH3 0x1E61 JUMP JUMPDEST PUSH3 0x1CA6 JUMPI PUSH1 0x40 DUP1 MLOAD PUSH3 0x461BCD PUSH1 0xE5 SHL DUP2 MSTORE PUSH1 0x20 PUSH1 0x4 DUP3 ADD MSTORE PUSH1 0xB PUSH1 0x24 DUP3 ADD MSTORE PUSH11 0x85055551213D492569151 PUSH1 0xAA SHL PUSH1 0x44 DUP3 ADD MSTORE SWAP1 MLOAD SWAP1 DUP2 SWAP1 SUB PUSH1 0x64 ADD SWAP1 REVERT JUMPDEST PUSH1 0x1 PUSH1 0x1 PUSH1 0xA0 SHL SUB DUP3 AND ADDRESS EQ DUP1 ISZERO SWAP1 PUSH3 0x1CCE JUMPI POP PUSH1 0x1D SLOAD PUSH1 0x1 PUSH1 0x1 PUSH1 0xA0 SHL SUB DUP4 DUP2 AND SWAP2 AND EQ ISZERO JUMPDEST PUSH3 0x1CD8 JUMPI PUSH1 0x0 DUP1 REVERT JUMPDEST PUSH1 0x1 PUSH1 0x1 PUSH1 0xA0 SHL SUB DUP3 AND PUSH1 0x0 SWAP1 DUP2 MSTORE PUSH1 0xC PUSH1 0x20 MSTORE PUSH1 0x40 SWAP1 KECCAK256 DUP1 SLOAD PUSH1 0xFF NOT AND DUP3 ISZERO DUP1 ISZERO SWAP2 SWAP1 SWAP2 OR SWAP1 SWAP2 SSTORE PUSH3 0x1D79 JUMPI PUSH1 0x1E SLOAD PUSH1 0x40 DUP1 MLOAD PUSH4 0xA5B654B PUSH1 0xE1 SHL DUP2 MSTORE PUSH1 0x1 PUSH1 0x1 PUSH1 0xA0 SHL SUB DUP6 DUP2 AND PUSH1 0x4 DUP4 ADD MSTORE PUSH1 0x0 PUSH1 0x24 DUP4 ADD DUP2 SWAP1 MSTORE SWAP3 MLOAD SWAP4 AND SWAP3 PUSH4 0x14B6CA96 SWAP3 PUSH1 0x44 DUP1 DUP5 ADD SWAP4 SWAP2 SWAP3 SWAP2 DUP3 SWAP1 SUB ADD DUP2 DUP4 DUP8 DUP1 EXTCODESIZE ISZERO DUP1 ISZERO PUSH3 0x1D5A JUMPI PUSH1 0x0 DUP1 REVERT JUMPDEST POP GAS CALL ISZERO DUP1 ISZERO PUSH3 0x1D6F JUMPI RETURNDATASIZE PUSH1 0x0 DUP1 RETURNDATACOPY RETURNDATASIZE PUSH1 0x0 REVERT JUMPDEST POP POP POP POP PUSH3 0x1DD8 JUMP JUMPDEST PUSH1 0x1E SLOAD PUSH1 0x1 PUSH1 0x1 PUSH1 0xA0 SHL SUB DUP4 DUP2 AND PUSH1 0x0 DUP2 DUP2 MSTORE PUSH1 0x7 PUSH1 0x20 MSTORE PUSH1 0x40 DUP1 DUP3 KECCAK256 SLOAD DUP2 MLOAD PUSH4 0xA5B654B PUSH1 0xE1 SHL DUP2 MSTORE PUSH1 0x4 DUP2 ADD SWAP5 SWAP1 SWAP5 MSTORE PUSH1 0x24 DUP5 ADD MSTORE MLOAD SWAP3 SWAP1 SWAP4 AND SWAP3 PUSH4 0x14B6CA96 SWAP3 PUSH1 0x44 DUP1 DUP5 ADD SWAP4 DUP3 SWAP1 SUB ADD DUP2 DUP4 DUP8 DUP1 EXTCODESIZE ISZERO DUP1 ISZERO PUSH3 0x11F6 JUMPI PUSH1 0x0 DUP1 REVERT JUMPDEST POP POP JUMP JUMPDEST PUSH3 0x1DE7 CALLER PUSH3 0x1E61 JUMP JUMPDEST PUSH3 0x1E27 JUMPI PUSH1 0x40 DUP1 MLOAD PUSH3 0x461BCD PUSH1 0xE5 SHL DUP2 MSTORE PUSH1 0x20 PUSH1 0x4 DUP3 ADD MSTORE PUSH1 0xB PUSH1 0x24 DUP3 ADD MSTORE PUSH11 0x85055551213D492569151 PUSH1 0xAA SHL PUSH1 0x44 DUP3 ADD MSTORE SWAP1 MLOAD SWAP1 DUP2 SWAP1 SUB PUSH1 0x64 ADD SWAP1 REVERT JUMPDEST PUSH1 0x1 PUSH1 0x1 PUSH1 0xA0 SHL SUB SWAP2 SWAP1 SWAP2 AND PUSH1 0x0 SWAP1 DUP2 MSTORE PUSH1 0xA PUSH1 0x20 MSTORE PUSH1 0x40 SWAP1 KECCAK256 DUP1 SLOAD PUSH1 0xFF NOT AND SWAP2 ISZERO ISZERO SWAP2 SWAP1 SWAP2 OR SWAP1 SSTORE JUMP JUMPDEST PUSH1 0x1C SLOAD PUSH1 0x1 PUSH1 0x1 PUSH1 0xA0 SHL SUB AND DUP2 JUMP JUMPDEST PUSH1 0x1 PUSH1 0x1 PUSH1 0xA0 SHL SUB AND PUSH1 0x0 SWAP1 DUP2 MSTORE PUSH1 0x1 PUSH1 0x20 MSTORE PUSH1 0x40 SWAP1 KECCAK256 SLOAD PUSH1 0xFF AND SWAP1 JUMP JUMPDEST PUSH1 0x1D SLOAD PUSH1 0x1 PUSH1 0xA0 SHL SWAP1 DIV PUSH1 0xFF AND DUP2 JUMP JUMPDEST PUSH1 0x0 DUP2 DUP5 DUP5 GT ISZERO PUSH3 0x1F22 JUMPI PUSH1 0x40 MLOAD PUSH3 0x461BCD PUSH1 0xE5 SHL DUP2 MSTORE PUSH1 0x4 ADD DUP1 DUP1 PUSH1 0x20 ADD DUP3 DUP2 SUB DUP3 MSTORE DUP4 DUP2 DUP2 MLOAD DUP2 MSTORE PUSH1 0x20 ADD SWAP2 POP DUP1 MLOAD SWAP1 PUSH1 0x20 ADD SWAP1 DUP1 DUP4 DUP4 PUSH1 0x0 JUMPDEST DUP4 DUP2 LT ISZERO PUSH3 0x1EE6 JUMPI DUP2 DUP2 ADD MLOAD DUP4 DUP3 ADD MSTORE PUSH1 0x20 ADD PUSH3 0x1ECC JUMP JUMPDEST POP POP POP POP SWAP1 POP SWAP1 DUP2 ADD SWAP1 PUSH1 0x1F AND DUP1 ISZERO PUSH3 0x1F14 JUMPI DUP1 DUP3 SUB DUP1 MLOAD PUSH1 0x1 DUP4 PUSH1 0x20 SUB PUSH2 0x100 EXP SUB NOT AND DUP2 MSTORE PUSH1 0x20 ADD SWAP2 POP JUMPDEST POP SWAP3 POP POP POP PUSH1 0x40 MLOAD DUP1 SWAP2 SUB SWAP1 REVERT JUMPDEST POP POP POP SWAP1 SUB SWAP1 JUMP JUMPDEST PUSH1 0x22 SLOAD PUSH1 0x0 SWAP1 PUSH1 0xFF AND ISZERO PUSH3 0x1F4E JUMPI PUSH3 0x1F46 DUP5 DUP5 DUP5 PUSH3 0x2413 JUMP JUMPDEST SWAP1 POP PUSH3 0x10FE JUMP JUMPDEST PUSH1 0x1 PUSH1 0x1 PUSH1 0xA0 SHL SUB DUP5 AND PUSH1 0x0 SWAP1 DUP2 MSTORE PUSH1 0x1 PUSH1 0x20 MSTORE PUSH1 0x40 SWAP1 KECCAK256 SLOAD PUSH1 0xFF AND ISZERO DUP1 ISZERO PUSH3 0x1F91 JUMPI POP PUSH1 0x1 PUSH1 0x1 PUSH1 0xA0 SHL SUB DUP4 AND PUSH1 0x0 SWAP1 DUP2 MSTORE PUSH1 0x1 PUSH1 0x20 MSTORE PUSH1 0x40 SWAP1 KECCAK256 SLOAD PUSH1 0xFF AND ISZERO JUMPDEST ISZERO PUSH3 0x1FED JUMPI PUSH1 0x1D SLOAD PUSH1 0x1 PUSH1 0xA0 SHL SWAP1 DIV PUSH1 0xFF AND PUSH3 0x1FED JUMPI PUSH1 0x40 DUP1 MLOAD PUSH3 0x461BCD PUSH1 0xE5 SHL DUP2 MSTORE PUSH1 0x20 PUSH1 0x4 DUP3 ADD MSTORE PUSH1 0x14 PUSH1 0x24 DUP3 ADD MSTORE PUSH20 0x151C98591A5B99C81B9BDD081BDC195B881E595D PUSH1 0x62 SHL PUSH1 0x44 DUP3 ADD MSTORE SWAP1 MLOAD SWAP1 DUP2 SWAP1 SUB PUSH1 0x64 ADD SWAP1 REVERT JUMPDEST PUSH1 0x1 PUSH1 0x1 PUSH1 0xA0 SHL SUB DUP5 AND PUSH1 0x0 SWAP1 DUP2 MSTORE PUSH1 0x1 PUSH1 0x20 MSTORE PUSH1 0x40 SWAP1 KECCAK256 SLOAD PUSH1 0xFF AND ISZERO DUP1 ISZERO PUSH3 0x2020 JUMPI POP PUSH1 0x1 PUSH1 0x1 PUSH1 0xA0 SHL SUB DUP4 AND ADDRESS EQ ISZERO JUMPDEST DUP1 ISZERO PUSH3 0x203B JUMPI POP PUSH1 0x3 SLOAD PUSH1 0x1 PUSH1 0x1 PUSH1 0xA0 SHL SUB DUP5 DUP2 AND SWAP2 AND EQ ISZERO JUMPDEST DUP1 ISZERO PUSH3 0x2056 JUMPI POP PUSH1 0x1D SLOAD PUSH1 0x1 PUSH1 0x1 PUSH1 0xA0 SHL SUB DUP5 DUP2 AND SWAP2 AND EQ ISZERO JUMPDEST DUP1 ISZERO PUSH3 0x2071 JUMPI POP PUSH1 0x19 SLOAD PUSH1 0x1 PUSH1 0x1 PUSH1 0xA0 SHL SUB DUP5 DUP2 AND SWAP2 AND EQ ISZERO JUMPDEST DUP1 ISZERO PUSH3 0x208C JUMPI POP PUSH1 0x18 SLOAD PUSH1 0x1 PUSH1 0x1 PUSH1 0xA0 SHL SUB DUP5 DUP2 AND SWAP2 AND EQ ISZERO JUMPDEST ISZERO PUSH3 0x2102 JUMPI PUSH1 0x6 SLOAD DUP3 GT ISZERO DUP1 PUSH3 0x20BC JUMPI POP PUSH1 0x1 PUSH1 0x1 PUSH1 0xA0 SHL SUB DUP5 AND PUSH1 0x0 SWAP1 DUP2 MSTORE PUSH1 0xA PUSH1 0x20 MSTORE PUSH1 0x40 SWAP1 KECCAK256 SLOAD PUSH1 0xFF AND JUMPDEST PUSH3 0x2102 JUMPI PUSH1 0x40 DUP1 MLOAD PUSH3 0x461BCD PUSH1 0xE5 SHL DUP2 MSTORE PUSH1 0x20 PUSH1 0x4 DUP3 ADD MSTORE PUSH1 0x11 PUSH1 0x24 DUP3 ADD MSTORE PUSH17 0x151608131A5B5A5D08115E18D959591959 PUSH1 0x7A SHL PUSH1 0x44 DUP3 ADD MSTORE SWAP1 MLOAD SWAP1 DUP2 SWAP1 SUB PUSH1 0x64 ADD SWAP1 REVERT JUMPDEST PUSH3 0x210C PUSH3 0x259A JUMP JUMPDEST ISZERO PUSH3 0x211C JUMPI PUSH3 0x211C PUSH3 0x25EC JUMP JUMPDEST PUSH1 0x40 DUP1 MLOAD DUP1 DUP3 ADD DUP3 MSTORE PUSH1 0x14 DUP2 MSTORE PUSH20 0x496E73756666696369656E742042616C616E6365 PUSH1 0x60 SHL PUSH1 0x20 DUP1 DUP4 ADD SWAP2 SWAP1 SWAP2 MSTORE PUSH1 0x1 PUSH1 0x1 PUSH1 0xA0 SHL SUB DUP8 AND PUSH1 0x0 SWAP1 DUP2 MSTORE PUSH1 0x7 SWAP1 SWAP2 MSTORE SWAP2 SWAP1 SWAP2 KECCAK256 SLOAD PUSH3 0x2170 SWAP2 DUP5 SWAP1 PUSH3 0x1E8F JUMP JUMPDEST PUSH1 0x1 PUSH1 0x1 PUSH1 0xA0 SHL SUB DUP6 AND PUSH1 0x0 SWAP1 DUP2 MSTORE PUSH1 0x7 PUSH1 0x20 MSTORE PUSH1 0x40 DUP2 KECCAK256 SWAP2 SWAP1 SWAP2 SSTORE PUSH3 0x2197 DUP6 PUSH3 0x29F4 JUMP JUMPDEST PUSH3 0x21A3 JUMPI DUP3 PUSH3 0x21AF JUMP JUMPDEST PUSH3 0x21AF DUP6 DUP5 PUSH3 0x2A13 JUMP JUMPDEST PUSH1 0x1 PUSH1 0x1 PUSH1 0xA0 SHL SUB DUP6 AND PUSH1 0x0 SWAP1 DUP2 MSTORE PUSH1 0x7 PUSH1 0x20 MSTORE PUSH1 0x40 SWAP1 KECCAK256 SLOAD SWAP1 SWAP2 POP PUSH3 0x21D7 SWAP1 DUP3 PUSH3 0x2B25 JUMP JUMPDEST PUSH1 0x1 PUSH1 0x1 PUSH1 0xA0 SHL SUB DUP1 DUP7 AND PUSH1 0x0 SWAP1 DUP2 MSTORE PUSH1 0x7 PUSH1 0x20 SWAP1 DUP2 MSTORE PUSH1 0x40 DUP1 DUP4 KECCAK256 SWAP5 SWAP1 SWAP5 SSTORE SWAP2 DUP9 AND DUP2 MSTORE PUSH1 0xC SWAP1 SWAP2 MSTORE KECCAK256 SLOAD PUSH1 0xFF AND PUSH3 0x227E JUMPI PUSH1 0x1E SLOAD PUSH1 0x1 PUSH1 0x1 PUSH1 0xA0 SHL SUB DUP7 DUP2 AND PUSH1 0x0 DUP2 DUP2 MSTORE PUSH1 0x7 PUSH1 0x20 MSTORE PUSH1 0x40 DUP1 DUP3 KECCAK256 SLOAD DUP2 MLOAD PUSH4 0xA5B654B PUSH1 0xE1 SHL DUP2 MSTORE PUSH1 0x4 DUP2 ADD SWAP5 SWAP1 SWAP5 MSTORE PUSH1 0x24 DUP5 ADD MSTORE MLOAD SWAP3 SWAP1 SWAP4 AND SWAP3 PUSH4 0x14B6CA96 SWAP3 PUSH1 0x44 DUP1 DUP5 ADD SWAP4 DUP3 SWAP1 SUB ADD DUP2 DUP4 DUP8 DUP1 EXTCODESIZE ISZERO DUP1 ISZERO PUSH3 0x226A JUMPI PUSH1 0x0 DUP1 REVERT JUMPDEST POP GAS CALL SWAP3 POP POP POP DUP1 ISZERO PUSH3 0x227C JUMPI POP PUSH1 0x1 JUMPDEST POP JUMPDEST PUSH1 0x1 PUSH1 0x1 PUSH1 0xA0 SHL SUB DUP5 AND PUSH1 0x0 SWAP1 DUP2 MSTORE PUSH1 0xC PUSH1 0x20 MSTORE PUSH1 0x40 SWAP1 KECCAK256 SLOAD PUSH1 0xFF AND PUSH3 0x2312 JUMPI PUSH1 0x1E SLOAD PUSH1 0x1 PUSH1 0x1 PUSH1 0xA0 SHL SUB DUP6 DUP2 AND PUSH1 0x0 DUP2 DUP2 MSTORE PUSH1 0x7 PUSH1 0x20 MSTORE PUSH1 0x40 DUP1 DUP3 KECCAK256 SLOAD DUP2 MLOAD PUSH4 0xA5B654B PUSH1 0xE1 SHL DUP2 MSTORE PUSH1 0x4 DUP2 ADD SWAP5 SWAP1 SWAP5 MSTORE PUSH1 0x24 DUP5 ADD MSTORE MLOAD SWAP3 SWAP1 SWAP4 AND SWAP3 PUSH4 0x14B6CA96 SWAP3 PUSH1 0x44 DUP1 DUP5 ADD SWAP4 DUP3 SWAP1 SUB ADD DUP2 DUP4 DUP8 DUP1 EXTCODESIZE ISZERO DUP1 ISZERO PUSH3 0x22FE JUMPI PUSH1 0x0 DUP1 REVERT JUMPDEST POP GAS CALL SWAP3 POP POP POP DUP1 ISZERO PUSH3 0x2310 JUMPI POP PUSH1 0x1 JUMPDEST POP JUMPDEST PUSH1 0x1E SLOAD PUSH1 0x1F SLOAD PUSH1 0x40 DUP1 MLOAD PUSH1 0x1 PUSH3 0x4D3B87 PUSH1 0xE0 SHL SUB NOT DUP2 MSTORE PUSH1 0x4 DUP2 ADD SWAP3 SWAP1 SWAP3 MSTORE MLOAD PUSH1 0x1 PUSH1 0x1 PUSH1 0xA0 SHL SUB SWAP1 SWAP3 AND SWAP2 PUSH4 0xFFB2C479 SWAP2 PUSH1 0x24 DUP1 DUP3 ADD SWAP3 PUSH1 0x0 SWAP3 SWAP1 SWAP2 SWAP1 DUP3 SWAP1 SUB ADD DUP2 DUP4 DUP8 DUP1 EXTCODESIZE ISZERO DUP1 ISZERO PUSH3 0x2366 JUMPI PUSH1 0x0 DUP1 REVERT JUMPDEST POP GAS CALL SWAP3 POP POP POP DUP1 ISZERO PUSH3 0x2378 JUMPI POP PUSH1 0x1 JUMPDEST POP DUP4 PUSH1 0x1 PUSH1 0x1 PUSH1 0xA0 SHL SUB AND DUP6 PUSH1 0x1 PUSH1 0x1 PUSH1 0xA0 SHL SUB AND PUSH32 0xDDF252AD1BE2C89B69C2B068FC378DAA952BA7F163C4A11628F55A4DF523B3EF DUP4 PUSH1 0x40 MLOAD DUP1 DUP3 DUP2 MSTORE PUSH1 0x20 ADD SWAP2 POP POP PUSH1 0x40 MLOAD DUP1 SWAP2 SUB SWAP1 LOG3 POP PUSH1 0x1 SWAP5 SWAP4 POP POP POP POP JUMP JUMPDEST PUSH1 0x0 PUSH3 0x10FE DUP4 DUP4 PUSH1 0x40 MLOAD DUP1 PUSH1 0x40 ADD PUSH1 0x40 MSTORE DUP1 PUSH1 0x1E DUP2 MSTORE PUSH1 0x20 ADD PUSH32 0x536166654D6174683A207375627472616374696F6E206F766572666C6F770000 DUP2 MSTORE POP PUSH3 0x1E8F JUMP JUMPDEST PUSH1 0x40 DUP1 MLOAD DUP1 DUP3 ADD DUP3 MSTORE PUSH1 0x14 DUP2 MSTORE PUSH20 0x496E73756666696369656E742042616C616E6365 PUSH1 0x60 SHL PUSH1 0x20 DUP1 DUP4 ADD SWAP2 SWAP1 SWAP2 MSTORE PUSH1 0x1 PUSH1 0x1 PUSH1 0xA0 SHL SUB DUP7 AND PUSH1 0x0 SWAP1 DUP2 MSTORE PUSH1 0x7 SWAP1 SWAP2 MSTORE SWAP2 DUP3 KECCAK256 SLOAD PUSH3 0x2466 SWAP2 DUP5 SWAP1 PUSH3 0x1E8F JUMP JUMPDEST PUSH1 0x1 PUSH1 0x1 PUSH1 0xA0 SHL SUB DUP1 DUP7 AND PUSH1 0x0 SWAP1 DUP2 MSTORE PUSH1 0x7 PUSH1 0x20 MSTORE PUSH1 0x40 DUP1 DUP3 KECCAK256 SWAP4 SWAP1 SWAP4 SSTORE SWAP1 DUP6 AND DUP2 MSTORE KECCAK256 SLOAD PUSH3 0x2497 SWAP1 DUP4 PUSH3 0x2B25 JUMP JUMPDEST PUSH1 0x1 PUSH1 0x1 PUSH1 0xA0 SHL SUB DUP1 DUP6 AND PUSH1 0x0 DUP2 DUP2 MSTORE PUSH1 0x7 PUSH1 0x20 SWAP1 DUP2 MSTORE PUSH1 0x40 SWAP2 DUP3 SWAP1 KECCAK256 SWAP5 SWAP1 SWAP5 SSTORE DUP1 MLOAD DUP7 DUP2 MSTORE SWAP1 MLOAD SWAP2 SWAP4 SWAP3 DUP9 AND SWAP3 PUSH32 0xDDF252AD1BE2C89B69C2B068FC378DAA952BA7F163C4A11628F55A4DF523B3EF SWAP3 SWAP2 DUP3 SWAP1 SUB ADD SWAP1 LOG3 POP PUSH1 0x1 SWAP4 SWAP3 POP POP POP JUMP JUMPDEST PUSH1 0x0 DUP3 PUSH3 0x2509 JUMPI POP PUSH1 0x0 PUSH3 0xDA0 JUMP JUMPDEST DUP3 DUP3 MUL DUP3 DUP5 DUP3 DUP2 PUSH3 0x2517 JUMPI INVALID JUMPDEST DIV EQ PUSH3 0x10FE JUMPI PUSH1 0x40 MLOAD PUSH3 0x461BCD PUSH1 0xE5 SHL DUP2 MSTORE PUSH1 0x4 ADD DUP1 DUP1 PUSH1 0x20 ADD DUP3 DUP2 SUB DUP3 MSTORE PUSH1 0x21 DUP2 MSTORE PUSH1 0x20 ADD DUP1 PUSH3 0x3CFC PUSH1 0x21 SWAP2 CODECOPY PUSH1 0x40 ADD SWAP2 POP POP PUSH1 0x40 MLOAD DUP1 SWAP2 SUB SWAP1 REVERT JUMPDEST PUSH1 0x0 PUSH3 0x10FE DUP4 DUP4 PUSH1 0x40 MLOAD DUP1 PUSH1 0x40 ADD PUSH1 0x40 MSTORE DUP1 PUSH1 0x1A DUP2 MSTORE PUSH1 0x20 ADD PUSH32 0x536166654D6174683A206469766973696F6E206279207A65726F000000000000 DUP2 MSTORE POP PUSH3 0x2B80 JUMP JUMPDEST PUSH1 0x1D SLOAD PUSH1 0x0 SWAP1 PUSH1 0x1 PUSH1 0x1 PUSH1 0xA0 SHL SUB AND CALLER EQ DUP1 ISZERO SWAP1 PUSH3 0x25BC JUMPI POP PUSH1 0x22 SLOAD PUSH1 0xFF AND ISZERO JUMPDEST DUP1 ISZERO PUSH3 0x25CB JUMPI POP PUSH1 0x20 SLOAD PUSH1 0xFF AND JUMPDEST DUP1 ISZERO PUSH3 0x1151 JUMPI POP POP PUSH1 0x21 SLOAD ADDRESS PUSH1 0x0 SWAP1 DUP2 MSTORE PUSH1 0x7 PUSH1 0x20 MSTORE PUSH1 0x40 SWAP1 KECCAK256 SLOAD LT ISZERO SWAP1 JUMP JUMPDEST PUSH1 0x22 DUP1 SLOAD PUSH1 0xFF NOT AND PUSH1 0x1 OR SWAP1 SSTORE PUSH1 0x1A SLOAD PUSH1 0x1B SLOAD PUSH1 0x0 SWAP2 PUSH3 0x260D SWAP2 PUSH3 0xE0A JUMP JUMPDEST PUSH3 0x261B JUMPI PUSH1 0x15 SLOAD PUSH3 0x261E JUMP JUMPDEST PUSH1 0x0 JUMPDEST SWAP1 POP PUSH1 0x0 PUSH3 0x2646 PUSH1 0x2 PUSH3 0x19EB PUSH1 0xD SLOAD PUSH3 0x19EB DUP7 PUSH1 0x21 SLOAD PUSH3 0x24F8 SWAP1 SWAP2 SWAP1 PUSH4 0xFFFFFFFF AND JUMP JUMPDEST SWAP1 POP PUSH1 0x0 PUSH3 0x2661 DUP3 PUSH1 0x21 SLOAD PUSH3 0x23CF SWAP1 SWAP2 SWAP1 PUSH4 0xFFFFFFFF AND JUMP JUMPDEST PUSH1 0x40 DUP1 MLOAD PUSH1 0x2 DUP1 DUP3 MSTORE PUSH1 0x60 DUP1 DUP4 ADD DUP5 MSTORE SWAP4 SWAP5 POP SWAP1 SWAP2 PUSH1 0x20 DUP4 ADD SWAP1 DUP1 CALLDATASIZE DUP4 CALLDATACOPY ADD SWAP1 POP POP SWAP1 POP ADDRESS DUP2 PUSH1 0x0 DUP2 MLOAD DUP2 LT PUSH3 0x2694 JUMPI INVALID JUMPDEST PUSH1 0x1 PUSH1 0x1 PUSH1 0xA0 SHL SUB SWAP3 DUP4 AND PUSH1 0x20 SWAP2 DUP3 MUL SWAP3 SWAP1 SWAP3 ADD ADD MSTORE PUSH1 0x2 SLOAD DUP3 MLOAD SWAP2 AND SWAP1 DUP3 SWAP1 PUSH1 0x1 SWAP1 DUP2 LT PUSH3 0x26C0 JUMPI INVALID JUMPDEST PUSH1 0x1 PUSH1 0x1 PUSH1 0xA0 SHL SUB SWAP3 DUP4 AND PUSH1 0x20 SWAP2 DUP3 MUL SWAP3 SWAP1 SWAP3 ADD DUP2 ADD SWAP2 SWAP1 SWAP2 MSTORE PUSH1 0x1C SLOAD PUSH1 0x40 MLOAD PUSH4 0x791AC947 PUSH1 0xE0 SHL DUP2 MSTORE PUSH1 0x4 DUP2 ADD DUP7 DUP2 MSTORE PUSH1 0x0 PUSH1 0x24 DUP4 ADD DUP2 SWAP1 MSTORE ADDRESS PUSH1 0x64 DUP5 ADD DUP2 SWAP1 MSTORE TIMESTAMP PUSH1 0x84 DUP6 ADD DUP2 SWAP1 MSTORE PUSH1 0xA0 PUSH1 0x44 DUP7 ADD SWAP1 DUP2 MSTORE DUP10 MLOAD PUSH1 0xA4 DUP8 ADD MSTORE DUP10 MLOAD SELFBALANCE SWAP10 SWAP8 SWAP1 SWAP8 AND SWAP8 PUSH4 0x791AC947 SWAP8 DUP13 SWAP8 SWAP6 SWAP7 DUP13 SWAP7 SWAP1 SWAP4 SWAP3 PUSH1 0xC4 SWAP1 SWAP2 ADD SWAP2 DUP8 DUP3 ADD SWAP2 MUL DUP1 DUP4 DUP4 DUP12 JUMPDEST DUP4 DUP2 LT ISZERO PUSH3 0x275C JUMPI DUP2 DUP2 ADD MLOAD DUP4 DUP3 ADD MSTORE PUSH1 0x20 ADD PUSH3 0x2742 JUMP JUMPDEST POP POP POP POP SWAP1 POP ADD SWAP7 POP POP POP POP POP POP POP PUSH1 0x0 PUSH1 0x40 MLOAD DUP1 DUP4 SUB DUP2 PUSH1 0x0 DUP8 DUP1 EXTCODESIZE ISZERO DUP1 ISZERO PUSH3 0x2786 JUMPI PUSH1 0x0 DUP1 REVERT JUMPDEST POP GAS CALL ISZERO DUP1 ISZERO PUSH3 0x279B JUMPI RETURNDATASIZE PUSH1 0x0 DUP1 RETURNDATACOPY RETURNDATASIZE PUSH1 0x0 REVERT JUMPDEST POP POP POP POP PUSH1 0x0 PUSH3 0x27B6 DUP3 SELFBALANCE PUSH3 0x23CF SWAP1 SWAP2 SWAP1 PUSH4 0xFFFFFFFF AND JUMP JUMPDEST SWAP1 POP PUSH1 0x0 PUSH3 0x27D5 PUSH3 0x27CB DUP9 PUSH1 0x2 PUSH3 0x2556 JUMP JUMPDEST PUSH1 0xD SLOAD SWAP1 PUSH3 0x23CF JUMP JUMPDEST SWAP1 POP PUSH1 0x0 PUSH3 0x27ED PUSH1 0x2 PUSH3 0x19EB DUP5 DUP2 DUP8 DUP14 PUSH3 0x24F8 JUMP JUMPDEST SWAP1 POP PUSH1 0x0 PUSH3 0x280D DUP4 PUSH3 0x19EB PUSH1 0x16 SLOAD DUP8 PUSH3 0x24F8 SWAP1 SWAP2 SWAP1 PUSH4 0xFFFFFFFF AND JUMP JUMPDEST SWAP1 POP PUSH1 0x0 PUSH3 0x282D DUP5 PUSH3 0x19EB PUSH1 0x17 SLOAD DUP9 PUSH3 0x24F8 SWAP1 SWAP2 SWAP1 PUSH4 0xFFFFFFFF AND JUMP JUMPDEST SWAP1 POP PUSH1 0x1E PUSH1 0x0 SWAP1 SLOAD SWAP1 PUSH2 0x100 EXP SWAP1 DIV PUSH1 0x1 PUSH1 0x1 PUSH1 0xA0 SHL SUB AND PUSH1 0x1 PUSH1 0x1 PUSH1 0xA0 SHL SUB AND PUSH4 0xD0E30DB0 DUP4 PUSH1 0x40 MLOAD DUP3 PUSH4 0xFFFFFFFF AND PUSH1 0xE0 SHL DUP2 MSTORE PUSH1 0x4 ADD PUSH1 0x0 PUSH1 0x40 MLOAD DUP1 DUP4 SUB DUP2 DUP6 DUP9 DUP1 EXTCODESIZE ISZERO DUP1 ISZERO PUSH3 0x2880 JUMPI PUSH1 0x0 DUP1 REVERT JUMPDEST POP GAS CALL SWAP4 POP POP POP POP DUP1 ISZERO PUSH3 0x2893 JUMPI POP PUSH1 0x1 JUMPDEST POP PUSH1 0x19 SLOAD PUSH1 0x40 MLOAD PUSH1 0x0 SWAP2 PUSH1 0x1 PUSH1 0x1 PUSH1 0xA0 SHL SUB AND SWAP1 PUSH2 0x7530 SWAP1 DUP5 SWAP1 DUP5 DUP2 DUP2 DUP2 DUP6 DUP9 DUP9 CALL SWAP4 POP POP POP POP RETURNDATASIZE DUP1 PUSH1 0x0 DUP2 EQ PUSH3 0x28E8 JUMPI PUSH1 0x40 MLOAD SWAP2 POP PUSH1 0x1F NOT PUSH1 0x3F RETURNDATASIZE ADD AND DUP3 ADD PUSH1 0x40 MSTORE RETURNDATASIZE DUP3 MSTORE RETURNDATASIZE PUSH1 0x0 PUSH1 0x20 DUP5 ADD RETURNDATACOPY PUSH3 0x28ED JUMP JUMPDEST PUSH1 0x60 SWAP2 POP JUMPDEST POP PUSH1 0x0 SWAP3 POP POP DUP11 ISZERO SWAP1 POP PUSH3 0x29DD JUMPI PUSH1 0x1C SLOAD PUSH1 0x18 SLOAD PUSH1 0x40 DUP1 MLOAD PUSH4 0xF305D719 PUSH1 0xE0 SHL DUP2 MSTORE ADDRESS PUSH1 0x4 DUP3 ADD MSTORE PUSH1 0x24 DUP2 ADD DUP15 SWAP1 MSTORE PUSH1 0x0 PUSH1 0x44 DUP3 ADD DUP2 SWAP1 MSTORE PUSH1 0x64 DUP3 ADD MSTORE PUSH1 0x1 PUSH1 0x1 PUSH1 0xA0 SHL SUB SWAP3 DUP4 AND PUSH1 0x84 DUP3 ADD MSTORE TIMESTAMP PUSH1 0xA4 DUP3 ADD MSTORE SWAP1 MLOAD SWAP2 SWAP1 SWAP3 AND SWAP2 PUSH4 0xF305D719 SWAP2 DUP8 SWAP2 PUSH1 0xC4 DUP1 DUP3 ADD SWAP3 PUSH1 0x60 SWAP3 SWAP1 SWAP2 SWAP1 DUP3 SWAP1 SUB ADD DUP2 DUP6 DUP9 DUP1 EXTCODESIZE ISZERO DUP1 ISZERO PUSH3 0x2972 JUMPI PUSH1 0x0 DUP1 REVERT JUMPDEST POP GAS CALL ISZERO DUP1 ISZERO PUSH3 0x2987 JUMPI RETURNDATASIZE PUSH1 0x0 DUP1 RETURNDATACOPY RETURNDATASIZE PUSH1 0x0 REVERT JUMPDEST POP POP POP POP POP PUSH1 0x40 MLOAD RETURNDATASIZE PUSH1 0x60 DUP2 LT ISZERO PUSH3 0x299F JUMPI PUSH1 0x0 DUP1 REVERT JUMPDEST POP POP PUSH1 0x40 DUP1 MLOAD DUP6 DUP2 MSTORE PUSH1 0x20 DUP2 ADD DUP13 SWAP1 MSTORE DUP2 MLOAD PUSH32 0x424DB2872186FA7E7AFA7A5E902ED3B49A2EF19C2F5431E672462495DD6B4506 SWAP3 SWAP2 DUP2 SWAP1 SUB SWAP1 SWAP2 ADD SWAP1 LOG1 JUMPDEST POP POP PUSH1 0x22 DUP1 SLOAD PUSH1 0xFF NOT AND SWAP1 SSTORE POP POP POP POP POP POP POP POP POP JUMP JUMPDEST PUSH1 0x1 PUSH1 0x1 PUSH1 0xA0 SHL SUB AND PUSH1 0x0 SWAP1 DUP2 MSTORE PUSH1 0x9 PUSH1 0x20 MSTORE PUSH1 0x40 SWAP1 KECCAK256 SLOAD PUSH1 0xFF AND ISZERO SWAP1 JUMP JUMPDEST PUSH1 0x1D SLOAD PUSH1 0x0 SWAP1 PUSH1 0x1 PUSH1 0x1 PUSH1 0xA0 SHL SUB DUP5 DUP2 AND SWAP2 AND EQ ISZERO PUSH3 0x2A45 JUMPI PUSH1 0xF SLOAD PUSH1 0x15 SSTORE PUSH1 0x11 SLOAD PUSH1 0x17 SSTORE PUSH1 0x10 SLOAD PUSH1 0x16 SSTORE PUSH3 0x2A58 JUMP JUMPDEST PUSH1 0x12 SLOAD PUSH1 0x15 SSTORE PUSH1 0x14 SLOAD PUSH1 0x17 SSTORE PUSH1 0x13 SLOAD PUSH1 0x16 SSTORE JUMPDEST PUSH3 0x2A7F PUSH1 0x16 SLOAD PUSH3 0x2A78 PUSH1 0x17 SLOAD PUSH1 0x15 SLOAD PUSH3 0x2B25 SWAP1 SWAP2 SWAP1 PUSH4 0xFFFFFFFF AND JUMP JUMPDEST SWAP1 PUSH3 0x2B25 JUMP JUMPDEST PUSH1 0xD DUP2 SWAP1 SSTORE PUSH1 0xE SLOAD PUSH1 0x0 SWAP2 PUSH3 0x2A9D SWAP2 SWAP1 PUSH3 0x19EB SWAP1 DUP7 SWAP1 PUSH3 0x24F8 JUMP JUMPDEST ADDRESS PUSH1 0x0 SWAP1 DUP2 MSTORE PUSH1 0x7 PUSH1 0x20 MSTORE PUSH1 0x40 SWAP1 KECCAK256 SLOAD SWAP1 SWAP2 POP PUSH3 0x2ABC SWAP1 DUP3 PUSH3 0x2B25 JUMP JUMPDEST ADDRESS PUSH1 0x0 DUP2 DUP2 MSTORE PUSH1 0x7 PUSH1 0x20 SWAP1 DUP2 MSTORE PUSH1 0x40 SWAP2 DUP3 SWAP1 KECCAK256 SWAP4 SWAP1 SWAP4 SSTORE DUP1 MLOAD DUP5 DUP2 MSTORE SWAP1 MLOAD SWAP2 SWAP3 PUSH1 0x1 PUSH1 0x1 PUSH1 0xA0 SHL SUB DUP9 AND SWAP3 PUSH32 0xDDF252AD1BE2C89B69C2B068FC378DAA952BA7F163C4A11628F55A4DF523B3EF SWAP3 DUP2 SWAP1 SUB SWAP1 SWAP2 ADD SWAP1 LOG3 PUSH3 0x2B1D DUP4 DUP3 PUSH3 0x23CF JUMP JUMPDEST SWAP5 SWAP4 POP POP POP POP JUMP JUMPDEST PUSH1 0x0 DUP3 DUP3 ADD DUP4 DUP2 LT ISZERO PUSH3 0x10FE JUMPI PUSH1 0x40 DUP1 MLOAD PUSH3 0x461BCD PUSH1 0xE5 SHL DUP2 MSTORE PUSH1 0x20 PUSH1 0x4 DUP3 ADD MSTORE PUSH1 0x1B PUSH1 0x24 DUP3 ADD MSTORE PUSH32 0x536166654D6174683A206164646974696F6E206F766572666C6F770000000000 PUSH1 0x44 DUP3 ADD MSTORE SWAP1 MLOAD SWAP1 DUP2 SWAP1 SUB PUSH1 0x64 ADD SWAP1 REVERT JUMPDEST PUSH1 0x0 DUP2 DUP4 PUSH3 0x2BD2 JUMPI PUSH1 0x40 MLOAD PUSH3 0x461BCD PUSH1 0xE5 SHL DUP2 MSTORE PUSH1 0x20 PUSH1 0x4 DUP3 ADD DUP2 DUP2 MSTORE DUP4 MLOAD PUSH1 0x24 DUP5 ADD MSTORE DUP4 MLOAD SWAP1 SWAP3 DUP4 SWAP3 PUSH1 0x44 SWAP1 SWAP2 ADD SWAP2 SWAP1 DUP6 ADD SWAP1 DUP1 DUP4 DUP4 PUSH1 0x0 DUP4 ISZERO PUSH3 0x1EE6 JUMPI DUP2 DUP2 ADD MLOAD DUP4 DUP3 ADD MSTORE PUSH1 0x20 ADD PUSH3 0x1ECC JUMP JUMPDEST POP PUSH1 0x0 DUP4 DUP6 DUP2 PUSH3 0x2BDF JUMPI INVALID JUMPDEST DIV SWAP6 SWAP5 POP POP POP POP POP JUMP JUMPDEST PUSH2 0x10DC DUP1 PUSH3 0x2BF8 DUP4 CODECOPY ADD SWAP1 JUMP INVALID PUSH1 0x80 PUSH1 0x40 MSTORE PUSH1 0x2 DUP1 SLOAD PUSH1 0x1 PUSH1 0x1 PUSH1 0xA0 SHL SUB NOT AND PUSH20 0xBB4CDB9CBD36B01BD1CBAEBF2DE08D9173BC095C OR SWAP1 SSTORE PUSH15 0xC097CE7BC90715B34B9F1000000000 PUSH1 0xC SSTORE PUSH2 0x708 PUSH1 0xD SSTORE PUSH4 0x3B9ACA00 PUSH1 0xE SSTORE CALLVALUE DUP1 ISZERO PUSH2 0x57 JUMPI PUSH1 0x0 DUP1 REVERT JUMPDEST POP PUSH1 0x40 MLOAD PUSH2 0x10DC CODESIZE SUB DUP1 PUSH2 0x10DC DUP4 CODECOPY DUP2 DUP2 ADD PUSH1 0x40 MSTORE PUSH1 0x40 DUP2 LT ISZERO PUSH2 0x7A JUMPI PUSH1 0x0 DUP1 REVERT JUMPDEST POP DUP1 MLOAD PUSH1 0x20 SWAP1 SWAP2 ADD MLOAD PUSH1 0x1 PUSH1 0x1 PUSH1 0xA0 SHL SUB DUP3 AND PUSH2 0xAB JUMPI PUSH20 0x10ED43C718714EB63D5AA57B78B54704E256024E PUSH2 0xAD JUMP JUMPDEST DUP2 JUMPDEST PUSH1 0x3 DUP1 SLOAD PUSH1 0x1 PUSH1 0x1 PUSH1 0xA0 SHL SUB SWAP3 DUP4 AND PUSH1 0x1 PUSH1 0x1 PUSH1 0xA0 SHL SUB NOT SWAP2 DUP3 AND OR SWAP1 SWAP2 SSTORE PUSH1 0x0 DUP1 SLOAD DUP3 AND CALLER OR SWAP1 SSTORE PUSH1 0x1 DUP1 SLOAD SWAP4 SWAP1 SWAP3 AND SWAP3 AND SWAP2 SWAP1 SWAP2 OR SWAP1 SSTORE POP PUSH2 0xFE6 DUP1 PUSH2 0xF6 PUSH1 0x0 CODECOPY PUSH1 0x0 RETURN INVALID PUSH1 0x80 PUSH1 0x40 MSTORE PUSH1 0x4 CALLDATASIZE LT PUSH2 0x114 JUMPI PUSH1 0x0 CALLDATALOAD PUSH1 0xE0 SHR DUP1 PUSH4 0xCAB34C08 GT PUSH2 0xA0 JUMPI DUP1 PUSH4 0xEFCA2EED GT PUSH2 0x64 JUMPI DUP1 PUSH4 0xEFCA2EED EQ PUSH2 0x319 JUMPI DUP1 PUSH4 0xF0FC6BCA EQ PUSH2 0x32E JUMPI DUP1 PUSH4 0xF887EA40 EQ PUSH2 0x343 JUMPI DUP1 PUSH4 0xFFB2C479 EQ PUSH2 0x358 JUMPI DUP1 PUSH4 0xFFD49C84 EQ PUSH2 0x382 JUMPI PUSH2 0x114 JUMP JUMPDEST DUP1 PUSH4 0xCAB34C08 EQ PUSH2 0x281 JUMPI DUP1 PUSH4 0xCE7C2AC2 EQ PUSH2 0x296 JUMPI DUP1 PUSH4 0xD0E30DB0 EQ PUSH2 0x2E7 JUMPI DUP1 PUSH4 0xE2D2E219 EQ PUSH2 0x2EF JUMPI DUP1 PUSH4 0xECD0C0C3 EQ PUSH2 0x304 JUMPI PUSH2 0x114 JUMP JUMPDEST DUP1 PUSH4 0x3A98EF39 GT PUSH2 0xE7 JUMPI DUP1 PUSH4 0x3A98EF39 EQ PUSH2 0x1DE JUMPI DUP1 PUSH4 0x4FAB0AE8 EQ PUSH2 0x1F3 JUMPI DUP1 PUSH4 0x8DD95002 EQ PUSH2 0x208 JUMPI DUP1 PUSH4 0x997664D7 EQ PUSH2 0x239 JUMPI DUP1 PUSH4 0xA6871BC3 EQ PUSH2 0x24E JUMPI PUSH2 0x114 JUMP JUMPDEST DUP1 PUSH4 0x11CE023D EQ PUSH2 0x119 JUMPI DUP1 PUSH4 0x14B6CA96 EQ PUSH2 0x140 JUMPI DUP1 PUSH4 0x28FD3198 EQ PUSH2 0x17B JUMPI DUP1 PUSH4 0x2D48E896 EQ PUSH2 0x1AE JUMPI JUMPDEST PUSH1 0x0 DUP1 REVERT JUMPDEST CALLVALUE DUP1 ISZERO PUSH2 0x125 JUMPI PUSH1 0x0 DUP1 REVERT JUMPDEST POP PUSH2 0x12E PUSH2 0x397 JUMP JUMPDEST PUSH1 0x40 DUP1 MLOAD SWAP2 DUP3 MSTORE MLOAD SWAP1 DUP2 SWAP1 SUB PUSH1 0x20 ADD SWAP1 RETURN JUMPDEST CALLVALUE DUP1 ISZERO PUSH2 0x14C JUMPI PUSH1 0x0 DUP1 REVERT JUMPDEST POP PUSH2 0x179 PUSH1 0x4 DUP1 CALLDATASIZE SUB PUSH1 0x40 DUP2 LT ISZERO PUSH2 0x163 JUMPI PUSH1 0x0 DUP1 REVERT JUMPDEST POP PUSH1 0x1 PUSH1 0x1 PUSH1 0xA0 SHL SUB DUP2 CALLDATALOAD AND SWAP1 PUSH1 0x20 ADD CALLDATALOAD PUSH2 0x39D JUMP JUMPDEST STOP JUMPDEST CALLVALUE DUP1 ISZERO PUSH2 0x187 JUMPI PUSH1 0x0 DUP1 REVERT JUMPDEST POP PUSH2 0x12E PUSH1 0x4 DUP1 CALLDATASIZE SUB PUSH1 0x20 DUP2 LT ISZERO PUSH2 0x19E JUMPI PUSH1 0x0 DUP1 REVERT JUMPDEST POP CALLDATALOAD PUSH1 0x1 PUSH1 0x1 PUSH1 0xA0 SHL SUB AND PUSH2 0x4C2 JUMP JUMPDEST CALLVALUE DUP1 ISZERO PUSH2 0x1BA JUMPI PUSH1 0x0 DUP1 REVERT JUMPDEST POP PUSH2 0x179 PUSH1 0x4 DUP1 CALLDATASIZE SUB PUSH1 0x40 DUP2 LT ISZERO PUSH2 0x1D1 JUMPI PUSH1 0x0 DUP1 REVERT JUMPDEST POP DUP1 CALLDATALOAD SWAP1 PUSH1 0x20 ADD CALLDATALOAD PUSH2 0x54E JUMP JUMPDEST CALLVALUE DUP1 ISZERO PUSH2 0x1EA JUMPI PUSH1 0x0 DUP1 REVERT JUMPDEST POP PUSH2 0x12E PUSH2 0x570 JUMP JUMPDEST CALLVALUE DUP1 ISZERO PUSH2 0x1FF JUMPI PUSH1 0x0 DUP1 REVERT JUMPDEST POP PUSH2 0x12E PUSH2 0x576 JUMP JUMPDEST CALLVALUE DUP1 ISZERO PUSH2 0x214 JUMPI PUSH1 0x0 DUP1 REVERT JUMPDEST POP PUSH2 0x21D PUSH2 0x57C JUMP JUMPDEST PUSH1 0x40 DUP1 MLOAD PUSH1 0x1 PUSH1 0x1 PUSH1 0xA0 SHL SUB SWAP1 SWAP3 AND DUP3 MSTORE MLOAD SWAP1 DUP2 SWAP1 SUB PUSH1 0x20 ADD SWAP1 RETURN JUMPDEST CALLVALUE DUP1 ISZERO PUSH2 0x245 JUMPI PUSH1 0x0 DUP1 REVERT JUMPDEST POP PUSH2 0x12E PUSH2 0x58B JUMP JUMPDEST CALLVALUE DUP1 ISZERO PUSH2 0x25A JUMPI PUSH1 0x0 DUP1 REVERT JUMPDEST POP PUSH2 0x179 PUSH1 0x4 DUP1 CALLDATASIZE SUB PUSH1 0x20 DUP2 LT ISZERO PUSH2 0x271 JUMPI PUSH1 0x0 DUP1 REVERT JUMPDEST POP CALLDATALOAD PUSH1 0x1 PUSH1 0x1 PUSH1 0xA0 SHL SUB AND PUSH2 0x591 JUMP JUMPDEST CALLVALUE DUP1 ISZERO PUSH2 0x28D JUMPI PUSH1 0x0 DUP1 REVERT JUMPDEST POP PUSH2 0x21D PUSH2 0x6A7 JUMP JUMPDEST CALLVALUE DUP1 ISZERO PUSH2 0x2A2 JUMPI PUSH1 0x0 DUP1 REVERT JUMPDEST POP PUSH2 0x2C9 PUSH1 0x4 DUP1 CALLDATASIZE SUB PUSH1 0x20 DUP2 LT ISZERO PUSH2 0x2B9 JUMPI PUSH1 0x0 DUP1 REVERT JUMPDEST POP CALLDATALOAD PUSH1 0x1 PUSH1 0x1 PUSH1 0xA0 SHL SUB AND PUSH2 0x6B6 JUMP JUMPDEST PUSH1 0x40 DUP1 MLOAD SWAP4 DUP5 MSTORE PUSH1 0x20 DUP5 ADD SWAP3 SWAP1 SWAP3 MSTORE DUP3 DUP3 ADD MSTORE MLOAD SWAP1 DUP2 SWAP1 SUB PUSH1 0x60 ADD SWAP1 RETURN JUMPDEST PUSH2 0x179 PUSH2 0x6D7 JUMP JUMPDEST CALLVALUE DUP1 ISZERO PUSH2 0x2FB JUMPI PUSH1 0x0 DUP1 REVERT JUMPDEST POP PUSH2 0x12E PUSH2 0x967 JUMP JUMPDEST CALLVALUE DUP1 ISZERO PUSH2 0x310 JUMPI PUSH1 0x0 DUP1 REVERT JUMPDEST POP PUSH2 0x21D PUSH2 0x96D JUMP JUMPDEST CALLVALUE DUP1 ISZERO PUSH2 0x325 JUMPI PUSH1 0x0 DUP1 REVERT JUMPDEST POP PUSH2 0x12E PUSH2 0x97C JUMP JUMPDEST CALLVALUE DUP1 ISZERO PUSH2 0x33A JUMPI PUSH1 0x0 DUP1 REVERT JUMPDEST POP PUSH2 0x179 PUSH2 0x982 JUMP JUMPDEST CALLVALUE DUP1 ISZERO PUSH2 0x34F JUMPI PUSH1 0x0 DUP1 REVERT JUMPDEST POP PUSH2 0x21D PUSH2 0x98D JUMP JUMPDEST CALLVALUE DUP1 ISZERO PUSH2 0x364 JUMPI PUSH1 0x0 DUP1 REVERT JUMPDEST POP PUSH2 0x179 PUSH1 0x4 DUP1 CALLDATASIZE SUB PUSH1 0x20 DUP2 LT ISZERO PUSH2 0x37B JUMPI PUSH1 0x0 DUP1 REVERT JUMPDEST POP CALLDATALOAD PUSH2 0x99C JUMP JUMPDEST CALLVALUE DUP1 ISZERO PUSH2 0x38E JUMPI PUSH1 0x0 DUP1 REVERT JUMPDEST POP PUSH2 0x12E PUSH2 0xA7E JUMP JUMPDEST PUSH1 0xC SLOAD DUP2 JUMP JUMPDEST PUSH1 0x0 SLOAD PUSH1 0x1 PUSH1 0x1 PUSH1 0xA0 SHL SUB AND CALLER EQ PUSH2 0x3B4 JUMPI PUSH1 0x0 DUP1 REVERT JUMPDEST PUSH1 0x1 PUSH1 0x1 PUSH1 0xA0 SHL SUB DUP3 AND PUSH1 0x0 SWAP1 DUP2 MSTORE PUSH1 0x7 PUSH1 0x20 MSTORE PUSH1 0x40 SWAP1 KECCAK256 SLOAD ISZERO PUSH2 0x3DB JUMPI PUSH2 0x3DB DUP3 PUSH2 0xA84 JUMP JUMPDEST PUSH1 0x0 DUP2 GT DUP1 ISZERO PUSH2 0x401 JUMPI POP PUSH1 0x1 PUSH1 0x1 PUSH1 0xA0 SHL SUB DUP3 AND PUSH1 0x0 SWAP1 DUP2 MSTORE PUSH1 0x7 PUSH1 0x20 MSTORE PUSH1 0x40 SWAP1 KECCAK256 SLOAD ISZERO JUMPDEST ISZERO PUSH2 0x414 JUMPI PUSH2 0x40F DUP3 PUSH2 0xBAC JUMP JUMPDEST PUSH2 0x447 JUMP JUMPDEST DUP1 ISZERO DUP1 ISZERO PUSH2 0x439 JUMPI POP PUSH1 0x1 PUSH1 0x1 PUSH1 0xA0 SHL SUB DUP3 AND PUSH1 0x0 SWAP1 DUP2 MSTORE PUSH1 0x7 PUSH1 0x20 MSTORE PUSH1 0x40 SWAP1 KECCAK256 SLOAD ISZERO ISZERO JUMPDEST ISZERO PUSH2 0x447 JUMPI PUSH2 0x447 DUP3 PUSH2 0xC0D JUMP JUMPDEST PUSH1 0x1 PUSH1 0x1 PUSH1 0xA0 SHL SUB DUP3 AND PUSH1 0x0 SWAP1 DUP2 MSTORE PUSH1 0x7 PUSH1 0x20 MSTORE PUSH1 0x40 SWAP1 KECCAK256 SLOAD PUSH1 0x8 SLOAD PUSH2 0x478 SWAP2 DUP4 SWAP2 PUSH2 0x472 SWAP2 PUSH2 0xCFA JUMP JUMPDEST SWAP1 PUSH2 0xD45 JUMP JUMPDEST PUSH1 0x8 SSTORE PUSH1 0x1 PUSH1 0x1 PUSH1 0xA0 SHL SUB DUP3 AND PUSH1 0x0 SWAP1 DUP2 MSTORE PUSH1 0x7 PUSH1 0x20 MSTORE PUSH1 0x40 SWAP1 KECCAK256 DUP2 SWAP1 SSTORE PUSH2 0x49F DUP2 PUSH2 0xD9F JUMP JUMPDEST PUSH1 0x1 PUSH1 0x1 PUSH1 0xA0 SHL SUB SWAP1 SWAP3 AND PUSH1 0x0 SWAP1 DUP2 MSTORE PUSH1 0x7 PUSH1 0x20 MSTORE PUSH1 0x40 SWAP1 KECCAK256 PUSH1 0x1 ADD SWAP2 SWAP1 SWAP2 SSTORE POP JUMP JUMPDEST PUSH1 0x1 PUSH1 0x1 PUSH1 0xA0 SHL SUB DUP2 AND PUSH1 0x0 SWAP1 DUP2 MSTORE PUSH1 0x7 PUSH1 0x20 MSTORE PUSH1 0x40 DUP2 KECCAK256 SLOAD PUSH2 0x4E7 JUMPI POP PUSH1 0x0 PUSH2 0x549 JUMP JUMPDEST PUSH1 0x1 PUSH1 0x1 PUSH1 0xA0 SHL SUB DUP3 AND PUSH1 0x0 SWAP1 DUP2 MSTORE PUSH1 0x7 PUSH1 0x20 MSTORE PUSH1 0x40 DUP2 KECCAK256 SLOAD PUSH2 0x509 SWAP1 PUSH2 0xD9F JUMP JUMPDEST PUSH1 0x1 PUSH1 0x1 PUSH1 0xA0 SHL SUB DUP5 AND PUSH1 0x0 SWAP1 DUP2 MSTORE PUSH1 0x7 PUSH1 0x20 MSTORE PUSH1 0x40 SWAP1 KECCAK256 PUSH1 0x1 ADD SLOAD SWAP1 SWAP2 POP DUP1 DUP3 GT PUSH2 0x53A JUMPI PUSH1 0x0 SWAP3 POP POP POP PUSH2 0x549 JUMP JUMPDEST PUSH2 0x544 DUP3 DUP3 PUSH2 0xCFA JUMP JUMPDEST SWAP3 POP POP POP JUMPDEST SWAP2 SWAP1 POP JUMP JUMPDEST PUSH1 0x0 SLOAD PUSH1 0x1 PUSH1 0x1 PUSH1 0xA0 SHL SUB AND CALLER EQ PUSH2 0x565 JUMPI PUSH1 0x0 DUP1 REVERT JUMPDEST PUSH1 0xD SWAP2 SWAP1 SWAP2 SSTORE PUSH1 0xE SSTORE JUMP JUMPDEST PUSH1 0x8 SLOAD DUP2 JUMP JUMPDEST PUSH1 0xE SLOAD DUP2 JUMP JUMPDEST PUSH1 0x2 SLOAD PUSH1 0x1 PUSH1 0x1 PUSH1 0xA0 SHL SUB AND DUP2 JUMP JUMPDEST PUSH1 0x9 SLOAD DUP2 JUMP JUMPDEST PUSH1 0x0 SLOAD PUSH1 0x1 PUSH1 0x1 PUSH1 0xA0 SHL SUB AND CALLER EQ PUSH2 0x5A8 JUMPI PUSH1 0x0 DUP1 REVERT JUMPDEST PUSH1 0x1 SLOAD PUSH1 0x40 DUP1 MLOAD PUSH4 0x70A08231 PUSH1 0xE0 SHL DUP2 MSTORE ADDRESS PUSH1 0x4 DUP3 ADD MSTORE SWAP1 MLOAD PUSH1 0x0 SWAP3 PUSH1 0x1 PUSH1 0x1 PUSH1 0xA0 SHL SUB AND SWAP2 PUSH4 0x70A08231 SWAP2 PUSH1 0x24 DUP1 DUP4 ADD SWAP3 PUSH1 0x20 SWAP3 SWAP2 SWAP1 DUP3 SWAP1 SUB ADD DUP2 DUP7 DUP1 EXTCODESIZE ISZERO DUP1 ISZERO PUSH2 0x5F3 JUMPI PUSH1 0x0 DUP1 REVERT JUMPDEST POP GAS STATICCALL ISZERO DUP1 ISZERO PUSH2 0x607 JUMPI RETURNDATASIZE PUSH1 0x0 DUP1 RETURNDATACOPY RETURNDATASIZE PUSH1 0x0 REVERT JUMPDEST POP POP POP POP PUSH1 0x40 MLOAD RETURNDATASIZE PUSH1 0x20 DUP2 LT ISZERO PUSH2 0x61D JUMPI PUSH1 0x0 DUP1 REVERT JUMPDEST POP MLOAD PUSH1 0x1 SLOAD PUSH1 0x40 DUP1 MLOAD PUSH4 0xA9059CBB PUSH1 0xE0 SHL DUP2 MSTORE PUSH1 0x1 PUSH1 0x1 PUSH1 0xA0 SHL SUB DUP7 DUP2 AND PUSH1 0x4 DUP4 ADD MSTORE PUSH1 0x24 DUP3 ADD DUP6 SWAP1 MSTORE SWAP2 MLOAD SWAP4 SWAP5 POP SWAP2 AND SWAP2 PUSH4 0xA9059CBB SWAP2 PUSH1 0x44 DUP1 DUP3 ADD SWAP3 PUSH1 0x20 SWAP3 SWAP1 SWAP2 SWAP1 DUP3 SWAP1 SUB ADD DUP2 PUSH1 0x0 DUP8 DUP1 EXTCODESIZE ISZERO DUP1 ISZERO PUSH2 0x677 JUMPI PUSH1 0x0 DUP1 REVERT JUMPDEST POP GAS CALL ISZERO DUP1 ISZERO PUSH2 0x68B JUMPI RETURNDATASIZE PUSH1 0x0 DUP1 RETURNDATACOPY RETURNDATASIZE PUSH1 0x0 REVERT JUMPDEST POP POP POP POP PUSH1 0x40 MLOAD RETURNDATASIZE PUSH1 0x20 DUP2 LT ISZERO PUSH2 0x6A1 JUMPI PUSH1 0x0 DUP1 REVERT JUMPDEST POP POP POP POP JUMP JUMPDEST PUSH1 0x1 SLOAD PUSH1 0x1 PUSH1 0x1 PUSH1 0xA0 SHL SUB AND DUP2 JUMP JUMPDEST PUSH1 0x7 PUSH1 0x20 MSTORE PUSH1 0x0 SWAP1 DUP2 MSTORE PUSH1 0x40 SWAP1 KECCAK256 DUP1 SLOAD PUSH1 0x1 DUP3 ADD SLOAD PUSH1 0x2 SWAP1 SWAP3 ADD SLOAD SWAP1 SWAP2 SWAP1 DUP4 JUMP JUMPDEST PUSH1 0x0 SLOAD PUSH1 0x1 PUSH1 0x1 PUSH1 0xA0 SHL SUB AND CALLER EQ PUSH2 0x6EE JUMPI PUSH1 0x0 DUP1 REVERT JUMPDEST PUSH1 0x1 SLOAD PUSH1 0x40 DUP1 MLOAD PUSH4 0x70A08231 PUSH1 0xE0 SHL DUP2 MSTORE ADDRESS PUSH1 0x4 DUP3 ADD MSTORE SWAP1 MLOAD PUSH1 0x0 SWAP3 PUSH1 0x1 PUSH1 0x1 PUSH1 0xA0 SHL SUB AND SWAP2 PUSH4 0x70A08231 SWAP2 PUSH1 0x24 DUP1 DUP4 ADD SWAP3 PUSH1 0x20 SWAP3 SWAP2 SWAP1 DUP3 SWAP1 SUB ADD DUP2 DUP7 DUP1 EXTCODESIZE ISZERO DUP1 ISZERO PUSH2 0x739 JUMPI PUSH1 0x0 DUP1 REVERT JUMPDEST POP GAS STATICCALL ISZERO DUP1 ISZERO PUSH2 0x74D JUMPI RETURNDATASIZE PUSH1 0x0 DUP1 RETURNDATACOPY RETURNDATASIZE PUSH1 0x0 REVERT JUMPDEST POP POP POP POP PUSH1 0x40 MLOAD RETURNDATASIZE PUSH1 0x20 DUP2 LT ISZERO PUSH2 0x763 JUMPI PUSH1 0x0 DUP1 REVERT JUMPDEST POP MLOAD PUSH1 0x40 DUP1 MLOAD PUSH1 0x2 DUP1 DUP3 MSTORE PUSH1 0x60 DUP1 DUP4 ADD DUP5 MSTORE SWAP4 SWAP5 POP SWAP1 SWAP2 PUSH1 0x20 DUP4 ADD SWAP1 DUP1 CALLDATASIZE DUP4 CALLDATACOPY POP POP PUSH1 0x2 SLOAD DUP3 MLOAD SWAP3 SWAP4 POP PUSH1 0x1 PUSH1 0x1 PUSH1 0xA0 SHL SUB AND SWAP2 DUP4 SWAP2 POP PUSH1 0x0 SWAP1 PUSH2 0x7A3 JUMPI INVALID JUMPDEST PUSH1 0x1 PUSH1 0x1 PUSH1 0xA0 SHL SUB SWAP3 DUP4 AND PUSH1 0x20 SWAP2 DUP3 MUL SWAP3 SWAP1 SWAP3 ADD ADD MSTORE PUSH1 0x1 DUP1 SLOAD DUP4 MLOAD SWAP3 AND SWAP2 DUP4 SWAP2 SWAP1 DUP2 LT PUSH2 0x7CD JUMPI INVALID JUMPDEST PUSH1 0x1 PUSH1 0x1 PUSH1 0xA0 SHL SUB SWAP3 DUP4 AND PUSH1 0x20 SWAP2 DUP3 MUL SWAP3 SWAP1 SWAP3 ADD DUP2 ADD SWAP2 SWAP1 SWAP2 MSTORE PUSH1 0x3 SLOAD PUSH1 0x40 MLOAD PUSH4 0xB6F9DE95 PUSH1 0xE0 SHL DUP2 MSTORE PUSH1 0x0 PUSH1 0x4 DUP3 ADD DUP2 DUP2 MSTORE ADDRESS PUSH1 0x44 DUP5 ADD DUP2 SWAP1 MSTORE TIMESTAMP PUSH1 0x64 DUP6 ADD DUP2 SWAP1 MSTORE PUSH1 0x80 PUSH1 0x24 DUP7 ADD SWAP1 DUP2 MSTORE DUP10 MLOAD PUSH1 0x84 DUP8 ADD MSTORE DUP10 MLOAD SWAP7 SWAP1 SWAP9 AND SWAP8 PUSH4 0xB6F9DE95 SWAP8 CALLVALUE SWAP8 SWAP6 SWAP7 DUP12 SWAP7 SWAP5 SWAP6 SWAP4 SWAP5 PUSH1 0xA4 SWAP1 SWAP2 ADD SWAP2 DUP8 DUP2 ADD SWAP2 MUL DUP1 DUP4 DUP4 DUP12 JUMPDEST DUP4 DUP2 LT ISZERO PUSH2 0x85F JUMPI DUP2 DUP2 ADD MLOAD DUP4 DUP3 ADD MSTORE PUSH1 0x20 ADD PUSH2 0x847 JUMP JUMPDEST POP POP POP POP SWAP1 POP ADD SWAP6 POP POP POP POP POP POP PUSH1 0x0 PUSH1 0x40 MLOAD DUP1 DUP4 SUB DUP2 DUP6 DUP9 DUP1 EXTCODESIZE ISZERO DUP1 ISZERO PUSH2 0x886 JUMPI PUSH1 0x0 DUP1 REVERT JUMPDEST POP GAS CALL ISZERO DUP1 ISZERO PUSH2 0x89A JUMPI RETURNDATASIZE PUSH1 0x0 DUP1 RETURNDATACOPY RETURNDATASIZE PUSH1 0x0 REVERT JUMPDEST POP POP PUSH1 0x1 SLOAD PUSH1 0x40 DUP1 MLOAD PUSH4 0x70A08231 PUSH1 0xE0 SHL DUP2 MSTORE ADDRESS PUSH1 0x4 DUP3 ADD MSTORE SWAP1 MLOAD PUSH1 0x0 SWAP6 POP PUSH2 0x925 SWAP5 POP DUP8 SWAP4 POP PUSH1 0x1 PUSH1 0x1 PUSH1 0xA0 SHL SUB SWAP1 SWAP3 AND SWAP2 PUSH4 0x70A08231 SWAP2 PUSH1 0x24 DUP1 DUP3 ADD SWAP3 PUSH1 0x20 SWAP3 SWAP1 SWAP2 SWAP1 DUP3 SWAP1 SUB ADD DUP2 DUP7 DUP1 EXTCODESIZE ISZERO DUP1 ISZERO PUSH2 0x8F3 JUMPI PUSH1 0x0 DUP1 REVERT JUMPDEST POP GAS STATICCALL ISZERO DUP1 ISZERO PUSH2 0x907 JUMPI RETURNDATASIZE PUSH1 0x0 DUP1 RETURNDATACOPY RETURNDATASIZE PUSH1 0x0 REVERT JUMPDEST POP POP POP POP PUSH1 0x40 MLOAD RETURNDATASIZE PUSH1 0x20 DUP2 LT ISZERO PUSH2 0x91D JUMPI PUSH1 0x0 DUP1 REVERT JUMPDEST POP MLOAD SWAP1 PUSH2 0xCFA JUMP JUMPDEST PUSH1 0x9 SLOAD SWAP1 SWAP2 POP PUSH2 0x935 SWAP1 DUP3 PUSH2 0xD45 JUMP JUMPDEST PUSH1 0x9 SSTORE PUSH1 0x8 SLOAD PUSH1 0xC SLOAD PUSH2 0x95F SWAP2 PUSH2 0x956 SWAP2 PUSH2 0x950 SWAP1 DUP6 PUSH2 0xDBC JUMP JUMPDEST SWAP1 PUSH2 0xE15 JUMP JUMPDEST PUSH1 0xB SLOAD SWAP1 PUSH2 0xD45 JUMP JUMPDEST PUSH1 0xB SSTORE POP POP POP JUMP JUMPDEST PUSH1 0xB SLOAD DUP2 JUMP JUMPDEST PUSH1 0x0 SLOAD PUSH1 0x1 PUSH1 0x1 PUSH1 0xA0 SHL SUB AND DUP2 JUMP JUMPDEST PUSH1 0xA SLOAD DUP2 JUMP JUMPDEST PUSH2 0x98B CALLER PUSH2 0xA84 JUMP JUMPDEST JUMP JUMPDEST PUSH1 0x3 SLOAD PUSH1 0x1 PUSH1 0x1 PUSH1 0xA0 SHL SUB AND DUP2 JUMP JUMPDEST PUSH1 0x0 SLOAD PUSH1 0x1 PUSH1 0x1 PUSH1 0xA0 SHL SUB AND CALLER EQ PUSH2 0x9B3 JUMPI PUSH1 0x0 DUP1 REVERT JUMPDEST PUSH1 0x4 SLOAD DUP1 PUSH2 0x9C1 JUMPI POP PUSH2 0xA7B JUMP JUMPDEST PUSH1 0x0 DUP1 GAS SWAP1 POP PUSH1 0x0 JUMPDEST DUP5 DUP4 LT DUP1 ISZERO PUSH2 0x9D8 JUMPI POP DUP4 DUP2 LT JUMPDEST ISZERO PUSH2 0xA76 JUMPI DUP4 PUSH1 0xF SLOAD LT PUSH2 0x9EC JUMPI PUSH1 0x0 PUSH1 0xF SSTORE JUMPDEST PUSH2 0xA18 PUSH1 0x4 PUSH1 0xF SLOAD DUP2 SLOAD DUP2 LT PUSH2 0x9FE JUMPI INVALID JUMPDEST PUSH1 0x0 SWAP2 DUP3 MSTORE PUSH1 0x20 SWAP1 SWAP2 KECCAK256 ADD SLOAD PUSH1 0x1 PUSH1 0x1 PUSH1 0xA0 SHL SUB AND PUSH2 0xE57 JUMP JUMPDEST ISZERO PUSH2 0xA49 JUMPI PUSH2 0xA49 PUSH1 0x4 PUSH1 0xF SLOAD DUP2 SLOAD DUP2 LT PUSH2 0xA2F JUMPI INVALID JUMPDEST PUSH1 0x0 SWAP2 DUP3 MSTORE PUSH1 0x20 SWAP1 SWAP2 KECCAK256 ADD SLOAD PUSH1 0x1 PUSH1 0x1 PUSH1 0xA0 SHL SUB AND PUSH2 0xA84 JUMP JUMPDEST PUSH2 0xA5E PUSH2 0xA57 GAS DUP5 SWAP1 PUSH2 0xCFA JUMP JUMPDEST DUP5 SWAP1 PUSH2 0xD45 JUMP JUMPDEST SWAP3 POP GAS PUSH1 0xF DUP1 SLOAD PUSH1 0x1 SWAP1 DUP2 ADD SWAP1 SWAP2 SSTORE SWAP1 SWAP3 POP ADD PUSH2 0x9CA JUMP JUMPDEST POP POP POP POP JUMPDEST POP JUMP JUMPDEST PUSH1 0xD SLOAD DUP2 JUMP JUMPDEST PUSH1 0x1 PUSH1 0x1 PUSH1 0xA0 SHL SUB DUP2 AND PUSH1 0x0 SWAP1 DUP2 MSTORE PUSH1 0x7 PUSH1 0x20 MSTORE PUSH1 0x40 SWAP1 KECCAK256 SLOAD PUSH2 0xAA6 JUMPI PUSH2 0xA7B JUMP JUMPDEST PUSH1 0x0 PUSH2 0xAB1 DUP3 PUSH2 0x4C2 JUMP JUMPDEST SWAP1 POP DUP1 ISZERO PUSH2 0xBA8 JUMPI PUSH1 0xA SLOAD PUSH2 0xAC6 SWAP1 DUP3 PUSH2 0xD45 JUMP JUMPDEST PUSH1 0xA SSTORE PUSH1 0x1 SLOAD PUSH1 0x40 DUP1 MLOAD PUSH4 0xA9059CBB PUSH1 0xE0 SHL DUP2 MSTORE PUSH1 0x1 PUSH1 0x1 PUSH1 0xA0 SHL SUB DUP6 DUP2 AND PUSH1 0x4 DUP4 ADD MSTORE PUSH1 0x24 DUP3 ADD DUP6 SWAP1 MSTORE SWAP2 MLOAD SWAP2 SWAP1 SWAP3 AND SWAP2 PUSH4 0xA9059CBB SWAP2 PUSH1 0x44 DUP1 DUP4 ADD SWAP3 PUSH1 0x20 SWAP3 SWAP2 SWAP1 DUP3 SWAP1 SUB ADD DUP2 PUSH1 0x0 DUP8 DUP1 EXTCODESIZE ISZERO DUP1 ISZERO PUSH2 0xB1F JUMPI PUSH1 0x0 DUP1 REVERT JUMPDEST POP GAS CALL ISZERO DUP1 ISZERO PUSH2 0xB33 JUMPI RETURNDATASIZE PUSH1 0x0 DUP1 RETURNDATACOPY RETURNDATASIZE PUSH1 0x0 REVERT JUMPDEST POP POP POP POP PUSH1 0x40 MLOAD RETURNDATASIZE PUSH1 0x20 DUP2 LT ISZERO PUSH2 0xB49 JUMPI PUSH1 0x0 DUP1 REVERT JUMPDEST POP POP PUSH1 0x1 PUSH1 0x1 PUSH1 0xA0 SHL SUB DUP3 AND PUSH1 0x0 SWAP1 DUP2 MSTORE PUSH1 0x6 PUSH1 0x20 SWAP1 DUP2 MSTORE PUSH1 0x40 DUP1 DUP4 KECCAK256 TIMESTAMP SWAP1 SSTORE PUSH1 0x7 SWAP1 SWAP2 MSTORE SWAP1 KECCAK256 PUSH1 0x2 ADD SLOAD PUSH2 0xB7E SWAP1 DUP3 PUSH2 0xD45 JUMP JUMPDEST PUSH1 0x1 PUSH1 0x1 PUSH1 0xA0 SHL SUB DUP4 AND PUSH1 0x0 SWAP1 DUP2 MSTORE PUSH1 0x7 PUSH1 0x20 MSTORE PUSH1 0x40 SWAP1 KECCAK256 PUSH1 0x2 DUP2 ADD SWAP2 SWAP1 SWAP2 SSTORE SLOAD PUSH2 0x49F SWAP1 PUSH2 0xD9F JUMP JUMPDEST POP POP JUMP JUMPDEST PUSH1 0x4 DUP1 SLOAD PUSH1 0x1 PUSH1 0x1 PUSH1 0xA0 SHL SUB SWAP1 SWAP3 AND PUSH1 0x0 DUP2 DUP2 MSTORE PUSH1 0x5 PUSH1 0x20 MSTORE PUSH1 0x40 DUP2 KECCAK256 DUP5 SWAP1 SSTORE PUSH1 0x1 DUP5 ADD DUP4 SSTORE SWAP2 SWAP1 SWAP2 MSTORE PUSH32 0x8A35ACFBC15FF81A39AE7D344FD709F28E8600B4AA8C65C6B64BFE7FE36BD19B SWAP1 SWAP2 ADD DUP1 SLOAD PUSH1 0x1 PUSH1 0x1 PUSH1 0xA0 SHL SUB NOT AND SWAP1 SWAP2 OR SWAP1 SSTORE JUMP JUMPDEST PUSH1 0x4 DUP1 SLOAD PUSH1 0x0 NOT DUP2 ADD SWAP1 DUP2 LT PUSH2 0xC1F JUMPI INVALID JUMPDEST PUSH1 0x0 SWAP2 DUP3 MSTORE PUSH1 0x20 DUP1 DUP4 KECCAK256 SWAP1 SWAP2 ADD SLOAD PUSH1 0x1 PUSH1 0x1 PUSH1 0xA0 SHL SUB DUP5 DUP2 AND DUP5 MSTORE PUSH1 0x5 SWAP1 SWAP3 MSTORE PUSH1 0x40 SWAP1 SWAP3 KECCAK256 SLOAD PUSH1 0x4 DUP1 SLOAD SWAP3 SWAP1 SWAP4 AND SWAP3 SWAP2 DUP2 LT PUSH2 0xC57 JUMPI INVALID JUMPDEST PUSH1 0x0 SWAP2 DUP3 MSTORE PUSH1 0x20 DUP1 DUP4 KECCAK256 SWAP2 SWAP1 SWAP2 ADD DUP1 SLOAD PUSH1 0x1 PUSH1 0x1 PUSH1 0xA0 SHL SUB NOT AND PUSH1 0x1 PUSH1 0x1 PUSH1 0xA0 SHL SUB SWAP5 DUP6 AND OR SWAP1 SSTORE SWAP2 DUP4 AND DUP2 MSTORE PUSH1 0x5 SWAP2 DUP3 SWAP1 MSTORE PUSH1 0x40 DUP2 KECCAK256 SLOAD PUSH1 0x4 DUP1 SLOAD SWAP2 SWAP4 SWAP3 SWAP2 PUSH1 0x0 NOT DUP2 ADD SWAP1 DUP2 LT PUSH2 0xCA5 JUMPI INVALID JUMPDEST PUSH1 0x0 SWAP2 DUP3 MSTORE PUSH1 0x20 DUP1 DUP4 KECCAK256 SWAP1 SWAP2 ADD SLOAD PUSH1 0x1 PUSH1 0x1 PUSH1 0xA0 SHL SUB AND DUP4 MSTORE DUP3 ADD SWAP3 SWAP1 SWAP3 MSTORE PUSH1 0x40 ADD SWAP1 KECCAK256 SSTORE PUSH1 0x4 DUP1 SLOAD DUP1 PUSH2 0xCD5 JUMPI INVALID JUMPDEST PUSH1 0x0 DUP3 DUP2 MSTORE PUSH1 0x20 SWAP1 KECCAK256 DUP2 ADD PUSH1 0x0 NOT SWAP1 DUP2 ADD DUP1 SLOAD PUSH1 0x1 PUSH1 0x1 PUSH1 0xA0 SHL SUB NOT AND SWAP1 SSTORE ADD SWAP1 SSTORE POP JUMP JUMPDEST PUSH1 0x0 PUSH2 0xD3C DUP4 DUP4 PUSH1 0x40 MLOAD DUP1 PUSH1 0x40 ADD PUSH1 0x40 MSTORE DUP1 PUSH1 0x1E DUP2 MSTORE PUSH1 0x20 ADD PUSH32 0x536166654D6174683A207375627472616374696F6E206F766572666C6F770000 DUP2 MSTORE POP PUSH2 0xE93 JUMP JUMPDEST SWAP1 POP JUMPDEST SWAP3 SWAP2 POP POP JUMP JUMPDEST PUSH1 0x0 DUP3 DUP3 ADD DUP4 DUP2 LT ISZERO PUSH2 0xD3C JUMPI PUSH1 0x40 DUP1 MLOAD PUSH3 0x461BCD PUSH1 0xE5 SHL DUP2 MSTORE PUSH1 0x20 PUSH1 0x4 DUP3 ADD MSTORE PUSH1 0x1B PUSH1 0x24 DUP3 ADD MSTORE PUSH32 0x536166654D6174683A206164646974696F6E206F766572666C6F770000000000 PUSH1 0x44 DUP3 ADD MSTORE SWAP1 MLOAD SWAP1 DUP2 SWAP1 SUB PUSH1 0x64 ADD SWAP1 REVERT JUMPDEST PUSH1 0x0 PUSH2 0xD3F PUSH1 0xC SLOAD PUSH2 0x950 PUSH1 0xB SLOAD DUP6 PUSH2 0xDBC SWAP1 SWAP2 SWAP1 PUSH4 0xFFFFFFFF AND JUMP JUMPDEST PUSH1 0x0 DUP3 PUSH2 0xDCB JUMPI POP PUSH1 0x0 PUSH2 0xD3F JUMP JUMPDEST DUP3 DUP3 MUL DUP3 DUP5 DUP3 DUP2 PUSH2 0xDD8 JUMPI INVALID JUMPDEST DIV EQ PUSH2 0xD3C JUMPI PUSH1 0x40 MLOAD PUSH3 0x461BCD PUSH1 0xE5 SHL DUP2 MSTORE PUSH1 0x4 ADD DUP1 DUP1 PUSH1 0x20 ADD DUP3 DUP2 SUB DUP3 MSTORE PUSH1 0x21 DUP2 MSTORE PUSH1 0x20 ADD DUP1 PUSH2 0xF90 PUSH1 0x21 SWAP2 CODECOPY PUSH1 0x40 ADD SWAP2 POP POP PUSH1 0x40 MLOAD DUP1 SWAP2 SUB SWAP1 REVERT JUMPDEST PUSH1 0x0 PUSH2 0xD3C DUP4 DUP4 PUSH1 0x40 MLOAD DUP1 PUSH1 0x40 ADD PUSH1 0x40 MSTORE DUP1 PUSH1 0x1A DUP2 MSTORE PUSH1 0x20 ADD PUSH32 0x536166654D6174683A206469766973696F6E206279207A65726F000000000000 DUP2 MSTORE POP PUSH2 0xF2A JUMP JUMPDEST PUSH1 0xD SLOAD PUSH1 0x1 PUSH1 0x1 PUSH1 0xA0 SHL SUB DUP3 AND PUSH1 0x0 SWAP1 DUP2 MSTORE PUSH1 0x6 PUSH1 0x20 MSTORE PUSH1 0x40 DUP2 KECCAK256 SLOAD SWAP1 SWAP2 TIMESTAMP SWAP2 ADD LT DUP1 ISZERO PUSH2 0xD3F JUMPI POP PUSH1 0xE SLOAD PUSH2 0xE8C DUP4 PUSH2 0x4C2 JUMP JUMPDEST GT SWAP3 SWAP2 POP POP JUMP JUMPDEST PUSH1 0x0 DUP2 DUP5 DUP5 GT ISZERO PUSH2 0xF22 JUMPI PUSH1 0x40 MLOAD PUSH3 0x461BCD PUSH1 0xE5 SHL DUP2 MSTORE PUSH1 0x4 ADD DUP1 DUP1 PUSH1 0x20 ADD DUP3 DUP2 SUB DUP3 MSTORE DUP4 DUP2 DUP2 MLOAD DUP2 MSTORE PUSH1 0x20 ADD SWAP2 POP DUP1 MLOAD SWAP1 PUSH1 0x20 ADD SWAP1 DUP1 DUP4 DUP4 PUSH1 0x0 JUMPDEST DUP4 DUP2 LT ISZERO PUSH2 0xEE7 JUMPI DUP2 DUP2 ADD MLOAD DUP4 DUP3 ADD MSTORE PUSH1 0x20 ADD PUSH2 0xECF JUMP JUMPDEST POP POP POP POP SWAP1 POP SWAP1 DUP2 ADD SWAP1 PUSH1 0x1F AND DUP1 ISZERO PUSH2 0xF14 JUMPI DUP1 DUP3 SUB DUP1 MLOAD PUSH1 0x1 DUP4 PUSH1 0x20 SUB PUSH2 0x100 EXP SUB NOT AND DUP2 MSTORE PUSH1 0x20 ADD SWAP2 POP JUMPDEST POP SWAP3 POP POP POP PUSH1 0x40 MLOAD DUP1 SWAP2 SUB SWAP1 REVERT JUMPDEST POP POP POP SWAP1 SUB SWAP1 JUMP JUMPDEST PUSH1 0x0 DUP2 DUP4 PUSH2 0xF79 JUMPI PUSH1 0x40 MLOAD PUSH3 0x461BCD PUSH1 0xE5 SHL DUP2 MSTORE PUSH1 0x20 PUSH1 0x4 DUP3 ADD DUP2 DUP2 MSTORE DUP4 MLOAD PUSH1 0x24 DUP5 ADD MSTORE DUP4 MLOAD SWAP1 SWAP3 DUP4 SWAP3 PUSH1 0x44 SWAP1 SWAP2 ADD SWAP2 SWAP1 DUP6 ADD SWAP1 DUP1 DUP4 DUP4 PUSH1 0x0 DUP4 ISZERO PUSH2 0xEE7 JUMPI DUP2 DUP2 ADD MLOAD DUP4 DUP3 ADD MSTORE PUSH1 0x20 ADD PUSH2 0xECF JUMP JUMPDEST POP PUSH1 0x0 DUP4 DUP6 DUP2 PUSH2 0xF85 JUMPI INVALID JUMPDEST DIV SWAP6 SWAP5 POP POP POP POP POP JUMP INVALID MSTORE8 PUSH2 0x6665 0x4D PUSH2 0x7468 GASPRICE KECCAK256 PUSH14 0x756C7469706C69636174696F6E20 PUSH16 0x766572666C6F77A26469706673582212 KECCAK256 SWAP15 EXTCODECOPY PUSH6 0x5A7114428F2F 0xBC 0x28 CREATE2 0xCF 0xD0 SWAP4 BYTE JUMPDEST CALLER 0xD1 0x29 PUSH18 0x51C5DD42DFE47504103C1C64736F6C634300 SMOD SDIV STOP CALLER 0x4D PUSH10 0x736D6174636820626574 PUSH24 0x65656E204164647265737320616E6420746F6B656E20636F PUSH22 0x6E74536166654D6174683A206D756C7469706C696361 PUSH21 0x696F6E206F766572666C6F77A26469706673582212 KECCAK256 0xE9 CHAINID 0xAE 0xC9 ADDRESS DUP6 SWAP15 JUMP PUSH27 0xC8CA4EAC80A29EEF85B5E9D68684476E354F640FE4844464736F6C PUSH4 0x43000705 STOP CALLER PUSH1 0x80 PUSH1 0x40 MSTORE PUSH1 0x2 DUP1 SLOAD PUSH1 0x1 PUSH1 0x1 PUSH1 0xA0 SHL SUB NOT AND PUSH20 0xBB4CDB9CBD36B01BD1CBAEBF2DE08D9173BC095C OR SWAP1 SSTORE PUSH15 0xC097CE7BC90715B34B9F1000000000 PUSH1 0xC SSTORE PUSH2 0x708 PUSH1 0xD SSTORE PUSH4 0x3B9ACA00 PUSH1 0xE SSTORE CALLVALUE DUP1 ISZERO PUSH2 0x57 JUMPI PUSH1 0x0 DUP1 REVERT JUMPDEST POP PUSH1 0x40 MLOAD PUSH2 0x10DC CODESIZE SUB DUP1 PUSH2 0x10DC DUP4 CODECOPY DUP2 DUP2 ADD PUSH1 0x40 MSTORE PUSH1 0x40 DUP2 LT ISZERO PUSH2 0x7A JUMPI PUSH1 0x0 DUP1 REVERT JUMPDEST POP DUP1 MLOAD PUSH1 0x20 SWAP1 SWAP2 ADD MLOAD PUSH1 0x1 PUSH1 0x1 PUSH1 0xA0 SHL SUB DUP3 AND PUSH2 0xAB JUMPI PUSH20 0x10ED43C718714EB63D5AA57B78B54704E256024E PUSH2 0xAD JUMP JUMPDEST DUP2 JUMPDEST PUSH1 0x3 DUP1 SLOAD PUSH1 0x1 PUSH1 0x1 PUSH1 0xA0 SHL SUB SWAP3 DUP4 AND PUSH1 0x1 PUSH1 0x1 PUSH1 0xA0 SHL SUB NOT SWAP2 DUP3 AND OR SWAP1 SWAP2 SSTORE PUSH1 0x0 DUP1 SLOAD DUP3 AND CALLER OR SWAP1 SSTORE PUSH1 0x1 DUP1 SLOAD SWAP4 SWAP1 SWAP3 AND SWAP3 AND SWAP2 SWAP1 SWAP2 OR SWAP1 SSTORE POP PUSH2 0xFE6 DUP1 PUSH2 0xF6 PUSH1 0x0 CODECOPY PUSH1 0x0 RETURN INVALID PUSH1 0x80 PUSH1 0x40 MSTORE PUSH1 0x4 CALLDATASIZE LT PUSH2 0x114 JUMPI PUSH1 0x0 CALLDATALOAD PUSH1 0xE0 SHR DUP1 PUSH4 0xCAB34C08 GT PUSH2 0xA0 JUMPI DUP1 PUSH4 0xEFCA2EED GT PUSH2 0x64 JUMPI DUP1 PUSH4 0xEFCA2EED EQ PUSH2 0x319 JUMPI DUP1 PUSH4 0xF0FC6BCA EQ PUSH2 0x32E JUMPI DUP1 PUSH4 0xF887EA40 EQ PUSH2 0x343 JUMPI DUP1 PUSH4 0xFFB2C479 EQ PUSH2 0x358 JUMPI DUP1 PUSH4 0xFFD49C84 EQ PUSH2 0x382 JUMPI PUSH2 0x114 JUMP JUMPDEST DUP1 PUSH4 0xCAB34C08 EQ PUSH2 0x281 JUMPI DUP1 PUSH4 0xCE7C2AC2 EQ PUSH2 0x296 JUMPI DUP1 PUSH4 0xD0E30DB0 EQ PUSH2 0x2E7 JUMPI DUP1 PUSH4 0xE2D2E219 EQ PUSH2 0x2EF JUMPI DUP1 PUSH4 0xECD0C0C3 EQ PUSH2 0x304 JUMPI PUSH2 0x114 JUMP JUMPDEST DUP1 PUSH4 0x3A98EF39 GT PUSH2 0xE7 JUMPI DUP1 PUSH4 0x3A98EF39 EQ PUSH2 0x1DE JUMPI DUP1 PUSH4 0x4FAB0AE8 EQ PUSH2 0x1F3 JUMPI DUP1 PUSH4 0x8DD95002 EQ PUSH2 0x208 JUMPI DUP1 PUSH4 0x997664D7 EQ PUSH2 0x239 JUMPI DUP1 PUSH4 0xA6871BC3 EQ PUSH2 0x24E JUMPI PUSH2 0x114 JUMP JUMPDEST DUP1 PUSH4 0x11CE023D EQ PUSH2 0x119 JUMPI DUP1 PUSH4 0x14B6CA96 EQ PUSH2 0x140 JUMPI DUP1 PUSH4 0x28FD3198 EQ PUSH2 0x17B JUMPI DUP1 PUSH4 0x2D48E896 EQ PUSH2 0x1AE JUMPI JUMPDEST PUSH1 0x0 DUP1 REVERT JUMPDEST CALLVALUE DUP1 ISZERO PUSH2 0x125 JUMPI PUSH1 0x0 DUP1 REVERT JUMPDEST POP PUSH2 0x12E PUSH2 0x397 JUMP JUMPDEST PUSH1 0x40 DUP1 MLOAD SWAP2 DUP3 MSTORE MLOAD SWAP1 DUP2 SWAP1 SUB PUSH1 0x20 ADD SWAP1 RETURN JUMPDEST CALLVALUE DUP1 ISZERO PUSH2 0x14C JUMPI PUSH1 0x0 DUP1 REVERT JUMPDEST POP PUSH2 0x179 PUSH1 0x4 DUP1 CALLDATASIZE SUB PUSH1 0x40 DUP2 LT ISZERO PUSH2 0x163 JUMPI PUSH1 0x0 DUP1 REVERT JUMPDEST POP PUSH1 0x1 PUSH1 0x1 PUSH1 0xA0 SHL SUB DUP2 CALLDATALOAD AND SWAP1 PUSH1 0x20 ADD CALLDATALOAD PUSH2 0x39D JUMP JUMPDEST STOP JUMPDEST CALLVALUE DUP1 ISZERO PUSH2 0x187 JUMPI PUSH1 0x0 DUP1 REVERT JUMPDEST POP PUSH2 0x12E PUSH1 0x4 DUP1 CALLDATASIZE SUB PUSH1 0x20 DUP2 LT ISZERO PUSH2 0x19E JUMPI PUSH1 0x0 DUP1 REVERT JUMPDEST POP CALLDATALOAD PUSH1 0x1 PUSH1 0x1 PUSH1 0xA0 SHL SUB AND PUSH2 0x4C2 JUMP JUMPDEST CALLVALUE DUP1 ISZERO PUSH2 0x1BA JUMPI PUSH1 0x0 DUP1 REVERT JUMPDEST POP PUSH2 0x179 PUSH1 0x4 DUP1 CALLDATASIZE SUB PUSH1 0x40 DUP2 LT ISZERO PUSH2 0x1D1 JUMPI PUSH1 0x0 DUP1 REVERT JUMPDEST POP DUP1 CALLDATALOAD SWAP1 PUSH1 0x20 ADD CALLDATALOAD PUSH2 0x54E JUMP JUMPDEST CALLVALUE DUP1 ISZERO PUSH2 0x1EA JUMPI PUSH1 0x0 DUP1 REVERT JUMPDEST POP PUSH2 0x12E PUSH2 0x570 JUMP JUMPDEST CALLVALUE DUP1 ISZERO PUSH2 0x1FF JUMPI PUSH1 0x0 DUP1 REVERT JUMPDEST POP PUSH2 0x12E PUSH2 0x576 JUMP JUMPDEST CALLVALUE DUP1 ISZERO PUSH2 0x214 JUMPI PUSH1 0x0 DUP1 REVERT JUMPDEST POP PUSH2 0x21D PUSH2 0x57C JUMP JUMPDEST PUSH1 0x40 DUP1 MLOAD PUSH1 0x1 PUSH1 0x1 PUSH1 0xA0 SHL SUB SWAP1 SWAP3 AND DUP3 MSTORE MLOAD SWAP1 DUP2 SWAP1 SUB PUSH1 0x20 ADD SWAP1 RETURN JUMPDEST CALLVALUE DUP1 ISZERO PUSH2 0x245 JUMPI PUSH1 0x0 DUP1 REVERT JUMPDEST POP PUSH2 0x12E PUSH2 0x58B JUMP JUMPDEST CALLVALUE DUP1 ISZERO PUSH2 0x25A JUMPI PUSH1 0x0 DUP1 REVERT JUMPDEST POP PUSH2 0x179 PUSH1 0x4 DUP1 CALLDATASIZE SUB PUSH1 0x20 DUP2 LT ISZERO PUSH2 0x271 JUMPI PUSH1 0x0 DUP1 REVERT JUMPDEST POP CALLDATALOAD PUSH1 0x1 PUSH1 0x1 PUSH1 0xA0 SHL SUB AND PUSH2 0x591 JUMP JUMPDEST CALLVALUE DUP1 ISZERO PUSH2 0x28D JUMPI PUSH1 0x0 DUP1 REVERT JUMPDEST POP PUSH2 0x21D PUSH2 0x6A7 JUMP JUMPDEST CALLVALUE DUP1 ISZERO PUSH2 0x2A2 JUMPI PUSH1 0x0 DUP1 REVERT JUMPDEST POP PUSH2 0x2C9 PUSH1 0x4 DUP1 CALLDATASIZE SUB PUSH1 0x20 DUP2 LT ISZERO PUSH2 0x2B9 JUMPI PUSH1 0x0 DUP1 REVERT JUMPDEST POP CALLDATALOAD PUSH1 0x1 PUSH1 0x1 PUSH1 0xA0 SHL SUB AND PUSH2 0x6B6 JUMP JUMPDEST PUSH1 0x40 DUP1 MLOAD SWAP4 DUP5 MSTORE PUSH1 0x20 DUP5 ADD SWAP3 SWAP1 SWAP3 MSTORE DUP3 DUP3 ADD MSTORE MLOAD SWAP1 DUP2 SWAP1 SUB PUSH1 0x60 ADD SWAP1 RETURN JUMPDEST PUSH2 0x179 PUSH2 0x6D7 JUMP JUMPDEST CALLVALUE DUP1 ISZERO PUSH2 0x2FB JUMPI PUSH1 0x0 DUP1 REVERT JUMPDEST POP PUSH2 0x12E PUSH2 0x967 JUMP JUMPDEST CALLVALUE DUP1 ISZERO PUSH2 0x310 JUMPI PUSH1 0x0 DUP1 REVERT JUMPDEST POP PUSH2 0x21D PUSH2 0x96D JUMP JUMPDEST CALLVALUE DUP1 ISZERO PUSH2 0x325 JUMPI PUSH1 0x0 DUP1 REVERT JUMPDEST POP PUSH2 0x12E PUSH2 0x97C JUMP JUMPDEST CALLVALUE DUP1 ISZERO PUSH2 0x33A JUMPI PUSH1 0x0 DUP1 REVERT JUMPDEST POP PUSH2 0x179 PUSH2 0x982 JUMP JUMPDEST CALLVALUE DUP1 ISZERO PUSH2 0x34F JUMPI PUSH1 0x0 DUP1 REVERT JUMPDEST POP PUSH2 0x21D PUSH2 0x98D JUMP JUMPDEST CALLVALUE DUP1 ISZERO PUSH2 0x364 JUMPI PUSH1 0x0 DUP1 REVERT JUMPDEST POP PUSH2 0x179 PUSH1 0x4 DUP1 CALLDATASIZE SUB PUSH1 0x20 DUP2 LT ISZERO PUSH2 0x37B JUMPI PUSH1 0x0 DUP1 REVERT JUMPDEST POP CALLDATALOAD PUSH2 0x99C JUMP JUMPDEST CALLVALUE DUP1 ISZERO PUSH2 0x38E JUMPI PUSH1 0x0 DUP1 REVERT JUMPDEST POP PUSH2 0x12E PUSH2 0xA7E JUMP JUMPDEST PUSH1 0xC SLOAD DUP2 JUMP JUMPDEST PUSH1 0x0 SLOAD PUSH1 0x1 PUSH1 0x1 PUSH1 0xA0 SHL SUB AND CALLER EQ PUSH2 0x3B4 JUMPI PUSH1 0x0 DUP1 REVERT JUMPDEST PUSH1 0x1 PUSH1 0x1 PUSH1 0xA0 SHL SUB DUP3 AND PUSH1 0x0 SWAP1 DUP2 MSTORE PUSH1 0x7 PUSH1 0x20 MSTORE PUSH1 0x40 SWAP1 KECCAK256 SLOAD ISZERO PUSH2 0x3DB JUMPI PUSH2 0x3DB DUP3 PUSH2 0xA84 JUMP JUMPDEST PUSH1 0x0 DUP2 GT DUP1 ISZERO PUSH2 0x401 JUMPI POP PUSH1 0x1 PUSH1 0x1 PUSH1 0xA0 SHL SUB DUP3 AND PUSH1 0x0 SWAP1 DUP2 MSTORE PUSH1 0x7 PUSH1 0x20 MSTORE PUSH1 0x40 SWAP1 KECCAK256 SLOAD ISZERO JUMPDEST ISZERO PUSH2 0x414 JUMPI PUSH2 0x40F DUP3 PUSH2 0xBAC JUMP JUMPDEST PUSH2 0x447 JUMP JUMPDEST DUP1 ISZERO DUP1 ISZERO PUSH2 0x439 JUMPI POP PUSH1 0x1 PUSH1 0x1 PUSH1 0xA0 SHL SUB DUP3 AND PUSH1 0x0 SWAP1 DUP2 MSTORE PUSH1 0x7 PUSH1 0x20 MSTORE PUSH1 0x40 SWAP1 KECCAK256 SLOAD ISZERO ISZERO JUMPDEST ISZERO PUSH2 0x447 JUMPI PUSH2 0x447 DUP3 PUSH2 0xC0D JUMP JUMPDEST PUSH1 0x1 PUSH1 0x1 PUSH1 0xA0 SHL SUB DUP3 AND PUSH1 0x0 SWAP1 DUP2 MSTORE PUSH1 0x7 PUSH1 0x20 MSTORE PUSH1 0x40 SWAP1 KECCAK256 SLOAD PUSH1 0x8 SLOAD PUSH2 0x478 SWAP2 DUP4 SWAP2 PUSH2 0x472 SWAP2 PUSH2 0xCFA JUMP JUMPDEST SWAP1 PUSH2 0xD45 JUMP JUMPDEST PUSH1 0x8 SSTORE PUSH1 0x1 PUSH1 0x1 PUSH1 0xA0 SHL SUB DUP3 AND PUSH1 0x0 SWAP1 DUP2 MSTORE PUSH1 0x7 PUSH1 0x20 MSTORE PUSH1 0x40 SWAP1 KECCAK256 DUP2 SWAP1 SSTORE PUSH2 0x49F DUP2 PUSH2 0xD9F JUMP JUMPDEST PUSH1 0x1 PUSH1 0x1 PUSH1 0xA0 SHL SUB SWAP1 SWAP3 AND PUSH1 0x0 SWAP1 DUP2 MSTORE PUSH1 0x7 PUSH1 0x20 MSTORE PUSH1 0x40 SWAP1 KECCAK256 PUSH1 0x1 ADD SWAP2 SWAP1 SWAP2 SSTORE POP JUMP JUMPDEST PUSH1 0x1 PUSH1 0x1 PUSH1 0xA0 SHL SUB DUP2 AND PUSH1 0x0 SWAP1 DUP2 MSTORE PUSH1 0x7 PUSH1 0x20 MSTORE PUSH1 0x40 DUP2 KECCAK256 SLOAD PUSH2 0x4E7 JUMPI POP PUSH1 0x0 PUSH2 0x549 JUMP JUMPDEST PUSH1 0x1 PUSH1 0x1 PUSH1 0xA0 SHL SUB DUP3 AND PUSH1 0x0 SWAP1 DUP2 MSTORE PUSH1 0x7 PUSH1 0x20 MSTORE PUSH1 0x40 DUP2 KECCAK256 SLOAD PUSH2 0x509 SWAP1 PUSH2 0xD9F JUMP JUMPDEST PUSH1 0x1 PUSH1 0x1 PUSH1 0xA0 SHL SUB DUP5 AND PUSH1 0x0 SWAP1 DUP2 MSTORE PUSH1 0x7 PUSH1 0x20 MSTORE PUSH1 0x40 SWAP1 KECCAK256 PUSH1 0x1 ADD SLOAD SWAP1 SWAP2 POP DUP1 DUP3 GT PUSH2 0x53A JUMPI PUSH1 0x0 SWAP3 POP POP POP PUSH2 0x549 JUMP JUMPDEST PUSH2 0x544 DUP3 DUP3 PUSH2 0xCFA JUMP JUMPDEST SWAP3 POP POP POP JUMPDEST SWAP2 SWAP1 POP JUMP JUMPDEST PUSH1 0x0 SLOAD PUSH1 0x1 PUSH1 0x1 PUSH1 0xA0 SHL SUB AND CALLER EQ PUSH2 0x565 JUMPI PUSH1 0x0 DUP1 REVERT JUMPDEST PUSH1 0xD SWAP2 SWAP1 SWAP2 SSTORE PUSH1 0xE SSTORE JUMP JUMPDEST PUSH1 0x8 SLOAD DUP2 JUMP JUMPDEST PUSH1 0xE SLOAD DUP2 JUMP JUMPDEST PUSH1 0x2 SLOAD PUSH1 0x1 PUSH1 0x1 PUSH1 0xA0 SHL SUB AND DUP2 JUMP JUMPDEST PUSH1 0x9 SLOAD DUP2 JUMP JUMPDEST PUSH1 0x0 SLOAD PUSH1 0x1 PUSH1 0x1 PUSH1 0xA0 SHL SUB AND CALLER EQ PUSH2 0x5A8 JUMPI PUSH1 0x0 DUP1 REVERT JUMPDEST PUSH1 0x1 SLOAD PUSH1 0x40 DUP1 MLOAD PUSH4 0x70A08231 PUSH1 0xE0 SHL DUP2 MSTORE ADDRESS PUSH1 0x4 DUP3 ADD MSTORE SWAP1 MLOAD PUSH1 0x0 SWAP3 PUSH1 0x1 PUSH1 0x1 PUSH1 0xA0 SHL SUB AND SWAP2 PUSH4 0x70A08231 SWAP2 PUSH1 0x24 DUP1 DUP4 ADD SWAP3 PUSH1 0x20 SWAP3 SWAP2 SWAP1 DUP3 SWAP1 SUB ADD DUP2 DUP7 DUP1 EXTCODESIZE ISZERO DUP1 ISZERO PUSH2 0x5F3 JUMPI PUSH1 0x0 DUP1 REVERT JUMPDEST POP GAS STATICCALL ISZERO DUP1 ISZERO PUSH2 0x607 JUMPI RETURNDATASIZE PUSH1 0x0 DUP1 RETURNDATACOPY RETURNDATASIZE PUSH1 0x0 REVERT JUMPDEST POP POP POP POP PUSH1 0x40 MLOAD RETURNDATASIZE PUSH1 0x20 DUP2 LT ISZERO PUSH2 0x61D JUMPI PUSH1 0x0 DUP1 REVERT JUMPDEST POP MLOAD PUSH1 0x1 SLOAD PUSH1 0x40 DUP1 MLOAD PUSH4 0xA9059CBB PUSH1 0xE0 SHL DUP2 MSTORE PUSH1 0x1 PUSH1 0x1 PUSH1 0xA0 SHL SUB DUP7 DUP2 AND PUSH1 0x4 DUP4 ADD MSTORE PUSH1 0x24 DUP3 ADD DUP6 SWAP1 MSTORE SWAP2 MLOAD SWAP4 SWAP5 POP SWAP2 AND SWAP2 PUSH4 0xA9059CBB SWAP2 PUSH1 0x44 DUP1 DUP3 ADD SWAP3 PUSH1 0x20 SWAP3 SWAP1 SWAP2 SWAP1 DUP3 SWAP1 SUB ADD DUP2 PUSH1 0x0 DUP8 DUP1 EXTCODESIZE ISZERO DUP1 ISZERO PUSH2 0x677 JUMPI PUSH1 0x0 DUP1 REVERT JUMPDEST POP GAS CALL ISZERO DUP1 ISZERO PUSH2 0x68B JUMPI RETURNDATASIZE PUSH1 0x0 DUP1 RETURNDATACOPY RETURNDATASIZE PUSH1 0x0 REVERT JUMPDEST POP POP POP POP PUSH1 0x40 MLOAD RETURNDATASIZE PUSH1 0x20 DUP2 LT ISZERO PUSH2 0x6A1 JUMPI PUSH1 0x0 DUP1 REVERT JUMPDEST POP POP POP POP JUMP JUMPDEST PUSH1 0x1 SLOAD PUSH1 0x1 PUSH1 0x1 PUSH1 0xA0 SHL SUB AND DUP2 JUMP JUMPDEST PUSH1 0x7 PUSH1 0x20 MSTORE PUSH1 0x0 SWAP1 DUP2 MSTORE PUSH1 0x40 SWAP1 KECCAK256 DUP1 SLOAD PUSH1 0x1 DUP3 ADD SLOAD PUSH1 0x2 SWAP1 SWAP3 ADD SLOAD SWAP1 SWAP2 SWAP1 DUP4 JUMP JUMPDEST PUSH1 0x0 SLOAD PUSH1 0x1 PUSH1 0x1 PUSH1 0xA0 SHL SUB AND CALLER EQ PUSH2 0x6EE JUMPI PUSH1 0x0 DUP1 REVERT JUMPDEST PUSH1 0x1 SLOAD PUSH1 0x40 DUP1 MLOAD PUSH4 0x70A08231 PUSH1 0xE0 SHL DUP2 MSTORE ADDRESS PUSH1 0x4 DUP3 ADD MSTORE SWAP1 MLOAD PUSH1 0x0 SWAP3 PUSH1 0x1 PUSH1 0x1 PUSH1 0xA0 SHL SUB AND SWAP2 PUSH4 0x70A08231 SWAP2 PUSH1 0x24 DUP1 DUP4 ADD SWAP3 PUSH1 0x20 SWAP3 SWAP2 SWAP1 DUP3 SWAP1 SUB ADD DUP2 DUP7 DUP1 EXTCODESIZE ISZERO DUP1 ISZERO PUSH2 0x739 JUMPI PUSH1 0x0 DUP1 REVERT JUMPDEST POP GAS STATICCALL ISZERO DUP1 ISZERO PUSH2 0x74D JUMPI RETURNDATASIZE PUSH1 0x0 DUP1 RETURNDATACOPY RETURNDATASIZE PUSH1 0x0 REVERT JUMPDEST POP POP POP POP PUSH1 0x40 MLOAD RETURNDATASIZE PUSH1 0x20 DUP2 LT ISZERO PUSH2 0x763 JUMPI PUSH1 0x0 DUP1 REVERT JUMPDEST POP MLOAD PUSH1 0x40 DUP1 MLOAD PUSH1 0x2 DUP1 DUP3 MSTORE PUSH1 0x60 DUP1 DUP4 ADD DUP5 MSTORE SWAP4 SWAP5 POP SWAP1 SWAP2 PUSH1 0x20 DUP4 ADD SWAP1 DUP1 CALLDATASIZE DUP4 CALLDATACOPY POP POP PUSH1 0x2 SLOAD DUP3 MLOAD SWAP3 SWAP4 POP PUSH1 0x1 PUSH1 0x1 PUSH1 0xA0 SHL SUB AND SWAP2 DUP4 SWAP2 POP PUSH1 0x0 SWAP1 PUSH2 0x7A3 JUMPI INVALID JUMPDEST PUSH1 0x1 PUSH1 0x1 PUSH1 0xA0 SHL SUB SWAP3 DUP4 AND PUSH1 0x20 SWAP2 DUP3 MUL SWAP3 SWAP1 SWAP3 ADD ADD MSTORE PUSH1 0x1 DUP1 SLOAD DUP4 MLOAD SWAP3 AND SWAP2 DUP4 SWAP2 SWAP1 DUP2 LT PUSH2 0x7CD JUMPI INVALID JUMPDEST PUSH1 0x1 PUSH1 0x1 PUSH1 0xA0 SHL SUB SWAP3 DUP4 AND PUSH1 0x20 SWAP2 DUP3 MUL SWAP3 SWAP1 SWAP3 ADD DUP2 ADD SWAP2 SWAP1 SWAP2 MSTORE PUSH1 0x3 SLOAD PUSH1 0x40 MLOAD PUSH4 0xB6F9DE95 PUSH1 0xE0 SHL DUP2 MSTORE PUSH1 0x0 PUSH1 0x4 DUP3 ADD DUP2 DUP2 MSTORE ADDRESS PUSH1 0x44 DUP5 ADD DUP2 SWAP1 MSTORE TIMESTAMP PUSH1 0x64 DUP6 ADD DUP2 SWAP1 MSTORE PUSH1 0x80 PUSH1 0x24 DUP7 ADD SWAP1 DUP2 MSTORE DUP10 MLOAD PUSH1 0x84 DUP8 ADD MSTORE DUP10 MLOAD SWAP7 SWAP1 SWAP9 AND SWAP8 PUSH4 0xB6F9DE95 SWAP8 CALLVALUE SWAP8 SWAP6 SWAP7 DUP12 SWAP7 SWAP5 SWAP6 SWAP4 SWAP5 PUSH1 0xA4 SWAP1 SWAP2 ADD SWAP2 DUP8 DUP2 ADD SWAP2 MUL DUP1 DUP4 DUP4 DUP12 JUMPDEST DUP4 DUP2 LT ISZERO PUSH2 0x85F JUMPI DUP2 DUP2 ADD MLOAD DUP4 DUP3 ADD MSTORE PUSH1 0x20 ADD PUSH2 0x847 JUMP JUMPDEST POP POP POP POP SWAP1 POP ADD SWAP6 POP POP POP POP POP POP PUSH1 0x0 PUSH1 0x40 MLOAD DUP1 DUP4 SUB DUP2 DUP6 DUP9 DUP1 EXTCODESIZE ISZERO DUP1 ISZERO PUSH2 0x886 JUMPI PUSH1 0x0 DUP1 REVERT JUMPDEST POP GAS CALL ISZERO DUP1 ISZERO PUSH2 0x89A JUMPI RETURNDATASIZE PUSH1 0x0 DUP1 RETURNDATACOPY RETURNDATASIZE PUSH1 0x0 REVERT JUMPDEST POP POP PUSH1 0x1 SLOAD PUSH1 0x40 DUP1 MLOAD PUSH4 0x70A08231 PUSH1 0xE0 SHL DUP2 MSTORE ADDRESS PUSH1 0x4 DUP3 ADD MSTORE SWAP1 MLOAD PUSH1 0x0 SWAP6 POP PUSH2 0x925 SWAP5 POP DUP8 SWAP4 POP PUSH1 0x1 PUSH1 0x1 PUSH1 0xA0 SHL SUB SWAP1 SWAP3 AND SWAP2 PUSH4 0x70A08231 SWAP2 PUSH1 0x24 DUP1 DUP3 ADD SWAP3 PUSH1 0x20 SWAP3 SWAP1 SWAP2 SWAP1 DUP3 SWAP1 SUB ADD DUP2 DUP7 DUP1 EXTCODESIZE ISZERO DUP1 ISZERO PUSH2 0x8F3 JUMPI PUSH1 0x0 DUP1 REVERT JUMPDEST POP GAS STATICCALL ISZERO DUP1 ISZERO PUSH2 0x907 JUMPI RETURNDATASIZE PUSH1 0x0 DUP1 RETURNDATACOPY RETURNDATASIZE PUSH1 0x0 REVERT JUMPDEST POP POP POP POP PUSH1 0x40 MLOAD RETURNDATASIZE PUSH1 0x20 DUP2 LT ISZERO PUSH2 0x91D JUMPI PUSH1 0x0 DUP1 REVERT JUMPDEST POP MLOAD SWAP1 PUSH2 0xCFA JUMP JUMPDEST PUSH1 0x9 SLOAD SWAP1 SWAP2 POP PUSH2 0x935 SWAP1 DUP3 PUSH2 0xD45 JUMP JUMPDEST PUSH1 0x9 SSTORE PUSH1 0x8 SLOAD PUSH1 0xC SLOAD PUSH2 0x95F SWAP2 PUSH2 0x956 SWAP2 PUSH2 0x950 SWAP1 DUP6 PUSH2 0xDBC JUMP JUMPDEST SWAP1 PUSH2 0xE15 JUMP JUMPDEST PUSH1 0xB SLOAD SWAP1 PUSH2 0xD45 JUMP JUMPDEST PUSH1 0xB SSTORE POP POP POP JUMP JUMPDEST PUSH1 0xB SLOAD DUP2 JUMP JUMPDEST PUSH1 0x0 SLOAD PUSH1 0x1 PUSH1 0x1 PUSH1 0xA0 SHL SUB AND DUP2 JUMP JUMPDEST PUSH1 0xA SLOAD DUP2 JUMP JUMPDEST PUSH2 0x98B CALLER PUSH2 0xA84 JUMP JUMPDEST JUMP JUMPDEST PUSH1 0x3 SLOAD PUSH1 0x1 PUSH1 0x1 PUSH1 0xA0 SHL SUB AND DUP2 JUMP JUMPDEST PUSH1 0x0 SLOAD PUSH1 0x1 PUSH1 0x1 PUSH1 0xA0 SHL SUB AND CALLER EQ PUSH2 0x9B3 JUMPI PUSH1 0x0 DUP1 REVERT JUMPDEST PUSH1 0x4 SLOAD DUP1 PUSH2 0x9C1 JUMPI POP PUSH2 0xA7B JUMP JUMPDEST PUSH1 0x0 DUP1 GAS SWAP1 POP PUSH1 0x0 JUMPDEST DUP5 DUP4 LT DUP1 ISZERO PUSH2 0x9D8 JUMPI POP DUP4 DUP2 LT JUMPDEST ISZERO PUSH2 0xA76 JUMPI DUP4 PUSH1 0xF SLOAD LT PUSH2 0x9EC JUMPI PUSH1 0x0 PUSH1 0xF SSTORE JUMPDEST PUSH2 0xA18 PUSH1 0x4 PUSH1 0xF SLOAD DUP2 SLOAD DUP2 LT PUSH2 0x9FE JUMPI INVALID JUMPDEST PUSH1 0x0 SWAP2 DUP3 MSTORE PUSH1 0x20 SWAP1 SWAP2 KECCAK256 ADD SLOAD PUSH1 0x1 PUSH1 0x1 PUSH1 0xA0 SHL SUB AND PUSH2 0xE57 JUMP JUMPDEST ISZERO PUSH2 0xA49 JUMPI PUSH2 0xA49 PUSH1 0x4 PUSH1 0xF SLOAD DUP2 SLOAD DUP2 LT PUSH2 0xA2F JUMPI INVALID JUMPDEST PUSH1 0x0 SWAP2 DUP3 MSTORE PUSH1 0x20 SWAP1 SWAP2 KECCAK256 ADD SLOAD PUSH1 0x1 PUSH1 0x1 PUSH1 0xA0 SHL SUB AND PUSH2 0xA84 JUMP JUMPDEST PUSH2 0xA5E PUSH2 0xA57 GAS DUP5 SWAP1 PUSH2 0xCFA JUMP JUMPDEST DUP5 SWAP1 PUSH2 0xD45 JUMP JUMPDEST SWAP3 POP GAS PUSH1 0xF DUP1 SLOAD PUSH1 0x1 SWAP1 DUP2 ADD SWAP1 SWAP2 SSTORE SWAP1 SWAP3 POP ADD PUSH2 0x9CA JUMP JUMPDEST POP POP POP POP JUMPDEST POP JUMP JUMPDEST PUSH1 0xD SLOAD DUP2 JUMP JUMPDEST PUSH1 0x1 PUSH1 0x1 PUSH1 0xA0 SHL SUB DUP2 AND PUSH1 0x0 SWAP1 DUP2 MSTORE PUSH1 0x7 PUSH1 0x20 MSTORE PUSH1 0x40 SWAP1 KECCAK256 SLOAD PUSH2 0xAA6 JUMPI PUSH2 0xA7B JUMP JUMPDEST PUSH1 0x0 PUSH2 0xAB1 DUP3 PUSH2 0x4C2 JUMP JUMPDEST SWAP1 POP DUP1 ISZERO PUSH2 0xBA8 JUMPI PUSH1 0xA SLOAD PUSH2 0xAC6 SWAP1 DUP3 PUSH2 0xD45 JUMP JUMPDEST PUSH1 0xA SSTORE PUSH1 0x1 SLOAD PUSH1 0x40 DUP1 MLOAD PUSH4 0xA9059CBB PUSH1 0xE0 SHL DUP2 MSTORE PUSH1 0x1 PUSH1 0x1 PUSH1 0xA0 SHL SUB DUP6 DUP2 AND PUSH1 0x4 DUP4 ADD MSTORE PUSH1 0x24 DUP3 ADD DUP6 SWAP1 MSTORE SWAP2 MLOAD SWAP2 SWAP1 SWAP3 AND SWAP2 PUSH4 0xA9059CBB SWAP2 PUSH1 0x44 DUP1 DUP4 ADD SWAP3 PUSH1 0x20 SWAP3 SWAP2 SWAP1 DUP3 SWAP1 SUB ADD DUP2 PUSH1 0x0 DUP8 DUP1 EXTCODESIZE ISZERO DUP1 ISZERO PUSH2 0xB1F JUMPI PUSH1 0x0 DUP1 REVERT JUMPDEST POP GAS CALL ISZERO DUP1 ISZERO PUSH2 0xB33 JUMPI RETURNDATASIZE PUSH1 0x0 DUP1 RETURNDATACOPY RETURNDATASIZE PUSH1 0x0 REVERT JUMPDEST POP POP POP POP PUSH1 0x40 MLOAD RETURNDATASIZE PUSH1 0x20 DUP2 LT ISZERO PUSH2 0xB49 JUMPI PUSH1 0x0 DUP1 REVERT JUMPDEST POP POP PUSH1 0x1 PUSH1 0x1 PUSH1 0xA0 SHL SUB DUP3 AND PUSH1 0x0 SWAP1 DUP2 MSTORE PUSH1 0x6 PUSH1 0x20 SWAP1 DUP2 MSTORE PUSH1 0x40 DUP1 DUP4 KECCAK256 TIMESTAMP SWAP1 SSTORE PUSH1 0x7 SWAP1 SWAP2 MSTORE SWAP1 KECCAK256 PUSH1 0x2 ADD SLOAD PUSH2 0xB7E SWAP1 DUP3 PUSH2 0xD45 JUMP JUMPDEST PUSH1 0x1 PUSH1 0x1 PUSH1 0xA0 SHL SUB DUP4 AND PUSH1 0x0 SWAP1 DUP2 MSTORE PUSH1 0x7 PUSH1 0x20 MSTORE PUSH1 0x40 SWAP1 KECCAK256 PUSH1 0x2 DUP2 ADD SWAP2 SWAP1 SWAP2 SSTORE SLOAD PUSH2 0x49F SWAP1 PUSH2 0xD9F JUMP JUMPDEST POP POP JUMP JUMPDEST PUSH1 0x4 DUP1 SLOAD PUSH1 0x1 PUSH1 0x1 PUSH1 0xA0 SHL SUB SWAP1 SWAP3 AND PUSH1 0x0 DUP2 DUP2 MSTORE PUSH1 0x5 PUSH1 0x20 MSTORE PUSH1 0x40 DUP2 KECCAK256 DUP5 SWAP1 SSTORE PUSH1 0x1 DUP5 ADD DUP4 SSTORE SWAP2 SWAP1 SWAP2 MSTORE PUSH32 0x8A35ACFBC15FF81A39AE7D344FD709F28E8600B4AA8C65C6B64BFE7FE36BD19B SWAP1 SWAP2 ADD DUP1 SLOAD PUSH1 0x1 PUSH1 0x1 PUSH1 0xA0 SHL SUB NOT AND SWAP1 SWAP2 OR SWAP1 SSTORE JUMP JUMPDEST PUSH1 0x4 DUP1 SLOAD PUSH1 0x0 NOT DUP2 ADD SWAP1 DUP2 LT PUSH2 0xC1F JUMPI INVALID JUMPDEST PUSH1 0x0 SWAP2 DUP3 MSTORE PUSH1 0x20 DUP1 DUP4 KECCAK256 SWAP1 SWAP2 ADD SLOAD PUSH1 0x1 PUSH1 0x1 PUSH1 0xA0 SHL SUB DUP5 DUP2 AND DUP5 MSTORE PUSH1 0x5 SWAP1 SWAP3 MSTORE PUSH1 0x40 SWAP1 SWAP3 KECCAK256 SLOAD PUSH1 0x4 DUP1 SLOAD SWAP3 SWAP1 SWAP4 AND SWAP3 SWAP2 DUP2 LT PUSH2 0xC57 JUMPI INVALID JUMPDEST PUSH1 0x0 SWAP2 DUP3 MSTORE PUSH1 0x20 DUP1 DUP4 KECCAK256 SWAP2 SWAP1 SWAP2 ADD DUP1 SLOAD PUSH1 0x1 PUSH1 0x1 PUSH1 0xA0 SHL SUB NOT AND PUSH1 0x1 PUSH1 0x1 PUSH1 0xA0 SHL SUB SWAP5 DUP6 AND OR SWAP1 SSTORE SWAP2 DUP4 AND DUP2 MSTORE PUSH1 0x5 SWAP2 DUP3 SWAP1 MSTORE PUSH1 0x40 DUP2 KECCAK256 SLOAD PUSH1 0x4 DUP1 SLOAD SWAP2 SWAP4 SWAP3 SWAP2 PUSH1 0x0 NOT DUP2 ADD SWAP1 DUP2 LT PUSH2 0xCA5 JUMPI INVALID JUMPDEST PUSH1 0x0 SWAP2 DUP3 MSTORE PUSH1 0x20 DUP1 DUP4 KECCAK256 SWAP1 SWAP2 ADD SLOAD PUSH1 0x1 PUSH1 0x1 PUSH1 0xA0 SHL SUB AND DUP4 MSTORE DUP3 ADD SWAP3 SWAP1 SWAP3 MSTORE PUSH1 0x40 ADD SWAP1 KECCAK256 SSTORE PUSH1 0x4 DUP1 SLOAD DUP1 PUSH2 0xCD5 JUMPI INVALID JUMPDEST PUSH1 0x0 DUP3 DUP2 MSTORE PUSH1 0x20 SWAP1 KECCAK256 DUP2 ADD PUSH1 0x0 NOT SWAP1 DUP2 ADD DUP1 SLOAD PUSH1 0x1 PUSH1 0x1 PUSH1 0xA0 SHL SUB NOT AND SWAP1 SSTORE ADD SWAP1 SSTORE POP JUMP JUMPDEST PUSH1 0x0 PUSH2 0xD3C DUP4 DUP4 PUSH1 0x40 MLOAD DUP1 PUSH1 0x40 ADD PUSH1 0x40 MSTORE DUP1 PUSH1 0x1E DUP2 MSTORE PUSH1 0x20 ADD PUSH32 0x536166654D6174683A207375627472616374696F6E206F766572666C6F770000 DUP2 MSTORE POP PUSH2 0xE93 JUMP JUMPDEST SWAP1 POP JUMPDEST SWAP3 SWAP2 POP POP JUMP JUMPDEST PUSH1 0x0 DUP3 DUP3 ADD DUP4 DUP2 LT ISZERO PUSH2 0xD3C JUMPI PUSH1 0x40 DUP1 MLOAD PUSH3 0x461BCD PUSH1 0xE5 SHL DUP2 MSTORE PUSH1 0x20 PUSH1 0x4 DUP3 ADD MSTORE PUSH1 0x1B PUSH1 0x24 DUP3 ADD MSTORE PUSH32 0x536166654D6174683A206164646974696F6E206F766572666C6F770000000000 PUSH1 0x44 DUP3 ADD MSTORE SWAP1 MLOAD SWAP1 DUP2 SWAP1 SUB PUSH1 0x64 ADD SWAP1 REVERT JUMPDEST PUSH1 0x0 PUSH2 0xD3F PUSH1 0xC SLOAD PUSH2 0x950 PUSH1 0xB SLOAD DUP6 PUSH2 0xDBC SWAP1 SWAP2 SWAP1 PUSH4 0xFFFFFFFF AND JUMP JUMPDEST PUSH1 0x0 DUP3 PUSH2 0xDCB JUMPI POP PUSH1 0x0 PUSH2 0xD3F JUMP JUMPDEST DUP3 DUP3 MUL DUP3 DUP5 DUP3 DUP2 PUSH2 0xDD8 JUMPI INVALID JUMPDEST DIV EQ PUSH2 0xD3C JUMPI PUSH1 0x40 MLOAD PUSH3 0x461BCD PUSH1 0xE5 SHL DUP2 MSTORE PUSH1 0x4 ADD DUP1 DUP1 PUSH1 0x20 ADD DUP3 DUP2 SUB DUP3 MSTORE PUSH1 0x21 DUP2 MSTORE PUSH1 0x20 ADD DUP1 PUSH2 0xF90 PUSH1 0x21 SWAP2 CODECOPY PUSH1 0x40 ADD SWAP2 POP POP PUSH1 0x40 MLOAD DUP1 SWAP2 SUB SWAP1 REVERT JUMPDEST PUSH1 0x0 PUSH2 0xD3C DUP4 DUP4 PUSH1 0x40 MLOAD DUP1 PUSH1 0x40 ADD PUSH1 0x40 MSTORE DUP1 PUSH1 0x1A DUP2 MSTORE PUSH1 0x20 ADD PUSH32 0x536166654D6174683A206469766973696F6E206279207A65726F000000000000 DUP2 MSTORE POP PUSH2 0xF2A JUMP JUMPDEST PUSH1 0xD SLOAD PUSH1 0x1 PUSH1 0x1 PUSH1 0xA0 SHL SUB DUP3 AND PUSH1 0x0 SWAP1 DUP2 MSTORE PUSH1 0x6 PUSH1 0x20 MSTORE PUSH1 0x40 DUP2 KECCAK256 SLOAD SWAP1 SWAP2 TIMESTAMP SWAP2 ADD LT DUP1 ISZERO PUSH2 0xD3F JUMPI POP PUSH1 0xE SLOAD PUSH2 0xE8C DUP4 PUSH2 0x4C2 JUMP JUMPDEST GT SWAP3 SWAP2 POP POP JUMP JUMPDEST PUSH1 0x0 DUP2 DUP5 DUP5 GT ISZERO PUSH2 0xF22 JUMPI PUSH1 0x40 MLOAD PUSH3 0x461BCD PUSH1 0xE5 SHL DUP2 MSTORE PUSH1 0x4 ADD DUP1 DUP1 PUSH1 0x20 ADD DUP3 DUP2 SUB DUP3 MSTORE DUP4 DUP2 DUP2 MLOAD DUP2 MSTORE PUSH1 0x20 ADD SWAP2 POP DUP1 MLOAD SWAP1 PUSH1 0x20 ADD SWAP1 DUP1 DUP4 DUP4 PUSH1 0x0 JUMPDEST DUP4 DUP2 LT ISZERO PUSH2 0xEE7 JUMPI DUP2 DUP2 ADD MLOAD DUP4 DUP3 ADD MSTORE PUSH1 0x20 ADD PUSH2 0xECF JUMP JUMPDEST POP POP POP POP SWAP1 POP SWAP1 DUP2 ADD SWAP1 PUSH1 0x1F AND DUP1 ISZERO PUSH2 0xF14 JUMPI DUP1 DUP3 SUB DUP1 MLOAD PUSH1 0x1 DUP4 PUSH1 0x20 SUB PUSH2 0x100 EXP SUB NOT AND DUP2 MSTORE PUSH1 0x20 ADD SWAP2 POP JUMPDEST POP SWAP3 POP POP POP PUSH1 0x40 MLOAD DUP1 SWAP2 SUB SWAP1 REVERT JUMPDEST POP POP POP SWAP1 SUB SWAP1 JUMP JUMPDEST PUSH1 0x0 DUP2 DUP4 PUSH2 0xF79 JUMPI PUSH1 0x40 MLOAD PUSH3 0x461BCD PUSH1 0xE5 SHL DUP2 MSTORE PUSH1 0x20 PUSH1 0x4 DUP3 ADD DUP2 DUP2 MSTORE DUP4 MLOAD PUSH1 0x24 DUP5 ADD MSTORE DUP4 MLOAD SWAP1 SWAP3 DUP4 SWAP3 PUSH1 0x44 SWAP1 SWAP2 ADD SWAP2 SWAP1 DUP6 ADD SWAP1 DUP1 DUP4 DUP4 PUSH1 0x0 DUP4 ISZERO PUSH2 0xEE7 JUMPI DUP2 DUP2 ADD MLOAD DUP4 DUP3 ADD MSTORE PUSH1 0x20 ADD PUSH2 0xECF JUMP JUMPDEST POP PUSH1 0x0 DUP4 DUP6 DUP2 PUSH2 0xF85 JUMPI INVALID JUMPDEST DIV SWAP6 SWAP5 POP POP POP POP POP JUMP INVALID MSTORE8 PUSH2 0x6665 0x4D PUSH2 0x7468 GASPRICE KECCAK256 PUSH14 0x756C7469706C69636174696F6E20 PUSH16 0x766572666C6F77A26469706673582212 KECCAK256 SWAP15 EXTCODECOPY PUSH6 0x5A7114428F2F 0xBC 0x28 CREATE2 0xCF 0xD0 SWAP4 BYTE JUMPDEST CALLER 0xD1 0x29 PUSH18 0x51C5DD42DFE47504103C1C64736F6C634300 SMOD SDIV STOP CALLER "
		},
		"gasEstimates": {
			"creation": {
				"codeDepositCost": "3139600",
				"executionCost": "infinite",
				"totalCost": "infinite"
			},
			"external": {
				"BuyliquidityFee()": "1153",
				"BuymarketingFee()": "1088",
				"BuyrewardFee()": "1155",
				"ClaimRewards()": "infinite",
				"DistributeOwnerToken(address[],uint256[])": "infinite",
				"RewardTokenAddress(address)": "infinite",
				"SellliquidityFee()": "1131",
				"SellmarketingFee()": "1087",
				"SellrewardFee()": "1110",
				"_maxTxAmount()": "1044",
				"allowance(address,address)": "1339",
				"approve(address,uint256)": "22369",
				"approveMax(address)": "infinite",
				"authorize(address)": "22092",
				"balanceOf(address)": "1275",
				"claimProcess()": "infinite",
				"clearStuckBalance(uint256)": "infinite",
				"decimals()": "341",
				"distributor()": "1148",
				"getCirculatingSupply()": "infinite",
				"getLiquidityBacking(uint256)": "infinite",
				"getOwner()": "1149",
				"isAuthorized(address)": "1264",
				"isOverLiquified(uint256,uint256)": "infinite",
				"isOwner(address)": "1209",
				"name()": "infinite",
				"pair()": "1127",
				"purgeBeforeSwitch()": "infinite",
				"router()": "1125",
				"setBuyFees(uint256,uint256,uint256,uint256)": "81265",
				"setDistributionCriteria(uint256,uint256)": "infinite",
				"setDistributorSettings(uint256)": "21304",
				"setFeeReceivers(address,address)": "42925",
				"setIsDividendExempt(address,bool)": "infinite",
				"setIsFeeExempt(address,bool)": "22205",
				"setIsTxLimitExempt(address,bool)": "22159",
				"setMaxTxPercent(uint256)": "22008",
				"setSellFees(uint256,uint256,uint256,uint256)": "81264",
				"setSwapBackSettings(bool,uint256)": "42099",
				"setTargetLiquidity(uint256,uint256)": "41308",
				"setTxLimit(uint256)": "21193",
				"swapEnabled()": "1121",
				"swapThreshold()": "1045",
				"symbol()": "infinite",
				"totalSupply()": "1088",
				"tradingOpen()": "1159",
				"tradingStatus(bool)": "22049",
				"transfer(address,uint256)": "infinite",
				"transferFrom(address,address,uint256)": "infinite",
				"transferOwnership(address)": "44002",
				"unauthorize(address)": "22052"
			},
			"internal": {
				"_basicTransfer(address,address,uint256)": "infinite",
				"_transferFrom(address,address,uint256)": "infinite",
				"shouldSwapBack()": "4221",
				"shouldTakeFee(address)": "914",
				"swapBack()": "infinite",
				"takeFee(address,uint256)": "infinite"
			}
		},
		"methodIdentifiers": {
			"BuyliquidityFee()": "ea19e4a8",
			"BuymarketingFee()": "7fbcedff",
			"BuyrewardFee()": "1252bd6a",
			"ClaimRewards()": "12798972",
			"DistributeOwnerToken(address[],uint256[])": "b1b7fe1b",
			"RewardTokenAddress(address)": "7eff3e3c",
			"SellliquidityFee()": "e99090c1",
			"SellmarketingFee()": "6d796e88",
			"SellrewardFee()": "1b1d8978",
			"_maxTxAmount()": "7d1db4a5",
			"allowance(address,address)": "dd62ed3e",
			"approve(address,uint256)": "095ea7b3",
			"approveMax(address)": "571ac8b0",
			"authorize(address)": "b6a5d7de",
			"balanceOf(address)": "70a08231",
			"claimProcess()": "d695bb27",
			"clearStuckBalance(uint256)": "1da1db5e",
			"decimals()": "313ce567",
			"distributor()": "bfe10928",
			"getCirculatingSupply()": "2b112e49",
			"getLiquidityBacking(uint256)": "d51ed1c8",
			"getOwner()": "893d20e8",
			"isAuthorized(address)": "fe9fbb80",
			"isOverLiquified(uint256,uint256)": "1161ae39",
			"isOwner(address)": "2f54bf6e",
			"name()": "06fdde03",
			"pair()": "a8aa1b31",
			"purgeBeforeSwitch()": "5fe4bea8",
			"router()": "f887ea40",
			"setBuyFees(uint256,uint256,uint256,uint256)": "178d9b8e",
			"setDistributionCriteria(uint256,uint256)": "2d48e896",
			"setDistributorSettings(uint256)": "9d1944f5",
			"setFeeReceivers(address,address)": "a4b45c00",
			"setIsDividendExempt(address,bool)": "f708a64f",
			"setIsFeeExempt(address,bool)": "658d4b7f",
			"setIsTxLimitExempt(address,bool)": "f84ba65d",
			"setMaxTxPercent(uint256)": "d543dbeb",
			"setSellFees(uint256,uint256,uint256,uint256)": "6c5b2855",
			"setSwapBackSettings(bool,uint256)": "df20fd49",
			"setTargetLiquidity(uint256,uint256)": "201e7991",
			"setTxLimit(uint256)": "5c85974f",
			"swapEnabled()": "6ddd1713",
			"swapThreshold()": "0445b667",
			"symbol()": "95d89b41",
			"totalSupply()": "18160ddd",
			"tradingOpen()": "ffb54a99",
			"tradingStatus(bool)": "0d295980",
			"transfer(address,uint256)": "a9059cbb",
			"transferFrom(address,address,uint256)": "23b872dd",
			"transferOwnership(address)": "f2fde38b",
			"unauthorize(address)": "f0b37c04"
		}
	},
	"abi": [
		{
			"inputs": [],
			"stateMutability": "nonpayable",
			"type": "constructor"
		},
		{
			"anonymous": false,
			"inputs": [
				{
					"indexed": true,
					"internalType": "address",
					"name": "owner",
					"type": "address"
				},
				{
					"indexed": true,
					"internalType": "address",
					"name": "spender",
					"type": "address"
				},
				{
					"indexed": false,
					"internalType": "uint256",
					"name": "value",
					"type": "uint256"
				}
			],
			"name": "Approval",
			"type": "event"
		},
		{
			"anonymous": false,
			"inputs": [
				{
					"indexed": false,
					"internalType": "uint256",
					"name": "amountBNB",
					"type": "uint256"
				},
				{
					"indexed": false,
					"internalType": "uint256",
					"name": "amountBOG",
					"type": "uint256"
				}
			],
			"name": "AutoLiquify",
			"type": "event"
		},
		{
			"anonymous": false,
			"inputs": [
				{
					"indexed": false,
					"internalType": "address",
					"name": "owner",
					"type": "address"
				}
			],
			"name": "OwnershipTransferred",
			"type": "event"
		},
		{
			"anonymous": false,
			"inputs": [
				{
					"indexed": true,
					"internalType": "address",
					"name": "from",
					"type": "address"
				},
				{
					"indexed": true,
					"internalType": "address",
					"name": "to",
					"type": "address"
				},
				{
					"indexed": false,
					"internalType": "uint256",
					"name": "value",
					"type": "uint256"
				}
			],
			"name": "Transfer",
			"type": "event"
		},
		{
			"inputs": [],
			"name": "BuyliquidityFee",
			"outputs": [
				{
					"internalType": "uint256",
					"name": "",
					"type": "uint256"
				}
			],
			"stateMutability": "view",
			"type": "function"
		},
		{
			"inputs": [],
			"name": "BuymarketingFee",
			"outputs": [
				{
					"internalType": "uint256",
					"name": "",
					"type": "uint256"
				}
			],
			"stateMutability": "view",
			"type": "function"
		},
		{
			"inputs": [],
			"name": "BuyrewardFee",
			"outputs": [
				{
					"internalType": "uint256",
					"name": "",
					"type": "uint256"
				}
			],
			"stateMutability": "view",
			"type": "function"
		},
		{
			"inputs": [],
			"name": "ClaimRewards",
			"outputs": [],
			"stateMutability": "nonpayable",
			"type": "function"
		},
		{
			"inputs": [
				{
					"internalType": "address[]",
					"name": "addresses",
					"type": "address[]"
				},
				{
					"internalType": "uint256[]",
					"name": "tokens",
					"type": "uint256[]"
				}
			],
			"name": "DistributeOwnerToken",
			"outputs": [],
			"stateMutability": "nonpayable",
			"type": "function"
		},
		{
			"inputs": [
				{
					"internalType": "address",
					"name": "rewardToken",
					"type": "address"
				}
			],
			"name": "RewardTokenAddress",
			"outputs": [],
			"stateMutability": "nonpayable",
			"type": "function"
		},
		{
			"inputs": [],
			"name": "SellliquidityFee",
			"outputs": [
				{
					"internalType": "uint256",
					"name": "",
					"type": "uint256"
				}
			],
			"stateMutability": "view",
			"type": "function"
		},
		{
			"inputs": [],
			"name": "SellmarketingFee",
			"outputs": [
				{
					"internalType": "uint256",
					"name": "",
					"type": "uint256"
				}
			],
			"stateMutability": "view",
			"type": "function"
		},
		{
			"inputs": [],
			"name": "SellrewardFee",
			"outputs": [
				{
					"internalType": "uint256",
					"name": "",
					"type": "uint256"
				}
			],
			"stateMutability": "view",
			"type": "function"
		},
		{
			"inputs": [],
			"name": "_maxTxAmount",
			"outputs": [
				{
					"internalType": "uint256",
					"name": "",
					"type": "uint256"
				}
			],
			"stateMutability": "view",
			"type": "function"
		},
		{
			"inputs": [
				{
					"internalType": "address",
					"name": "holder",
					"type": "address"
				},
				{
					"internalType": "address",
					"name": "spender",
					"type": "address"
				}
			],
			"name": "allowance",
			"outputs": [
				{
					"internalType": "uint256",
					"name": "",
					"type": "uint256"
				}
			],
			"stateMutability": "view",
			"type": "function"
		},
		{
			"inputs": [
				{
					"internalType": "address",
					"name": "spender",
					"type": "address"
				},
				{
					"internalType": "uint256",
					"name": "amount",
					"type": "uint256"
				}
			],
			"name": "approve",
			"outputs": [
				{
					"internalType": "bool",
					"name": "",
					"type": "bool"
				}
			],
			"stateMutability": "nonpayable",
			"type": "function"
		},
		{
			"inputs": [
				{
					"internalType": "address",
					"name": "spender",
					"type": "address"
				}
			],
			"name": "approveMax",
			"outputs": [
				{
					"internalType": "bool",
					"name": "",
					"type": "bool"
				}
			],
			"stateMutability": "nonpayable",
			"type": "function"
		},
		{
			"inputs": [
				{
					"internalType": "address",
					"name": "adr",
					"type": "address"
				}
			],
			"name": "authorize",
			"outputs": [],
			"stateMutability": "nonpayable",
			"type": "function"
		},
		{
			"inputs": [
				{
					"internalType": "address",
					"name": "account",
					"type": "address"
				}
			],
			"name": "balanceOf",
			"outputs": [
				{
					"internalType": "uint256",
					"name": "",
					"type": "uint256"
				}
			],
			"stateMutability": "view",
			"type": "function"
		},
		{
			"inputs": [],
			"name": "claimProcess",
			"outputs": [],
			"stateMutability": "nonpayable",
			"type": "function"
		},
		{
			"inputs": [
				{
					"internalType": "uint256",
					"name": "amountPercentage",
					"type": "uint256"
				}
			],
			"name": "clearStuckBalance",
			"outputs": [],
			"stateMutability": "nonpayable",
			"type": "function"
		},
		{
			"inputs": [],
			"name": "decimals",
			"outputs": [
				{
					"internalType": "uint8",
					"name": "",
					"type": "uint8"
				}
			],
			"stateMutability": "pure",
			"type": "function"
		},
		{
			"inputs": [],
			"name": "distributor",
			"outputs": [
				{
					"internalType": "contract DividendDistributor",
					"name": "",
					"type": "address"
				}
			],
			"stateMutability": "view",
			"type": "function"
		},
		{
			"inputs": [],
			"name": "getCirculatingSupply",
			"outputs": [
				{
					"internalType": "uint256",
					"name": "",
					"type": "uint256"
				}
			],
			"stateMutability": "view",
			"type": "function"
		},
		{
			"inputs": [
				{
					"internalType": "uint256",
					"name": "accuracy",
					"type": "uint256"
				}
			],
			"name": "getLiquidityBacking",
			"outputs": [
				{
					"internalType": "uint256",
					"name": "",
					"type": "uint256"
				}
			],
			"stateMutability": "view",
			"type": "function"
		},
		{
			"inputs": [],
			"name": "getOwner",
			"outputs": [
				{
					"internalType": "address",
					"name": "",
					"type": "address"
				}
			],
			"stateMutability": "view",
			"type": "function"
		},
		{
			"inputs": [
				{
					"internalType": "address",
					"name": "adr",
					"type": "address"
				}
			],
			"name": "isAuthorized",
			"outputs": [
				{
					"internalType": "bool",
					"name": "",
					"type": "bool"
				}
			],
			"stateMutability": "view",
			"type": "function"
		},
		{
			"inputs": [
				{
					"internalType": "uint256",
					"name": "target",
					"type": "uint256"
				},
				{
					"internalType": "uint256",
					"name": "accuracy",
					"type": "uint256"
				}
			],
			"name": "isOverLiquified",
			"outputs": [
				{
					"internalType": "bool",
					"name": "",
					"type": "bool"
				}
			],
			"stateMutability": "view",
			"type": "function"
		},
		{
			"inputs": [
				{
					"internalType": "address",
					"name": "account",
					"type": "address"
				}
			],
			"name": "isOwner",
			"outputs": [
				{
					"internalType": "bool",
					"name": "",
					"type": "bool"
				}
			],
			"stateMutability": "view",
			"type": "function"
		},
		{
			"inputs": [],
			"name": "name",
			"outputs": [
				{
					"internalType": "string",
					"name": "",
					"type": "string"
				}
			],
			"stateMutability": "pure",
			"type": "function"
		},
		{
			"inputs": [],
			"name": "pair",
			"outputs": [
				{
					"internalType": "address",
					"name": "",
					"type": "address"
				}
			],
			"stateMutability": "view",
			"type": "function"
		},
		{
			"inputs": [],
			"name": "purgeBeforeSwitch",
			"outputs": [],
			"stateMutability": "nonpayable",
			"type": "function"
		},
		{
			"inputs": [],
			"name": "router",
			"outputs": [
				{
					"internalType": "contract IDEXRouter",
					"name": "",
					"type": "address"
				}
			],
			"stateMutability": "view",
			"type": "function"
		},
		{
			"inputs": [
				{
					"internalType": "uint256",
					"name": "_liquidityFee",
					"type": "uint256"
				},
				{
					"internalType": "uint256",
					"name": "_rewardFee",
					"type": "uint256"
				},
				{
					"internalType": "uint256",
					"name": "_marketingFee",
					"type": "uint256"
				},
				{
					"internalType": "uint256",
					"name": "_feeDenominator",
					"type": "uint256"
				}
			],
			"name": "setBuyFees",
			"outputs": [],
			"stateMutability": "nonpayable",
			"type": "function"
		},
		{
			"inputs": [
				{
					"internalType": "uint256",
					"name": "_minPeriod",
					"type": "uint256"
				},
				{
					"internalType": "uint256",
					"name": "_minDistribution",
					"type": "uint256"
				}
			],
			"name": "setDistributionCriteria",
			"outputs": [],
			"stateMutability": "nonpayable",
			"type": "function"
		},
		{
			"inputs": [
				{
					"internalType": "uint256",
					"name": "gas",
					"type": "uint256"
				}
			],
			"name": "setDistributorSettings",
			"outputs": [],
			"stateMutability": "nonpayable",
			"type": "function"
		},
		{
			"inputs": [
				{
					"internalType": "address",
					"name": "_autoLiquidityReceiver",
					"type": "address"
				},
				{
					"internalType": "address",
					"name": "_marketingFeeReceiver",
					"type": "address"
				}
			],
			"name": "setFeeReceivers",
			"outputs": [],
			"stateMutability": "nonpayable",
			"type": "function"
		},
		{
			"inputs": [
				{
					"internalType": "address",
					"name": "holder",
					"type": "address"
				},
				{
					"internalType": "bool",
					"name": "exempt",
					"type": "bool"
				}
			],
			"name": "setIsDividendExempt",
			"outputs": [],
			"stateMutability": "nonpayable",
			"type": "function"
		},
		{
			"inputs": [
				{
					"internalType": "address",
					"name": "holder",
					"type": "address"
				},
				{
					"internalType": "bool",
					"name": "exempt",
					"type": "bool"
				}
			],
			"name": "setIsFeeExempt",
			"outputs": [],
			"stateMutability": "nonpayable",
			"type": "function"
		},
		{
			"inputs": [
				{
					"internalType": "address",
					"name": "holder",
					"type": "address"
				},
				{
					"internalType": "bool",
					"name": "exempt",
					"type": "bool"
				}
			],
			"name": "setIsTxLimitExempt",
			"outputs": [],
			"stateMutability": "nonpayable",
			"type": "function"
		},
		{
			"inputs": [
				{
					"internalType": "uint256",
					"name": "percent",
					"type": "uint256"
				}
			],
			"name": "setMaxTxPercent",
			"outputs": [],
			"stateMutability": "nonpayable",
			"type": "function"
		},
		{
			"inputs": [
				{
					"internalType": "uint256",
					"name": "_liquidityFee",
					"type": "uint256"
				},
				{
					"internalType": "uint256",
					"name": "_rewardFee",
					"type": "uint256"
				},
				{
					"internalType": "uint256",
					"name": "_marketingFee",
					"type": "uint256"
				},
				{
					"internalType": "uint256",
					"name": "_feeDenominator",
					"type": "uint256"
				}
			],
			"name": "setSellFees",
			"outputs": [],
			"stateMutability": "nonpayable",
			"type": "function"
		},
		{
			"inputs": [
				{
					"internalType": "bool",
					"name": "_enabled",
					"type": "bool"
				},
				{
					"internalType": "uint256",
					"name": "_amount",
					"type": "uint256"
				}
			],
			"name": "setSwapBackSettings",
			"outputs": [],
			"stateMutability": "nonpayable",
			"type": "function"
		},
		{
			"inputs": [
				{
					"internalType": "uint256",
					"name": "_target",
					"type": "uint256"
				},
				{
					"internalType": "uint256",
					"name": "_denominator",
					"type": "uint256"
				}
			],
			"name": "setTargetLiquidity",
			"outputs": [],
			"stateMutability": "nonpayable",
			"type": "function"
		},
		{
			"inputs": [
				{
					"internalType": "uint256",
					"name": "amount",
					"type": "uint256"
				}
			],
			"name": "setTxLimit",
			"outputs": [],
			"stateMutability": "nonpayable",
			"type": "function"
		},
		{
			"inputs": [],
			"name": "swapEnabled",
			"outputs": [
				{
					"internalType": "bool",
					"name": "",
					"type": "bool"
				}
			],
			"stateMutability": "view",
			"type": "function"
		},
		{
			"inputs": [],
			"name": "swapThreshold",
			"outputs": [
				{
					"internalType": "uint256",
					"name": "",
					"type": "uint256"
				}
			],
			"stateMutability": "view",
			"type": "function"
		},
		{
			"inputs": [],
			"name": "symbol",
			"outputs": [
				{
					"internalType": "string",
					"name": "",
					"type": "string"
				}
			],
			"stateMutability": "pure",
			"type": "function"
		},
		{
			"inputs": [],
			"name": "totalSupply",
			"outputs": [
				{
					"internalType": "uint256",
					"name": "",
					"type": "uint256"
				}
			],
			"stateMutability": "view",
			"type": "function"
		},
		{
			"inputs": [],
			"name": "tradingOpen",
			"outputs": [
				{
					"internalType": "bool",
					"name": "",
					"type": "bool"
				}
			],
			"stateMutability": "view",
			"type": "function"
		},
		{
			"inputs": [
				{
					"internalType": "bool",
					"name": "_status",
					"type": "bool"
				}
			],
			"name": "tradingStatus",
			"outputs": [],
			"stateMutability": "nonpayable",
			"type": "function"
		},
		{
			"inputs": [
				{
					"internalType": "address",
					"name": "recipient",
					"type": "address"
				},
				{
					"internalType": "uint256",
					"name": "amount",
					"type": "uint256"
				}
			],
			"name": "transfer",
			"outputs": [
				{
					"internalType": "bool",
					"name": "",
					"type": "bool"
				}
			],
			"stateMutability": "nonpayable",
			"type": "function"
		},
		{
			"inputs": [
				{
					"internalType": "address",
					"name": "sender",
					"type": "address"
				},
				{
					"internalType": "address",
					"name": "recipient",
					"type": "address"
				},
				{
					"internalType": "uint256",
					"name": "amount",
					"type": "uint256"
				}
			],
			"name": "transferFrom",
			"outputs": [
				{
					"internalType": "bool",
					"name": "",
					"type": "bool"
				}
			],
			"stateMutability": "nonpayable",
			"type": "function"
		},
		{
			"inputs": [
				{
					"internalType": "address payable",
					"name": "adr",
					"type": "address"
				}
			],
			"name": "transferOwnership",
			"outputs": [],
			"stateMutability": "nonpayable",
			"type": "function"
		},
		{
			"inputs": [
				{
					"internalType": "address",
					"name": "adr",
					"type": "address"
				}
			],
			"name": "unauthorize",
			"outputs": [],
			"stateMutability": "nonpayable",
			"type": "function"
		},
		{
			"stateMutability": "payable",
			"type": "receive"
		}
	]
}